{
  "contractName": "AbacusKernel",
  "abi": [
    {
      "constant": true,
      "inputs": [
        {
          "name": "",
          "type": "uint256"
        }
      ],
      "name": "escrows",
      "outputs": [
        {
          "name": "state",
          "type": "uint8"
        },
        {
          "name": "from",
          "type": "address"
        },
        {
          "name": "to",
          "type": "address"
        },
        {
          "name": "amount",
          "type": "uint256"
        },
        {
          "name": "expiryBlockInterval",
          "type": "uint256"
        },
        {
          "name": "blockLocked",
          "type": "uint256"
        }
      ],
      "payable": false,
      "stateMutability": "view",
      "type": "function"
    },
    {
      "constant": true,
      "inputs": [],
      "name": "providerRegistry",
      "outputs": [
        {
          "name": "",
          "type": "address"
        }
      ],
      "payable": false,
      "stateMutability": "view",
      "type": "function"
    },
    {
      "constant": true,
      "inputs": [],
      "name": "token",
      "outputs": [
        {
          "name": "",
          "type": "address"
        }
      ],
      "payable": false,
      "stateMutability": "view",
      "type": "function"
    },
    {
      "inputs": [
        {
          "name": "_token",
          "type": "address"
        },
        {
          "name": "_providerRegistry",
          "type": "address"
        }
      ],
      "payable": false,
      "stateMutability": "nonpayable",
      "type": "constructor"
    },
    {
      "anonymous": false,
      "inputs": [
        {
          "indexed": true,
          "name": "providerId",
          "type": "uint256"
        },
        {
          "indexed": false,
          "name": "providerVersion",
          "type": "uint256"
        },
        {
          "indexed": false,
          "name": "escrowId",
          "type": "uint256"
        },
        {
          "indexed": false,
          "name": "requester",
          "type": "address"
        },
        {
          "indexed": false,
          "name": "cost",
          "type": "uint256"
        },
        {
          "indexed": false,
          "name": "requestId",
          "type": "uint256"
        }
      ],
      "name": "ServiceRequested",
      "type": "event"
    },
    {
      "anonymous": false,
      "inputs": [
        {
          "indexed": true,
          "name": "providerId",
          "type": "uint256"
        },
        {
          "indexed": false,
          "name": "escrowId",
          "type": "uint256"
        },
        {
          "indexed": false,
          "name": "requester",
          "type": "address"
        },
        {
          "indexed": false,
          "name": "requestId",
          "type": "uint256"
        }
      ],
      "name": "ServiceRequestAccepted",
      "type": "event"
    },
    {
      "anonymous": false,
      "inputs": [
        {
          "indexed": false,
          "name": "requester",
          "type": "address"
        },
        {
          "indexed": true,
          "name": "requestId",
          "type": "uint256"
        }
      ],
      "name": "ServiceRequestRevokedByCancel",
      "type": "event"
    },
    {
      "anonymous": false,
      "inputs": [
        {
          "indexed": false,
          "name": "requester",
          "type": "address"
        },
        {
          "indexed": true,
          "name": "requestId",
          "type": "uint256"
        }
      ],
      "name": "ServiceRequestRevokedByExpiry",
      "type": "event"
    },
    {
      "anonymous": false,
      "inputs": [
        {
          "indexed": true,
          "name": "providerId",
          "type": "uint256"
        },
        {
          "indexed": false,
          "name": "escrowId",
          "type": "uint256"
        },
        {
          "indexed": false,
          "name": "requester",
          "type": "address"
        },
        {
          "indexed": false,
          "name": "requestId",
          "type": "uint256"
        }
      ],
      "name": "ServicePerformed",
      "type": "event"
    },
    {
      "constant": false,
      "inputs": [
        {
          "name": "providerId",
          "type": "uint256"
        },
        {
          "name": "cost",
          "type": "uint256"
        },
        {
          "name": "requestId",
          "type": "uint256"
        },
        {
          "name": "expiryBlockInterval",
          "type": "uint256"
        }
      ],
      "name": "requestAsyncService",
      "outputs": [],
      "payable": false,
      "stateMutability": "nonpayable",
      "type": "function"
    },
    {
      "constant": false,
      "inputs": [
        {
          "name": "providerId",
          "type": "uint256"
        },
        {
          "name": "requester",
          "type": "address"
        },
        {
          "name": "requestId",
          "type": "uint256"
        }
      ],
      "name": "acceptAsyncServiceRequest",
      "outputs": [],
      "payable": false,
      "stateMutability": "nonpayable",
      "type": "function"
    },
    {
      "constant": false,
      "inputs": [
        {
          "name": "requestId",
          "type": "uint256"
        }
      ],
      "name": "revokeAsyncServiceRequest",
      "outputs": [],
      "payable": false,
      "stateMutability": "nonpayable",
      "type": "function"
    },
    {
      "constant": false,
      "inputs": [
        {
          "name": "providerId",
          "type": "uint256"
        },
        {
          "name": "requester",
          "type": "address"
        },
        {
          "name": "requestId",
          "type": "uint256"
        }
      ],
      "name": "onAsyncServiceCompleted",
      "outputs": [],
      "payable": false,
      "stateMutability": "nonpayable",
      "type": "function"
    }
  ],
  "bytecode": "0x6080604052600160035534801561001557600080fd5b506040516040806115088339810180604052810190808051906020019092919080519060200190929190505050816000806101000a81548173ffffffffffffffffffffffffffffffffffffffff021916908373ffffffffffffffffffffffffffffffffffffffff16021790555080600160006101000a81548173ffffffffffffffffffffffffffffffffffffffff021916908373ffffffffffffffffffffffffffffffffffffffff1602179055505050611434806100d46000396000f300608060405260043610610083576000357c0100000000000000000000000000000000000000000000000000000000900463ffffffff168063012f52ee14610088578063545921d9146101525780635f6d57bc146101a9578063668d8286146101d657806392da5bb11461022d578063993c569614610278578063fc0c546a146102cf575b600080fd5b34801561009457600080fd5b506100b360048036038101908080359060200190929190505050610326565b604051808760048111156100c357fe5b60ff1681526020018673ffffffffffffffffffffffffffffffffffffffff1673ffffffffffffffffffffffffffffffffffffffff1681526020018573ffffffffffffffffffffffffffffffffffffffff1673ffffffffffffffffffffffffffffffffffffffff168152602001848152602001838152602001828152602001965050505050505060405180910390f35b34801561015e57600080fd5b506101676103af565b604051808273ffffffffffffffffffffffffffffffffffffffff1673ffffffffffffffffffffffffffffffffffffffff16815260200191505060405180910390f35b3480156101b557600080fd5b506101d4600480360381019080803590602001909291905050506103d5565b005b3480156101e257600080fd5b5061022b60048036038101908080359060200190929190803573ffffffffffffffffffffffffffffffffffffffff16906020019092919080359060200190929190505050610538565b005b34801561023957600080fd5b5061027660048036038101908080359060200190929190803590602001909291908035906020019092919080359060200190929190505050610725565b005b34801561028457600080fd5b506102cd60048036038101908080359060200190929190803573ffffffffffffffffffffffffffffffffffffffff16906020019092919080359060200190929190505050610a0f565b005b3480156102db57600080fd5b506102e4610bfc565b604051808273ffffffffffffffffffffffffffffffffffffffff1673ffffffffffffffffffffffffffffffffffffffff16815260200191505060405180910390f35b60026020528060005260406000206000915090508060000160009054906101000a900460ff16908060000160019054906101000a900473ffffffffffffffffffffffffffffffffffffffff16908060010160009054906101000a900473ffffffffffffffffffffffffffffffffffffffff16908060020154908060030154908060040154905086565b600160009054906101000a900473ffffffffffffffffffffffffffffffffffffffff1681565b600080600460003373ffffffffffffffffffffffffffffffffffffffff1673ffffffffffffffffffffffffffffffffffffffff16815260200190815260200160002060008481526020019081526020016000205491506000821415151561043b57600080fd5b61044482610c21565b90506003600481111561045357fe5b81600481111561045f57fe5b14156104ce57827fb2cca000c58c6ffa3721a9a25f85d71ce2a459937f8e9c5d90515a51107a848533604051808273ffffffffffffffffffffffffffffffffffffffff1673ffffffffffffffffffffffffffffffffffffffff16815260200191505060405180910390a2610533565b827f3e386699ae03ee5d46fc785dbb3adc7feb35880546a23d3239b03b392167522533604051808273ffffffffffffffffffffffffffffffffffffffff1673ffffffffffffffffffffffffffffffffffffffff16815260200191505060405180910390a25b505050565b6000600460008473ffffffffffffffffffffffffffffffffffffffff1673ffffffffffffffffffffffffffffffffffffffff16815260200190815260200160002060008381526020019081526020016000205490506000811415151561059d57600080fd5b600160009054906101000a900473ffffffffffffffffffffffffffffffffffffffff1673ffffffffffffffffffffffffffffffffffffffff1663b3687932856040518263ffffffff167c010000000000000000000000000000000000000000000000000000000002815260040180828152602001915050602060405180830381600087803b15801561062e57600080fd5b505af1158015610642573d6000803e3d6000fd5b505050506040513d602081101561065857600080fd5b810190808051906020019092919050505073ffffffffffffffffffffffffffffffffffffffff163373ffffffffffffffffffffffffffffffffffffffff161415156106a257600080fd5b6106ab81610e3d565b837fdb2836e435959a9c2e6282735252e26275d85eeb831d823c5b48af52f5e0a233828585604051808481526020018373ffffffffffffffffffffffffffffffffffffffff1673ffffffffffffffffffffffffffffffffffffffff168152602001828152602001935050505060405180910390a250505050565b600080600160009054906101000a900473ffffffffffffffffffffffffffffffffffffffff1673ffffffffffffffffffffffffffffffffffffffff1663b3687932876040518263ffffffff167c010000000000000000000000000000000000000000000000000000000002815260040180828152602001915050602060405180830381600087803b1580156107b957600080fd5b505af11580156107cd573d6000803e3d6000fd5b505050506040513d60208110156107e357600080fd5b810190808051906020019092919050505091506000600460003373ffffffffffffffffffffffffffffffffffffffff1673ffffffffffffffffffffffffffffffffffffffff16815260200190815260200160002060008681526020019081526020016000205414151561085557600080fd5b61086133838786610ebd565b905080600460003373ffffffffffffffffffffffffffffffffffffffff1673ffffffffffffffffffffffffffffffffffffffff168152602001908152602001600020600086815260200190815260200160002081905550857f86ed68f30638f1f30c7370e5c75056f43088681067ac5029b45318b40ac92c8b600160009054906101000a900473ffffffffffffffffffffffffffffffffffffffff1673ffffffffffffffffffffffffffffffffffffffff1663bb6ec2ec896040518263ffffffff167c010000000000000000000000000000000000000000000000000000000002815260040180828152602001915050602060405180830381600087803b15801561096b57600080fd5b505af115801561097f573d6000803e3d6000fd5b505050506040513d602081101561099557600080fd5b810190808051906020019092919050505083338989604051808681526020018581526020018473ffffffffffffffffffffffffffffffffffffffff1673ffffffffffffffffffffffffffffffffffffffff1681526020018381526020018281526020019550505050505060405180910390a2505050505050565b6000600160009054906101000a900473ffffffffffffffffffffffffffffffffffffffff1673ffffffffffffffffffffffffffffffffffffffff1663b3687932856040518263ffffffff167c010000000000000000000000000000000000000000000000000000000002815260040180828152602001915050602060405180830381600087803b158015610aa257600080fd5b505af1158015610ab6573d6000803e3d6000fd5b505050506040513d6020811015610acc57600080fd5b810190808051906020019092919050505073ffffffffffffffffffffffffffffffffffffffff163373ffffffffffffffffffffffffffffffffffffffff16141515610b1657600080fd5b600460008473ffffffffffffffffffffffffffffffffffffffff1673ffffffffffffffffffffffffffffffffffffffff168152602001908152602001600020600083815260200190815260200160002054905060008114151515610b7957600080fd5b610b828161121b565b837f7f475a2fa723ee2620d190e6d37f1a8c3ebff6ab260fcea51d07b3de00260381828585604051808481526020018373ffffffffffffffffffffffffffffffffffffffff1673ffffffffffffffffffffffffffffffffffffffff168152602001828152602001935050505060405180910390a250505050565b6000809054906101000a900473ffffffffffffffffffffffffffffffffffffffff1681565b60008060026000848152602001908152602001600020905060006004811115610c4657fe5b8160000160009054906101000a900460ff166004811115610c6357fe5b1480610c895750610c85816003015482600401546113ec90919063ffffffff16565b4310155b1515610c9457600080fd5b6000809054906101000a900473ffffffffffffffffffffffffffffffffffffffff1673ffffffffffffffffffffffffffffffffffffffff1663a9059cbb8260000160019054906101000a900473ffffffffffffffffffffffffffffffffffffffff1683600201546040518363ffffffff167c0100000000000000000000000000000000000000000000000000000000028152600401808373ffffffffffffffffffffffffffffffffffffffff1673ffffffffffffffffffffffffffffffffffffffff16815260200182815260200192505050602060405180830381600087803b158015610d8057600080fd5b505af1158015610d94573d6000803e3d6000fd5b505050506040513d6020811015610daa57600080fd5b81019080805190602001909291905050501515610dc657600080fd5b60006004811115610dd357fe5b8160000160009054906101000a900460ff166004811115610df057fe5b14610dfc576004610dff565b60035b8160000160006101000a81548160ff02191690836004811115610e1e57fe5b02179055508060000160009054906101000a900460ff16915050919050565b600060026000838152602001908152602001600020905060006004811115610e6157fe5b8160000160009054906101000a900460ff166004811115610e7e57fe5b141515610e8a57600080fd5b60018160000160006101000a81548160ff02191690836004811115610eab57fe5b02179055504381600401819055505050565b60008073ffffffffffffffffffffffffffffffffffffffff168573ffffffffffffffffffffffffffffffffffffffff1614158015610f285750600073ffffffffffffffffffffffffffffffffffffffff168473ffffffffffffffffffffffffffffffffffffffff1614155b8015610f6057503073ffffffffffffffffffffffffffffffffffffffff168473ffffffffffffffffffffffffffffffffffffffff1614155b1515610f6b57600080fd5b6000809054906101000a900473ffffffffffffffffffffffffffffffffffffffff1673ffffffffffffffffffffffffffffffffffffffff166323b872dd8630866040518463ffffffff167c0100000000000000000000000000000000000000000000000000000000028152600401808473ffffffffffffffffffffffffffffffffffffffff1673ffffffffffffffffffffffffffffffffffffffff1681526020018373ffffffffffffffffffffffffffffffffffffffff1673ffffffffffffffffffffffffffffffffffffffff1681526020018281526020019350505050602060405180830381600087803b15801561106357600080fd5b505af1158015611077573d6000803e3d6000fd5b505050506040513d602081101561108d57600080fd5b810190808051906020019092919050505015156110a957600080fd5b6110bf60016003546113ec90919063ffffffff16565b905060c060405190810160405280600060048111156110da57fe5b81526020018673ffffffffffffffffffffffffffffffffffffffff1681526020018573ffffffffffffffffffffffffffffffffffffffff16815260200184815260200183815260200160008152506002600083815260200190815260200160002060008201518160000160006101000a81548160ff0219169083600481111561115f57fe5b021790555060208201518160000160016101000a81548173ffffffffffffffffffffffffffffffffffffffff021916908373ffffffffffffffffffffffffffffffffffffffff16021790555060408201518160010160006101000a81548173ffffffffffffffffffffffffffffffffffffffff021916908373ffffffffffffffffffffffffffffffffffffffff160217905550606082015181600201556080820151816003015560a08201518160040155905050949350505050565b60006002600083815260200190815260200160002090506001600481111561123f57fe5b8160000160009054906101000a900460ff16600481111561125c57fe5b14151561126857600080fd5b611283816003015482600401546113ec90919063ffffffff16565b4310151561129057600080fd5b6000809054906101000a900473ffffffffffffffffffffffffffffffffffffffff1673ffffffffffffffffffffffffffffffffffffffff1663a9059cbb8260010160009054906101000a900473ffffffffffffffffffffffffffffffffffffffff1683600201546040518363ffffffff167c0100000000000000000000000000000000000000000000000000000000028152600401808373ffffffffffffffffffffffffffffffffffffffff1673ffffffffffffffffffffffffffffffffffffffff16815260200182815260200192505050602060405180830381600087803b15801561137c57600080fd5b505af1158015611390573d6000803e3d6000fd5b505050506040513d60208110156113a657600080fd5b810190808051906020019092919050505015156113c257600080fd5b60028160000160006101000a81548160ff021916908360048111156113e357fe5b02179055505050565b600081830190508281101515156113ff57fe5b809050929150505600a165627a7a723058202192f282eb93747f45888e008188bbd19e80d8a6fb8fbbe27632d6d179a085ac0029",
  "source": "pragma solidity ^0.4.24;\n\nimport \"./AbacusToken.sol\";\nimport \"./ProviderRegistry.sol\";\nimport \"openzeppelin-solidity/contracts/math/SafeMath.sol\";\n\n/**\n * @title AbacusKernel\n * @dev Manages payment with all registries. This exists to reduce friction in payment--\n * one only needs to grant the kernel allowance rather than several registries.\n */\ncontract AbacusKernel {\n    using SafeMath for uint256;\n\n    AbacusToken public token;\n    ProviderRegistry public providerRegistry;\n\n    constructor(\n        AbacusToken _token,\n        ProviderRegistry _providerRegistry\n    ) public\n    {\n        token = _token;\n        providerRegistry = _providerRegistry;\n    }\n\n    /**\n     * @dev Information needed to facilitate Escrow\n     * The Escrow lifecycle has three steps:\n     * - open: escrow account is created with tokens\n     * - lock: locks tokens in an escrow account\n     * And either one of the following:\n     * - close: closes an escrow account and distributes tokens to the appropriate party\n     * - revoke: revokes an escrow account if requester cancels or wants to retrieve tokens on expiry\n     */\n\n    enum EscrowState {\n        OPEN,\n        LOCKED,\n        CLOSED,\n        REVOKED_CANCEL,\n        REVOKED_EXPIRY\n    }\n\n    struct Escrow {\n        EscrowState state;\n        address from;\n        address to;\n        uint256 amount;\n        uint256 expiryBlockInterval;\n        uint256 blockLocked;\n    }\n\n    /**\n     * @dev Mapping of escrow id -> escrow.\n     */\n    mapping (uint256 => Escrow) public escrows;\n\n    /**\n     * @dev The next id for an escrow.\n     */\n    uint256 nextEscrowId = 1;\n\n    /**\n     * @dev Opens an escrow account between two parties.\n     */\n    function openEscrow(\n        address from,\n        address to,\n        uint256 amount,\n        uint256 expiryBlockInterval\n    ) internal returns (uint256 escrowId)\n    {\n        require(from != address(0) && to != address(0) && to != address(this));\n\n        // Transfer tokens to kernel\n        require(token.transferFrom(from, this, amount));\n\n        escrowId = nextEscrowId.add(1);\n        escrows[escrowId] = Escrow({\n            state: EscrowState.OPEN,\n            from: from,\n            to: to,\n            amount: amount,\n            expiryBlockInterval: expiryBlockInterval,\n            blockLocked: 0\n        });\n    }\n\n    /**\n     * @dev Locks ABA in escrow account\n     */\n    function lockEscrow(\n        uint256 escrowId\n    ) internal {\n        Escrow storage escrow = escrows[escrowId];\n        require(escrow.state == EscrowState.OPEN);\n\n        escrow.state = EscrowState.LOCKED;\n        escrow.blockLocked = block.number;\n    }\n\n    /**\n     * @dev Closes escrow account and transfers ABA to appropriate party\n     */\n    function closeEscrow(\n        uint256 escrowId\n    ) internal {\n        Escrow storage escrow = escrows[escrowId];\n        require(escrow.state == EscrowState.LOCKED);\n        require(block.number < escrow.blockLocked.add(escrow.expiryBlockInterval));\n\n        require(token.transfer(escrow.to, escrow.amount));\n        escrow.state = EscrowState.CLOSED;\n    }\n\n    /**\n     * @dev Revokes an escrow agreement, either due to cancellation or expiry\n     */\n    function revokeEscrow(\n        uint256 escrowId\n    ) internal returns (EscrowState) {\n        Escrow storage escrow = escrows[escrowId];\n        require(\n            escrow.state == EscrowState.OPEN ||\n            //check if service request expired\n            block.number >= escrow.blockLocked.add(escrow.expiryBlockInterval));\n        require(token.transfer(escrow.from, escrow.amount));\n        escrow.state = escrow.state == EscrowState.OPEN ? EscrowState.REVOKED_CANCEL : EscrowState.REVOKED_EXPIRY;\n        return escrow.state;\n    }\n\n    event ServiceRequested(\n        uint256 indexed providerId,\n        uint256 providerVersion,\n        uint256 escrowId,\n        address requester,\n        uint256 cost,\n        uint256 requestId\n    );\n\n    event ServiceRequestAccepted(\n        uint256 indexed providerId,\n        uint256 escrowId,\n        address requester,\n        uint256 requestId\n    );\n\n    event ServiceRequestRevokedByCancel(\n        address requester,\n        uint256 indexed requestId\n    );\n\n    event ServiceRequestRevokedByExpiry(\n        address requester,\n        uint256 indexed requestId\n    );\n\n    event ServicePerformed(\n        uint256 indexed providerId,\n        uint256 escrowId,\n        address requester,\n        uint256 requestId\n    );\n\n    /**\n     * @dev Mapping of requester address => request id => escrow id.\n     */\n    mapping (address => mapping (uint256 => uint256)) requests;\n\n    /**\n     * @dev Requests a service from the given service provider.\n     */\n    function requestAsyncService(\n        uint256 providerId,\n        uint256 cost,\n        uint256 requestId,\n        uint256 expiryBlockInterval\n    ) external {\n        address owner = providerRegistry.providerOwner(providerId);\n\n        // Ensure that the request id is new\n        require(requests[msg.sender][requestId] == 0);\n        // Open and record escrow account\n        uint256 escrowId = openEscrow(msg.sender, owner, cost, expiryBlockInterval);\n        requests[msg.sender][requestId] = escrowId;\n\n        emit ServiceRequested({\n            providerId: providerId,\n            providerVersion: providerRegistry.latestProviderVersion(providerId),\n            escrowId: escrowId,\n            requester: msg.sender,\n            cost: cost,\n            requestId: requestId\n        });\n    }\n\n    /**\n     * @dev Locks escrow account for an Async Service Request\n     */\n    function acceptAsyncServiceRequest(\n        uint256 providerId,\n        address requester,\n        uint256 requestId\n    ) external {\n        // Ensure request exists\n        uint256 escrowId = requests[requester][requestId];\n        require(escrowId != 0);\n\n        // Only the owner of the provider can accept requests\n        require(msg.sender == providerRegistry.providerOwner(providerId));\n\n        lockEscrow(escrowId);\n\n        emit ServiceRequestAccepted({\n            providerId: providerId,\n            escrowId: escrowId,\n            requester: requester,\n            requestId: requestId\n        });\n    }\n\n    /**\n     * @dev Revokes an Async Service Request. This will only succeed if escrow account is open or expired.\n     */\n    function revokeAsyncServiceRequest(\n        uint256 requestId\n    ) external {\n        uint256 escrowId = requests[msg.sender][requestId];\n        require(escrowId != 0);\n        EscrowState state = revokeEscrow(escrowId);\n\n        if (state == EscrowState.REVOKED_CANCEL)\n            emit ServiceRequestRevokedByCancel(msg.sender, requestId);\n        else\n            emit ServiceRequestRevokedByExpiry(msg.sender, requestId);\n    }\n\n    /**\n      * @dev Called by the provider when it completes its service.\n      *\n      * @param providerId The provider id.\n      * @param requester The address of the requester.\n      * @param requestId An arbitrary id to link the request to the off-chain database.\n      */\n    function onAsyncServiceCompleted(\n        uint256 providerId,\n        address requester,\n        uint256 requestId\n    ) external {\n        // Must be called from the service provider.\n        require(msg.sender == providerRegistry.providerOwner(providerId));\n\n        uint256 escrowId = requests[requester][requestId];\n        require(escrowId != 0);\n\n        closeEscrow(escrowId);\n\n        emit ServicePerformed({\n            providerId: providerId,\n            escrowId: escrowId,\n            requester: requester,\n            requestId: requestId\n        });\n    }\n\n}",
  "sourcePath": "/home/ian/proj/abacusprotocol/protocol/contracts/protocol/AbacusKernel.sol",
  "compiler": {
    "name": "solc",
    "version": "0.4.24+commit.e67f0147.Emscripten.clang"
  },
  "schemaVersion": "2.0.1",
  "updatedAt": "2018-08-02T06:02:52.811Z"
}