{
  "contractName": "AccreditedUSCS",
  "abi": [
    {
      "constant": true,
      "inputs": [
        {
          "name": "addr",
          "type": "address"
        },
        {
          "name": "roleName",
          "type": "string"
        }
      ],
      "name": "checkRole",
      "outputs": [],
      "payable": false,
      "stateMutability": "view",
      "type": "function"
    },
    {
      "constant": false,
      "inputs": [
        {
          "name": "admin",
          "type": "address"
        }
      ],
      "name": "removeAdmin",
      "outputs": [],
      "payable": false,
      "stateMutability": "nonpayable",
      "type": "function"
    },
    {
      "constant": true,
      "inputs": [
        {
          "name": "addr",
          "type": "address"
        },
        {
          "name": "roleName",
          "type": "string"
        }
      ],
      "name": "hasRole",
      "outputs": [
        {
          "name": "",
          "type": "bool"
        }
      ],
      "payable": false,
      "stateMutability": "view",
      "type": "function"
    },
    {
      "constant": false,
      "inputs": [
        {
          "name": "name",
          "type": "string"
        },
        {
          "name": "metadata",
          "type": "string"
        },
        {
          "name": "isAsync",
          "type": "bool"
        }
      ],
      "name": "registerProvider",
      "outputs": [
        {
          "name": "",
          "type": "uint256"
        }
      ],
      "payable": false,
      "stateMutability": "nonpayable",
      "type": "function"
    },
    {
      "constant": false,
      "inputs": [
        {
          "name": "newAdmin",
          "type": "address"
        }
      ],
      "name": "addAdmin",
      "outputs": [],
      "payable": false,
      "stateMutability": "nonpayable",
      "type": "function"
    },
    {
      "constant": true,
      "inputs": [],
      "name": "FIELD_ACCREDITED",
      "outputs": [
        {
          "name": "",
          "type": "uint256"
        }
      ],
      "payable": false,
      "stateMutability": "view",
      "type": "function"
    },
    {
      "constant": true,
      "inputs": [],
      "name": "providerId",
      "outputs": [
        {
          "name": "",
          "type": "uint256"
        }
      ],
      "payable": false,
      "stateMutability": "view",
      "type": "function"
    },
    {
      "constant": true,
      "inputs": [],
      "name": "FIELD_NON_US",
      "outputs": [
        {
          "name": "",
          "type": "uint256"
        }
      ],
      "payable": false,
      "stateMutability": "view",
      "type": "function"
    },
    {
      "constant": true,
      "inputs": [],
      "name": "ROLE_ADMIN",
      "outputs": [
        {
          "name": "",
          "type": "string"
        }
      ],
      "payable": false,
      "stateMutability": "view",
      "type": "function"
    },
    {
      "constant": false,
      "inputs": [
        {
          "name": "nextMetadata",
          "type": "string"
        },
        {
          "name": "nextProvider",
          "type": "address"
        },
        {
          "name": "nextIsAsync",
          "type": "bool"
        }
      ],
      "name": "performUpgrade",
      "outputs": [
        {
          "name": "",
          "type": "bool"
        }
      ],
      "payable": false,
      "stateMutability": "nonpayable",
      "type": "function"
    },
    {
      "inputs": [
        {
          "name": "_identityToken",
          "type": "address"
        },
        {
          "name": "_providerRegistry",
          "type": "address"
        },
        {
          "name": "_providerId",
          "type": "uint256"
        },
        {
          "name": "_identityProviderId",
          "type": "uint256"
        }
      ],
      "payable": false,
      "stateMutability": "nonpayable",
      "type": "constructor"
    },
    {
      "anonymous": false,
      "inputs": [
        {
          "indexed": false,
          "name": "addr",
          "type": "address"
        },
        {
          "indexed": false,
          "name": "roleName",
          "type": "string"
        }
      ],
      "name": "RoleAdded",
      "type": "event"
    },
    {
      "anonymous": false,
      "inputs": [
        {
          "indexed": false,
          "name": "addr",
          "type": "address"
        },
        {
          "indexed": false,
          "name": "roleName",
          "type": "string"
        }
      ],
      "name": "RoleRemoved",
      "type": "event"
    },
    {
      "constant": false,
      "inputs": [
        {
          "name": "token",
          "type": "address"
        },
        {
          "name": "",
          "type": "uint256"
        },
        {
          "name": "from",
          "type": "address"
        },
        {
          "name": "to",
          "type": "address"
        },
        {
          "name": "",
          "type": "bytes32"
        }
      ],
      "name": "performCheck",
      "outputs": [
        {
          "name": "",
          "type": "uint256"
        }
      ],
      "payable": false,
      "stateMutability": "nonpayable",
      "type": "function"
    }
  ],
  "bytecode": "0x608060405260006004553480156200001657600080fd5b5060405160808062001e9a83398101806040528101908080519060200190929190805190602001909291908051906020019092919080519060200190929190505050828281600260006101000a81548173ffffffffffffffffffffffffffffffffffffffff021916908373ffffffffffffffffffffffffffffffffffffffff16021790555080600181905550620000f2336040805190810160405280600581526020017f61646d696e00000000000000000000000000000000000000000000000000000081525062000146640100000000026401000000009004565b505083600360006101000a81548173ffffffffffffffffffffffffffffffffffffffff021916908373ffffffffffffffffffffffffffffffffffffffff16021790555080600581905550505050506200030a565b620001d5826000836040518082805190602001908083835b6020831015156200018557805182526020820191506020810190506020830392506200015e565b6001836020036101000a0380198251168184511680821785525050505050509050019150509081526020016040518091039020620002ac6401000000000262001af6179091906401000000009004565b7fbfec83d64eaa953f2708271a023ab9ee82057f8f3578d548c1a4ba0b5b7004898282604051808373ffffffffffffffffffffffffffffffffffffffff1673ffffffffffffffffffffffffffffffffffffffff16815260200180602001828103825283818151815260200191508051906020019080838360005b838110156200026c5780820151818401526020810190506200024f565b50505050905090810190601f1680156200029a5780820380516001836020036101000a031916815260200191505b50935050505060405180910390a15050565b60018260000160008373ffffffffffffffffffffffffffffffffffffffff1673ffffffffffffffffffffffffffffffffffffffff16815260200190815260200160002060006101000a81548160ff0219169083151502179055505050565b611b80806200031a6000396000f3006080604052600436106100af576000357c0100000000000000000000000000000000000000000000000000000000900463ffffffff1680630988ca8c146100b45780631785f53c1461013d578063217fe6c6146101805780632c93186a14610221578063704802751461029457806377ad752d146102d75780638490a8df146103025780639b2662691461032d578063d391014b14610358578063e5006aac146103e8578063ea4000f814610467575b600080fd5b3480156100c057600080fd5b5061013b600480360381019080803573ffffffffffffffffffffffffffffffffffffffff169060200190929190803590602001908201803590602001908080601f0160208091040260200160405190810160405280939291908181526020018383808284378201915050505050509192919290505050610516565b005b34801561014957600080fd5b5061017e600480360381019080803573ffffffffffffffffffffffffffffffffffffffff169060200190929190505050610597565b005b34801561018c57600080fd5b50610207600480360381019080803573ffffffffffffffffffffffffffffffffffffffff169060200190929190803590602001908201803590602001908080601f016020809104026020016040519081016040528093929190818152602001838380828437820191505050505050919291929050505061061a565b604051808215151515815260200191505060405180910390f35b34801561022d57600080fd5b5061027e6004803603810190808035906020019082018035906020019190919293919293908035906020019082018035906020019190919293919293908035151590602001909291905050506106a1565b6040518082815260200191505060405180910390f35b3480156102a057600080fd5b506102d5600480360381019080803573ffffffffffffffffffffffffffffffffffffffff169060200190929190505050610856565b005b3480156102e357600080fd5b506102ec6108d9565b6040518082815260200191505060405180910390f35b34801561030e57600080fd5b506103176108df565b6040518082815260200191505060405180910390f35b34801561033957600080fd5b506103426108e5565b6040518082815260200191505060405180910390f35b34801561036457600080fd5b5061036d6108eb565b6040518080602001828103825283818151815260200191508051906020019080838360005b838110156103ad578082015181840152602081019050610392565b50505050905090810190601f1680156103da5780820380516001836020036101000a031916815260200191505b509250505060405180910390f35b3480156103f457600080fd5b5061044d600480360381019080803590602001908201803590602001919091929391929390803573ffffffffffffffffffffffffffffffffffffffff169060200190929190803515159060200190929190505050610924565b604051808215151515815260200191505060405180910390f35b34801561047357600080fd5b50610500600480360381019080803573ffffffffffffffffffffffffffffffffffffffff16906020019092919080359060200190929190803573ffffffffffffffffffffffffffffffffffffffff169060200190929190803573ffffffffffffffffffffffffffffffffffffffff1690602001909291908035600019169060200190929190505050610aa1565b6040518082815260200191505060405180910390f35b610593826000836040518082805190602001908083835b602083101515610552578051825260208201915060208101905060208303925061052d565b6001836020036101000a0380198251168184511680821785525050505050509050019150509081526020016040518091039020610afe90919063ffffffff16565b5050565b6040805190810160405280600581526020017f61646d696e0000000000000000000000000000000000000000000000000000008152506105d73382610516565b610616826040805190810160405280600581526020017f61646d696e000000000000000000000000000000000000000000000000000000815250610b17565b5050565b6000610699836000846040518082805190602001908083835b6020831015156106585780518252602082019150602081019050602083039250610633565b6001836020036101000a0380198251168184511680821785525050505050509050019150509081526020016040518091039020610c6890919063ffffffff16565b905092915050565b60006040805190810160405280600581526020017f61646d696e0000000000000000000000000000000000000000000000000000008152506106e33382610516565b60006001541415156106f8576000915061084c565b600260009054906101000a900473ffffffffffffffffffffffffffffffffffffffff1673ffffffffffffffffffffffffffffffffffffffff1663c48afd098888888830896040518763ffffffff167c01000000000000000000000000000000000000000000000000000000000281526004018080602001806020018573ffffffffffffffffffffffffffffffffffffffff1673ffffffffffffffffffffffffffffffffffffffff16815260200184151515158152602001838103835289898281815260200192508082843782019150508381038252878782818152602001925080828437820191505098505050505050505050602060405180830381600087803b15801561080557600080fd5b505af1158015610819573d6000803e3d6000fd5b505050506040513d602081101561082f57600080fd5b810190808051906020019092919050505060018190555060015491505b5095945050505050565b6040805190810160405280600581526020017f61646d696e0000000000000000000000000000000000000000000000000000008152506108963382610516565b6108d5826040805190810160405280600581526020017f61646d696e000000000000000000000000000000000000000000000000000000815250610cc1565b5050565b6101fa81565b60015481565b6106f081565b6040805190810160405280600581526020017f61646d696e00000000000000000000000000000000000000000000000000000081525081565b60006040805190810160405280600581526020017f61646d696e0000000000000000000000000000000000000000000000000000008152506109663382610516565b600260009054906101000a900473ffffffffffffffffffffffffffffffffffffffff1673ffffffffffffffffffffffffffffffffffffffff16631645fdcd600154888888886040518663ffffffff167c010000000000000000000000000000000000000000000000000000000002815260040180868152602001806020018473ffffffffffffffffffffffffffffffffffffffff1673ffffffffffffffffffffffffffffffffffffffff16815260200183151515158152602001828103825286868281815260200192508082843782019150509650505050505050602060405180830381600087803b158015610a5b57600080fd5b505af1158015610a6f573d6000803e3d6000fd5b505050506040513d6020811015610a8557600080fd5b8101908080519060200190929190505050915050949350505050565b6000806000600460008154809291906001019190505550610ac28886610e12565b9150610acd85611474565b9050600082148015610adf5750600081145b15610aed5760009250610af3565b80821792505b505095945050505050565b610b088282610c68565b1515610b1357600080fd5b5050565b610b94826000836040518082805190602001908083835b602083101515610b535780518252602082019150602081019050602083039250610b2e565b6001836020036101000a0380198251168184511680821785525050505050509050019150509081526020016040518091039020611a9890919063ffffffff16565b7fd211483f91fc6eff862467f8de606587a30c8fc9981056f051b897a418df803a8282604051808373ffffffffffffffffffffffffffffffffffffffff1673ffffffffffffffffffffffffffffffffffffffff16815260200180602001828103825283818151815260200191508051906020019080838360005b83811015610c29578082015181840152602081019050610c0e565b50505050905090810190601f168015610c565780820380516001836020036101000a031916815260200191505b50935050505060405180910390a15050565b60008260000160008373ffffffffffffffffffffffffffffffffffffffff1673ffffffffffffffffffffffffffffffffffffffff16815260200190815260200160002060009054906101000a900460ff16905092915050565b610d3e826000836040518082805190602001908083835b602083101515610cfd5780518252602082019150602081019050602083039250610cd8565b6001836020036101000a0380198251168184511680821785525050505050509050019150509081526020016040518091039020611af690919063ffffffff16565b7fbfec83d64eaa953f2708271a023ab9ee82057f8f3578d548c1a4ba0b5b7004898282604051808373ffffffffffffffffffffffffffffffffffffffff1673ffffffffffffffffffffffffffffffffffffffff16815260200180602001828103825283818151815260200191508051906020019080838360005b83811015610dd3578082015181840152602081019050610db8565b50505050905090810190601f168015610e005780820380516001836020036101000a031916815260200191505b50935050505060405180910390a15050565b600080600080600080600360009054906101000a900473ffffffffffffffffffffffffffffffffffffffff1673ffffffffffffffffffffffffffffffffffffffff16639a4e193f6040518163ffffffff167c0100000000000000000000000000000000000000000000000000000000028152600401602060405180830381600087803b158015610ea157600080fd5b505af1158015610eb5573d6000803e3d6000fd5b505050506040513d6020811015610ecb57600080fd5b810190808051906020019092919050505073ffffffffffffffffffffffffffffffffffffffff166374611fb0600360009054906101000a900473ffffffffffffffffffffffffffffffffffffffff16600360009054906101000a900473ffffffffffffffffffffffffffffffffffffffff1673ffffffffffffffffffffffffffffffffffffffff166342ec38e28b6040518263ffffffff167c0100000000000000000000000000000000000000000000000000000000028152600401808273ffffffffffffffffffffffffffffffffffffffff1673ffffffffffffffffffffffffffffffffffffffff168152602001915050602060405180830381600087803b158015610fd757600080fd5b505af1158015610feb573d6000803e3d6000fd5b505050506040513d602081101561100157600080fd5b81019080805190602001909291905050506005546106f06040518563ffffffff167c0100000000000000000000000000000000000000000000000000000000028152600401808573ffffffffffffffffffffffffffffffffffffffff1673ffffffffffffffffffffffffffffffffffffffff1681526020018481526020018381526020018281526020019450505050506040805180830381600087803b1580156110aa57600080fd5b505af11580156110be573d6000803e3d6000fd5b505050506040513d60408110156110d457600080fd5b810190808051906020019092919080519060200190929190505050905080955050600060010260001916856000191614159350600360009054906101000a900473ffffffffffffffffffffffffffffffffffffffff1673ffffffffffffffffffffffffffffffffffffffff16639a4e193f6040518163ffffffff167c0100000000000000000000000000000000000000000000000000000000028152600401602060405180830381600087803b15801561118d57600080fd5b505af11580156111a1573d6000803e3d6000fd5b505050506040513d60208110156111b757600080fd5b810190808051906020019092919050505073ffffffffffffffffffffffffffffffffffffffff166374611fb0600360009054906101000a900473ffffffffffffffffffffffffffffffffffffffff16600360009054906101000a900473ffffffffffffffffffffffffffffffffffffffff1673ffffffffffffffffffffffffffffffffffffffff166342ec38e28b6040518263ffffffff167c0100000000000000000000000000000000000000000000000000000000028152600401808273ffffffffffffffffffffffffffffffffffffffff1673ffffffffffffffffffffffffffffffffffffffff168152602001915050602060405180830381600087803b1580156112c357600080fd5b505af11580156112d7573d6000803e3d6000fd5b505050506040513d60208110156112ed57600080fd5b81019080805190602001909291905050506005546101fa6040518563ffffffff167c0100000000000000000000000000000000000000000000000000000000028152600401808573ffffffffffffffffffffffffffffffffffffffff1673ffffffffffffffffffffffffffffffffffffffff1681526020018481526020018381526020018281526020019450505050506040805180830381600087803b15801561139657600080fd5b505af11580156113aa573d6000803e3d6000fd5b505050506040513d60408110156113c057600080fd5b8101908080519060200190929190805190602001909291905050509050809350506000600102600019168360001916141591508673ffffffffffffffffffffffffffffffffffffffff168873ffffffffffffffffffffffffffffffffffffffff1614156114305760019350600191505b83806114395750815b156114475760009550611469565b601090508315611458576008811790505b8115611465576004811790505b8095505b505050505092915050565b600080600080600080600360009054906101000a900473ffffffffffffffffffffffffffffffffffffffff1673ffffffffffffffffffffffffffffffffffffffff16639a4e193f6040518163ffffffff167c0100000000000000000000000000000000000000000000000000000000028152600401602060405180830381600087803b15801561150357600080fd5b505af1158015611517573d6000803e3d6000fd5b505050506040513d602081101561152d57600080fd5b810190808051906020019092919050505073ffffffffffffffffffffffffffffffffffffffff166374611fb0600360009054906101000a900473ffffffffffffffffffffffffffffffffffffffff16600360009054906101000a900473ffffffffffffffffffffffffffffffffffffffff1673ffffffffffffffffffffffffffffffffffffffff166342ec38e28b6040518263ffffffff167c0100000000000000000000000000000000000000000000000000000000028152600401808273ffffffffffffffffffffffffffffffffffffffff1673ffffffffffffffffffffffffffffffffffffffff168152602001915050602060405180830381600087803b15801561163957600080fd5b505af115801561164d573d6000803e3d6000fd5b505050506040513d602081101561166357600080fd5b81019080805190602001909291905050506005546106f06040518563ffffffff167c0100000000000000000000000000000000000000000000000000000000028152600401808573ffffffffffffffffffffffffffffffffffffffff1673ffffffffffffffffffffffffffffffffffffffff1681526020018481526020018381526020018281526020019450505050506040805180830381600087803b15801561170c57600080fd5b505af1158015611720573d6000803e3d6000fd5b505050506040513d604081101561173657600080fd5b810190808051906020019092919080519060200190929190505050905080955050600060010260001916856000191614159350600360009054906101000a900473ffffffffffffffffffffffffffffffffffffffff1673ffffffffffffffffffffffffffffffffffffffff16639a4e193f6040518163ffffffff167c0100000000000000000000000000000000000000000000000000000000028152600401602060405180830381600087803b1580156117ef57600080fd5b505af1158015611803573d6000803e3d6000fd5b505050506040513d602081101561181957600080fd5b810190808051906020019092919050505073ffffffffffffffffffffffffffffffffffffffff166374611fb0600360009054906101000a900473ffffffffffffffffffffffffffffffffffffffff16600360009054906101000a900473ffffffffffffffffffffffffffffffffffffffff1673ffffffffffffffffffffffffffffffffffffffff166342ec38e28b6040518263ffffffff167c0100000000000000000000000000000000000000000000000000000000028152600401808273ffffffffffffffffffffffffffffffffffffffff1673ffffffffffffffffffffffffffffffffffffffff168152602001915050602060405180830381600087803b15801561192557600080fd5b505af1158015611939573d6000803e3d6000fd5b505050506040513d602081101561194f57600080fd5b81019080805190602001909291905050506005546101fa6040518563ffffffff167c0100000000000000000000000000000000000000000000000000000000028152600401808573ffffffffffffffffffffffffffffffffffffffff1673ffffffffffffffffffffffffffffffffffffffff1681526020018481526020018381526020018281526020019450505050506040805180830381600087803b1580156119f857600080fd5b505af1158015611a0c573d6000803e3d6000fd5b505050506040513d6040811015611a2257600080fd5b8101908080519060200190929190805190602001909291905050509050809350506000600102600019168360001916141591508380611a5e5750815b15611a6c5760009550611a8e565b601090508315611a7d576002811790505b8115611a8a576001811790505b8095505b5050505050919050565b60008260000160008373ffffffffffffffffffffffffffffffffffffffff1673ffffffffffffffffffffffffffffffffffffffff16815260200190815260200160002060006101000a81548160ff0219169083151502179055505050565b60018260000160008373ffffffffffffffffffffffffffffffffffffffff1673ffffffffffffffffffffffffffffffffffffffff16815260200190815260200160002060006101000a81548160ff02191690831515021790555050505600a165627a7a72305820be78645d8dc88ac57b1072a1ef9c306c5b4fec57d326575ad5e3cf4fdf3a28b50029",
  "source": "pragma solidity ^0.4.24;\n\nimport \"../../protocol/IdentityToken.sol\";\nimport \"../../protocol/AnnotationDatabase.sol\";\nimport \"../../library/compliance/ComplianceStandard.sol\";\n\ncontract AccreditedUSCS is ComplianceStandard {\n    IdentityToken identityToken;\n\n    uint256 operations = 0;\n    uint256 identityProviderId;\n    uint256 constant public FIELD_NON_US = 1776;\n    uint256 constant public FIELD_ACCREDITED = 506;\n\n    constructor(\n        IdentityToken _identityToken,\n        ProviderRegistry _providerRegistry,\n        uint256 _providerId,\n        uint256 _identityProviderId\n    ) Provider(_providerRegistry, _providerId) public\n    {\n        identityToken = _identityToken;\n        identityProviderId = _identityProviderId;\n    }\n\n    function fromAllowed(address token, address from) view internal returns (uint256) {\n        bytes32 fromNonUsVal;\n        (,fromNonUsVal) = identityToken.annotationDatabase().bytes32Data(\n            identityToken, identityToken.tokenOf(from), identityProviderId, FIELD_NON_US\n        );\n        bool fromNonUs = fromNonUsVal != bytes32(0);\n\n        bytes32 fromAccreditedVal;\n        (,fromAccreditedVal) = identityToken.annotationDatabase().bytes32Data(\n            identityToken, identityToken.tokenOf(from), identityProviderId, FIELD_ACCREDITED\n        );\n        bool fromAccredited = fromAccreditedVal != bytes32(0);\n\n        if (token == from) {\n            fromNonUs = true;\n            fromAccredited = true;\n        }\n\n        if (fromNonUs || fromAccredited) {\n            return 0;\n        }\n\n        uint256 err = 0x10;\n        if (fromNonUs) {\n            err |= 0x8;\n        }\n        if (fromAccredited) {\n            err |= 0x4;\n        }\n        return err;\n    }\n\n    function toAllowed(address to) internal view returns (uint256) {\n        bytes32 toNonUsVal;\n        (,toNonUsVal) = identityToken.annotationDatabase().bytes32Data(\n            identityToken, identityToken.tokenOf(to), identityProviderId, FIELD_NON_US\n        );\n        bool toNonUs = toNonUsVal != bytes32(0);\n\n        bytes32 toAccreditedVal;\n        (,toAccreditedVal) = identityToken.annotationDatabase().bytes32Data(\n            identityToken, identityToken.tokenOf(to), identityProviderId, FIELD_ACCREDITED\n        );\n        bool toAccredited = toAccreditedVal != bytes32(0);\n\n        if (toNonUs || toAccredited) {\n            return 0;\n        }\n\n        uint256 err = 0x10;\n        if (toNonUs) {\n            err |= 0x2;\n        }\n        if (toAccredited) {\n            err |= 0x1;\n        }\n        return err;\n    }\n\n    function performCheck(\n        address token,\n        uint256,\n        address from,\n        address to,\n        bytes32 \n    ) external returns (uint256)\n    {\n        operations++;\n        uint256 fromAllowedRes = fromAllowed(token, to);\n        uint256 toAllowedRes = toAllowed(to);\n        if ((fromAllowedRes == 0) && (toAllowedRes == 0)) {\n            return 0;\n        }\n\n        return fromAllowedRes | toAllowedRes;\n    }\n\n}",
  "sourcePath": "/home/ian/proj/abacusprotocol/protocol/contracts/test/cs/AccreditedUSCS.sol",
  "compiler": {
    "name": "solc",
    "version": "0.4.24+commit.e67f0147.Emscripten.clang"
  },
  "schemaVersion": "2.0.1",
  "updatedAt": "2018-08-02T06:02:52.799Z"
}