{
  "contractName": "AccreditedUSCS",
  "abi": [
    {
      "constant": false,
      "inputs": [
        {
          "name": "admin",
          "type": "address"
        }
      ],
      "name": "removeAdmin",
      "outputs": [],
      "payable": false,
      "stateMutability": "nonpayable",
      "type": "function"
    },
    {
      "constant": true,
      "inputs": [
        {
          "name": "_address",
          "type": "address"
        }
      ],
      "name": "isAdmin",
      "outputs": [
        {
          "name": "_isAdmin",
          "type": "bool"
        }
      ],
      "payable": false,
      "stateMutability": "view",
      "type": "function"
    },
    {
      "constant": false,
      "inputs": [
        {
          "name": "name",
          "type": "string"
        },
        {
          "name": "metadata",
          "type": "string"
        },
        {
          "name": "isAsync",
          "type": "bool"
        }
      ],
      "name": "registerProvider",
      "outputs": [
        {
          "name": "",
          "type": "uint256"
        }
      ],
      "payable": false,
      "stateMutability": "nonpayable",
      "type": "function"
    },
    {
      "constant": false,
      "inputs": [
        {
          "name": "newAdmin",
          "type": "address"
        }
      ],
      "name": "addAdmin",
      "outputs": [],
      "payable": false,
      "stateMutability": "nonpayable",
      "type": "function"
    },
    {
      "constant": true,
      "inputs": [],
      "name": "FIELD_ACCREDITED",
      "outputs": [
        {
          "name": "",
          "type": "uint256"
        }
      ],
      "payable": false,
      "stateMutability": "view",
      "type": "function"
    },
    {
      "constant": true,
      "inputs": [],
      "name": "providerId",
      "outputs": [
        {
          "name": "",
          "type": "uint256"
        }
      ],
      "payable": false,
      "stateMutability": "view",
      "type": "function"
    },
    {
      "constant": true,
      "inputs": [],
      "name": "FIELD_NON_US",
      "outputs": [
        {
          "name": "",
          "type": "uint256"
        }
      ],
      "payable": false,
      "stateMutability": "view",
      "type": "function"
    },
    {
      "constant": false,
      "inputs": [
        {
          "name": "nextMetadata",
          "type": "string"
        },
        {
          "name": "nextProvider",
          "type": "address"
        },
        {
          "name": "nextIsAsync",
          "type": "bool"
        }
      ],
      "name": "performUpgrade",
      "outputs": [
        {
          "name": "",
          "type": "bool"
        }
      ],
      "payable": false,
      "stateMutability": "nonpayable",
      "type": "function"
    },
    {
      "inputs": [
        {
          "name": "_identityToken",
          "type": "address"
        },
        {
          "name": "_providerRegistry",
          "type": "address"
        },
        {
          "name": "_providerId",
          "type": "uint256"
        },
        {
          "name": "_identityProviderId",
          "type": "uint256"
        }
      ],
      "payable": false,
      "stateMutability": "nonpayable",
      "type": "constructor"
    },
    {
      "constant": false,
      "inputs": [
        {
          "name": "token",
          "type": "address"
        },
        {
          "name": "",
          "type": "uint256"
        },
        {
          "name": "from",
          "type": "address"
        },
        {
          "name": "to",
          "type": "address"
        },
        {
          "name": "",
          "type": "bytes32"
        }
      ],
      "name": "performCheck",
      "outputs": [
        {
          "name": "",
          "type": "uint256"
        }
      ],
      "payable": false,
      "stateMutability": "nonpayable",
      "type": "function"
    }
  ],
  "bytecode": "0x608060405260006004553480156200001657600080fd5b5060405160808062001abe83398101806040528101908080519060200190929190805190602001909291908051906020019092919080519060200190929190505050828281600260006101000a81548173ffffffffffffffffffffffffffffffffffffffff021916908373ffffffffffffffffffffffffffffffffffffffff16021790555080600181905550620000c63360006200011a6401000000000262000ada179091906401000000009004565b505083600360006101000a81548173ffffffffffffffffffffffffffffffffffffffff021916908373ffffffffffffffffffffffffffffffffffffffff160217905550806005819055505050505062000272565b600073ffffffffffffffffffffffffffffffffffffffff168173ffffffffffffffffffffffffffffffffffffffff16141515156200015757600080fd5b620001728282620001dd640100000000026401000000009004565b1515156200017f57600080fd5b60018260000160008373ffffffffffffffffffffffffffffffffffffffff1673ffffffffffffffffffffffffffffffffffffffff16815260200190815260200160002060006101000a81548160ff0219169083151502179055505050565b60008073ffffffffffffffffffffffffffffffffffffffff168273ffffffffffffffffffffffffffffffffffffffff16141515156200021b57600080fd5b8260000160008373ffffffffffffffffffffffffffffffffffffffff1673ffffffffffffffffffffffffffffffffffffffff16815260200190815260200160002060009054906101000a900460ff16905092915050565b61183c80620002826000396000f300608060405260043610610099576000357c0100000000000000000000000000000000000000000000000000000000900463ffffffff1680631785f53c1461009e57806324d7806c146100e15780632c93186a1461013c57806370480275146101af57806377ad752d146101f25780638490a8df1461021d5780639b26626914610248578063e5006aac14610273578063ea4000f8146102f2575b600080fd5b3480156100aa57600080fd5b506100df600480360381019080803573ffffffffffffffffffffffffffffffffffffffff1690602001909291905050506103a1565b005b3480156100ed57600080fd5b50610122600480360381019080803573ffffffffffffffffffffffffffffffffffffffff16906020019092919050505061045b565b604051808215151515815260200191505060405180910390f35b34801561014857600080fd5b50610199600480360381019080803590602001908201803590602001919091929391929390803590602001908201803590602001919091929391929390803515159060200190929190505050610478565b6040518082815260200191505060405180910390f35b3480156101bb57600080fd5b506101f0600480360381019080803573ffffffffffffffffffffffffffffffffffffffff16906020019092919050505061068f565b005b3480156101fe57600080fd5b50610207610749565b6040518082815260200191505060405180910390f35b34801561022957600080fd5b5061023261074f565b6040518082815260200191505060405180910390f35b34801561025457600080fd5b5061025d610755565b6040518082815260200191505060405180910390f35b34801561027f57600080fd5b506102d8600480360381019080803590602001908201803590602001919091929391929390803573ffffffffffffffffffffffffffffffffffffffff16906020019092919080351515906020019092919050505061075b565b604051808215151515815260200191505060405180910390f35b3480156102fe57600080fd5b5061038b600480360381019080803573ffffffffffffffffffffffffffffffffffffffff16906020019092919080359060200190929190803573ffffffffffffffffffffffffffffffffffffffff169060200190929190803573ffffffffffffffffffffffffffffffffffffffff169060200190929190803560001916906020019092919050505061093a565b6040518082815260200191505060405180910390f35b6103aa3361045b565b1515610444576040517f08c379a00000000000000000000000000000000000000000000000000000000081526004018080602001828103825260288152602001807f4d75737420626520616e2061646d696e20746f20706572666f726d207468697381526020017f20616374696f6e2e00000000000000000000000000000000000000000000000081525060400191505060405180910390fd5b61045881600061099790919063ffffffff16565b50565b6000610471826000610a4690919063ffffffff16565b9050919050565b60006104833361045b565b151561051d576040517f08c379a00000000000000000000000000000000000000000000000000000000081526004018080602001828103825260288152602001807f4d75737420626520616e2061646d696e20746f20706572666f726d207468697381526020017f20616374696f6e2e00000000000000000000000000000000000000000000000081525060400191505060405180910390fd5b60006001541415156105325760009050610686565b600260009054906101000a900473ffffffffffffffffffffffffffffffffffffffff1673ffffffffffffffffffffffffffffffffffffffff1663c48afd098787878730886040518763ffffffff167c01000000000000000000000000000000000000000000000000000000000281526004018080602001806020018573ffffffffffffffffffffffffffffffffffffffff1673ffffffffffffffffffffffffffffffffffffffff16815260200184151515158152602001838103835289898281815260200192508082843782019150508381038252878782818152602001925080828437820191505098505050505050505050602060405180830381600087803b15801561063f57600080fd5b505af1158015610653573d6000803e3d6000fd5b505050506040513d602081101561066957600080fd5b810190808051906020019092919050505060018190555060015490505b95945050505050565b6106983361045b565b1515610732576040517f08c379a00000000000000000000000000000000000000000000000000000000081526004018080602001828103825260288152602001807f4d75737420626520616e2061646d696e20746f20706572666f726d207468697381526020017f20616374696f6e2e00000000000000000000000000000000000000000000000081525060400191505060405180910390fd5b610746816000610ada90919063ffffffff16565b50565b6101fa81565b60015481565b6106f081565b60006107663361045b565b1515610800576040517f08c379a00000000000000000000000000000000000000000000000000000000081526004018080602001828103825260288152602001807f4d75737420626520616e2061646d696e20746f20706572666f726d207468697381526020017f20616374696f6e2e00000000000000000000000000000000000000000000000081525060400191505060405180910390fd5b600260009054906101000a900473ffffffffffffffffffffffffffffffffffffffff1673ffffffffffffffffffffffffffffffffffffffff16631645fdcd600154878787876040518663ffffffff167c010000000000000000000000000000000000000000000000000000000002815260040180868152602001806020018473ffffffffffffffffffffffffffffffffffffffff1673ffffffffffffffffffffffffffffffffffffffff16815260200183151515158152602001828103825286868281815260200192508082843782019150509650505050505050602060405180830381600087803b1580156108f557600080fd5b505af1158015610909573d6000803e3d6000fd5b505050506040513d602081101561091f57600080fd5b81019080805190602001909291905050509050949350505050565b600080600060046000815480929190600101919050555061095b8886610b8a565b9150610966856111ec565b90506000821480156109785750600081145b15610986576000925061098c565b80821792505b505095945050505050565b600073ffffffffffffffffffffffffffffffffffffffff168173ffffffffffffffffffffffffffffffffffffffff16141515156109d357600080fd5b6109dd8282610a46565b15156109e857600080fd5b60008260000160008373ffffffffffffffffffffffffffffffffffffffff1673ffffffffffffffffffffffffffffffffffffffff16815260200190815260200160002060006101000a81548160ff0219169083151502179055505050565b60008073ffffffffffffffffffffffffffffffffffffffff168273ffffffffffffffffffffffffffffffffffffffff1614151515610a8357600080fd5b8260000160008373ffffffffffffffffffffffffffffffffffffffff1673ffffffffffffffffffffffffffffffffffffffff16815260200190815260200160002060009054906101000a900460ff16905092915050565b600073ffffffffffffffffffffffffffffffffffffffff168173ffffffffffffffffffffffffffffffffffffffff1614151515610b1657600080fd5b610b208282610a46565b151515610b2c57600080fd5b60018260000160008373ffffffffffffffffffffffffffffffffffffffff1673ffffffffffffffffffffffffffffffffffffffff16815260200190815260200160002060006101000a81548160ff0219169083151502179055505050565b600080600080600080600360009054906101000a900473ffffffffffffffffffffffffffffffffffffffff1673ffffffffffffffffffffffffffffffffffffffff16639a4e193f6040518163ffffffff167c0100000000000000000000000000000000000000000000000000000000028152600401602060405180830381600087803b158015610c1957600080fd5b505af1158015610c2d573d6000803e3d6000fd5b505050506040513d6020811015610c4357600080fd5b810190808051906020019092919050505073ffffffffffffffffffffffffffffffffffffffff166374611fb0600360009054906101000a900473ffffffffffffffffffffffffffffffffffffffff16600360009054906101000a900473ffffffffffffffffffffffffffffffffffffffff1673ffffffffffffffffffffffffffffffffffffffff166342ec38e28b6040518263ffffffff167c0100000000000000000000000000000000000000000000000000000000028152600401808273ffffffffffffffffffffffffffffffffffffffff1673ffffffffffffffffffffffffffffffffffffffff168152602001915050602060405180830381600087803b158015610d4f57600080fd5b505af1158015610d63573d6000803e3d6000fd5b505050506040513d6020811015610d7957600080fd5b81019080805190602001909291905050506005546106f06040518563ffffffff167c0100000000000000000000000000000000000000000000000000000000028152600401808573ffffffffffffffffffffffffffffffffffffffff1673ffffffffffffffffffffffffffffffffffffffff1681526020018481526020018381526020018281526020019450505050506040805180830381600087803b158015610e2257600080fd5b505af1158015610e36573d6000803e3d6000fd5b505050506040513d6040811015610e4c57600080fd5b810190808051906020019092919080519060200190929190505050905080955050600060010260001916856000191614159350600360009054906101000a900473ffffffffffffffffffffffffffffffffffffffff1673ffffffffffffffffffffffffffffffffffffffff16639a4e193f6040518163ffffffff167c0100000000000000000000000000000000000000000000000000000000028152600401602060405180830381600087803b158015610f0557600080fd5b505af1158015610f19573d6000803e3d6000fd5b505050506040513d6020811015610f2f57600080fd5b810190808051906020019092919050505073ffffffffffffffffffffffffffffffffffffffff166374611fb0600360009054906101000a900473ffffffffffffffffffffffffffffffffffffffff16600360009054906101000a900473ffffffffffffffffffffffffffffffffffffffff1673ffffffffffffffffffffffffffffffffffffffff166342ec38e28b6040518263ffffffff167c0100000000000000000000000000000000000000000000000000000000028152600401808273ffffffffffffffffffffffffffffffffffffffff1673ffffffffffffffffffffffffffffffffffffffff168152602001915050602060405180830381600087803b15801561103b57600080fd5b505af115801561104f573d6000803e3d6000fd5b505050506040513d602081101561106557600080fd5b81019080805190602001909291905050506005546101fa6040518563ffffffff167c0100000000000000000000000000000000000000000000000000000000028152600401808573ffffffffffffffffffffffffffffffffffffffff1673ffffffffffffffffffffffffffffffffffffffff1681526020018481526020018381526020018281526020019450505050506040805180830381600087803b15801561110e57600080fd5b505af1158015611122573d6000803e3d6000fd5b505050506040513d604081101561113857600080fd5b8101908080519060200190929190805190602001909291905050509050809350506000600102600019168360001916141591508673ffffffffffffffffffffffffffffffffffffffff168873ffffffffffffffffffffffffffffffffffffffff1614156111a85760019350600191505b83806111b15750815b156111bf57600095506111e1565b6010905083156111d0576008811790505b81156111dd576004811790505b8095505b505050505092915050565b600080600080600080600360009054906101000a900473ffffffffffffffffffffffffffffffffffffffff1673ffffffffffffffffffffffffffffffffffffffff16639a4e193f6040518163ffffffff167c0100000000000000000000000000000000000000000000000000000000028152600401602060405180830381600087803b15801561127b57600080fd5b505af115801561128f573d6000803e3d6000fd5b505050506040513d60208110156112a557600080fd5b810190808051906020019092919050505073ffffffffffffffffffffffffffffffffffffffff166374611fb0600360009054906101000a900473ffffffffffffffffffffffffffffffffffffffff16600360009054906101000a900473ffffffffffffffffffffffffffffffffffffffff1673ffffffffffffffffffffffffffffffffffffffff166342ec38e28b6040518263ffffffff167c0100000000000000000000000000000000000000000000000000000000028152600401808273ffffffffffffffffffffffffffffffffffffffff1673ffffffffffffffffffffffffffffffffffffffff168152602001915050602060405180830381600087803b1580156113b157600080fd5b505af11580156113c5573d6000803e3d6000fd5b505050506040513d60208110156113db57600080fd5b81019080805190602001909291905050506005546106f06040518563ffffffff167c0100000000000000000000000000000000000000000000000000000000028152600401808573ffffffffffffffffffffffffffffffffffffffff1673ffffffffffffffffffffffffffffffffffffffff1681526020018481526020018381526020018281526020019450505050506040805180830381600087803b15801561148457600080fd5b505af1158015611498573d6000803e3d6000fd5b505050506040513d60408110156114ae57600080fd5b810190808051906020019092919080519060200190929190505050905080955050600060010260001916856000191614159350600360009054906101000a900473ffffffffffffffffffffffffffffffffffffffff1673ffffffffffffffffffffffffffffffffffffffff16639a4e193f6040518163ffffffff167c0100000000000000000000000000000000000000000000000000000000028152600401602060405180830381600087803b15801561156757600080fd5b505af115801561157b573d6000803e3d6000fd5b505050506040513d602081101561159157600080fd5b810190808051906020019092919050505073ffffffffffffffffffffffffffffffffffffffff166374611fb0600360009054906101000a900473ffffffffffffffffffffffffffffffffffffffff16600360009054906101000a900473ffffffffffffffffffffffffffffffffffffffff1673ffffffffffffffffffffffffffffffffffffffff166342ec38e28b6040518263ffffffff167c0100000000000000000000000000000000000000000000000000000000028152600401808273ffffffffffffffffffffffffffffffffffffffff1673ffffffffffffffffffffffffffffffffffffffff168152602001915050602060405180830381600087803b15801561169d57600080fd5b505af11580156116b1573d6000803e3d6000fd5b505050506040513d60208110156116c757600080fd5b81019080805190602001909291905050506005546101fa6040518563ffffffff167c0100000000000000000000000000000000000000000000000000000000028152600401808573ffffffffffffffffffffffffffffffffffffffff1673ffffffffffffffffffffffffffffffffffffffff1681526020018481526020018381526020018281526020019450505050506040805180830381600087803b15801561177057600080fd5b505af1158015611784573d6000803e3d6000fd5b505050506040513d604081101561179a57600080fd5b81019080805190602001909291908051906020019092919050505090508093505060006001026000191683600019161415915083806117d65750815b156117e45760009550611806565b6010905083156117f5576002811790505b8115611802576001811790505b8095505b50505050509190505600a165627a7a723058209420d6cad1869b17e007c9faf3fa9d5d7dbb2ac11c58c0ff399dcdb588321d870029",
  "source": "pragma solidity ^0.4.24;\n\nimport \"../../protocol/IdentityToken.sol\";\nimport \"../../protocol/AnnotationDatabase.sol\";\nimport \"../../library/compliance/ComplianceStandard.sol\";\n\ncontract AccreditedUSCS is ComplianceStandard {\n    IdentityToken identityToken;\n\n    uint256 operations = 0;\n    uint256 identityProviderId;\n    uint256 constant public FIELD_NON_US = 1776;\n    uint256 constant public FIELD_ACCREDITED = 506;\n\n    constructor(\n        IdentityToken _identityToken,\n        ProviderRegistry _providerRegistry,\n        uint256 _providerId,\n        uint256 _identityProviderId\n    ) Provider(_providerRegistry, _providerId) public\n    {\n        identityToken = _identityToken;\n        identityProviderId = _identityProviderId;\n    }\n\n    function fromAllowed(address token, address from) view internal returns (uint256) {\n        bytes32 fromNonUsVal;\n        (,fromNonUsVal) = identityToken.annotationDatabase().bytes32Data(\n            identityToken, identityToken.tokenOf(from), identityProviderId, FIELD_NON_US\n        );\n        bool fromNonUs = fromNonUsVal != bytes32(0);\n\n        bytes32 fromAccreditedVal;\n        (,fromAccreditedVal) = identityToken.annotationDatabase().bytes32Data(\n            identityToken, identityToken.tokenOf(from), identityProviderId, FIELD_ACCREDITED\n        );\n        bool fromAccredited = fromAccreditedVal != bytes32(0);\n\n        if (token == from) {\n            fromNonUs = true;\n            fromAccredited = true;\n        }\n\n        if (fromNonUs || fromAccredited) {\n            return 0;\n        }\n\n        uint256 err = 0x10;\n        if (fromNonUs) {\n            err |= 0x8;\n        }\n        if (fromAccredited) {\n            err |= 0x4;\n        }\n        return err;\n    }\n\n    function toAllowed(address to) internal view returns (uint256) {\n        bytes32 toNonUsVal;\n        (,toNonUsVal) = identityToken.annotationDatabase().bytes32Data(\n            identityToken, identityToken.tokenOf(to), identityProviderId, FIELD_NON_US\n        );\n        bool toNonUs = toNonUsVal != bytes32(0);\n\n        bytes32 toAccreditedVal;\n        (,toAccreditedVal) = identityToken.annotationDatabase().bytes32Data(\n            identityToken, identityToken.tokenOf(to), identityProviderId, FIELD_ACCREDITED\n        );\n        bool toAccredited = toAccreditedVal != bytes32(0);\n\n        if (toNonUs || toAccredited) {\n            return 0;\n        }\n\n        uint256 err = 0x10;\n        if (toNonUs) {\n            err |= 0x2;\n        }\n        if (toAccredited) {\n            err |= 0x1;\n        }\n        return err;\n    }\n\n    function performCheck(\n        address token,\n        uint256,\n        address from,\n        address to,\n        bytes32 \n    ) external returns (uint256)\n    {\n        operations++;\n        uint256 fromAllowedRes = fromAllowed(token, to);\n        uint256 toAllowedRes = toAllowed(to);\n        if ((fromAllowedRes == 0) && (toAllowedRes == 0)) {\n            return 0;\n        }\n\n        return fromAllowedRes | toAllowedRes;\n    }\n\n}",
  "sourcePath": "/home/ian/proj/abacusfi/protocol/contracts/test/cs/AccreditedUSCS.sol",
  "compiler": {
    "name": "solc",
    "version": "0.4.24+commit.e67f0147.Emscripten.clang"
  },
  "schemaVersion": "2.0.1",
  "updatedAt": "2018-12-19T06:06:48.331Z"
}