{
  "contractName": "AnnotationDatabase",
  "abi": [
    {
      "constant": true,
      "inputs": [],
      "name": "providerRegistry",
      "outputs": [
        {
          "name": "",
          "type": "address"
        }
      ],
      "payable": false,
      "stateMutability": "view",
      "type": "function"
    },
    {
      "constant": true,
      "inputs": [
        {
          "name": "",
          "type": "address"
        },
        {
          "name": "",
          "type": "uint256"
        },
        {
          "name": "",
          "type": "uint256"
        },
        {
          "name": "",
          "type": "uint256"
        }
      ],
      "name": "bytes32Data",
      "outputs": [
        {
          "name": "blockNumber",
          "type": "uint256"
        },
        {
          "name": "value",
          "type": "bytes32"
        }
      ],
      "payable": false,
      "stateMutability": "view",
      "type": "function"
    },
    {
      "constant": true,
      "inputs": [
        {
          "name": "",
          "type": "address"
        },
        {
          "name": "",
          "type": "uint256"
        },
        {
          "name": "",
          "type": "uint256"
        },
        {
          "name": "",
          "type": "uint256"
        }
      ],
      "name": "bytesData",
      "outputs": [
        {
          "name": "blockNumber",
          "type": "uint256"
        },
        {
          "name": "value",
          "type": "bytes"
        }
      ],
      "payable": false,
      "stateMutability": "view",
      "type": "function"
    },
    {
      "inputs": [
        {
          "name": "_providerRegistry",
          "type": "address"
        }
      ],
      "payable": false,
      "stateMutability": "nonpayable",
      "type": "constructor"
    },
    {
      "anonymous": false,
      "inputs": [
        {
          "indexed": true,
          "name": "nftAddr",
          "type": "address"
        },
        {
          "indexed": true,
          "name": "nftId",
          "type": "uint256"
        },
        {
          "indexed": true,
          "name": "providerId",
          "type": "uint256"
        },
        {
          "indexed": false,
          "name": "fieldId",
          "type": "uint256"
        },
        {
          "indexed": false,
          "name": "value",
          "type": "bytes32"
        },
        {
          "indexed": false,
          "name": "blockNumber",
          "type": "uint256"
        }
      ],
      "name": "WriteBytes32Annotation",
      "type": "event"
    },
    {
      "anonymous": false,
      "inputs": [
        {
          "indexed": true,
          "name": "nftAddr",
          "type": "address"
        },
        {
          "indexed": true,
          "name": "nftId",
          "type": "uint256"
        },
        {
          "indexed": true,
          "name": "providerId",
          "type": "uint256"
        },
        {
          "indexed": false,
          "name": "fieldId",
          "type": "uint256"
        },
        {
          "indexed": false,
          "name": "value",
          "type": "bytes"
        },
        {
          "indexed": false,
          "name": "blockNumber",
          "type": "uint256"
        }
      ],
      "name": "WriteBytesAnnotation",
      "type": "event"
    },
    {
      "constant": false,
      "inputs": [
        {
          "name": "nftAddr",
          "type": "address"
        },
        {
          "name": "nftId",
          "type": "uint256"
        },
        {
          "name": "providerId",
          "type": "uint256"
        },
        {
          "name": "fieldId",
          "type": "uint256"
        },
        {
          "name": "value",
          "type": "bytes32"
        }
      ],
      "name": "writeBytes32Field",
      "outputs": [],
      "payable": false,
      "stateMutability": "nonpayable",
      "type": "function"
    },
    {
      "constant": false,
      "inputs": [
        {
          "name": "nftAddr",
          "type": "address"
        },
        {
          "name": "nftId",
          "type": "uint256"
        },
        {
          "name": "providerId",
          "type": "uint256"
        },
        {
          "name": "fieldId",
          "type": "uint256"
        },
        {
          "name": "value",
          "type": "bytes"
        }
      ],
      "name": "writeBytesField",
      "outputs": [],
      "payable": false,
      "stateMutability": "nonpayable",
      "type": "function"
    }
  ],
  "bytecode": "0x608060405234801561001057600080fd5b50604051602080610a4183398101806040528101908080519060200190929190505050806000806101000a81548173ffffffffffffffffffffffffffffffffffffffff021916908373ffffffffffffffffffffffffffffffffffffffff160217905550506109be806100836000396000f30060806040526004361061006d576000357c0100000000000000000000000000000000000000000000000000000000900463ffffffff168063229b5dd1146100725780632fb66cb5146100e1578063545921d91461015a57806374611fb0146101b1578063d7c8c67314610235575b600080fd5b34801561007e57600080fd5b506100df600480360381019080803573ffffffffffffffffffffffffffffffffffffffff1690602001909291908035906020019092919080359060200190929190803590602001909291908035600019169060200190929190505050610316565b005b3480156100ed57600080fd5b50610158600480360381019080803573ffffffffffffffffffffffffffffffffffffffff169060200190929190803590602001909291908035906020019092919080359060200190929190803590602001908201803590602001919091929391929390505050610531565b005b34801561016657600080fd5b5061016f61079a565b604051808273ffffffffffffffffffffffffffffffffffffffff1673ffffffffffffffffffffffffffffffffffffffff16815260200191505060405180910390f35b3480156101bd57600080fd5b50610210600480360381019080803573ffffffffffffffffffffffffffffffffffffffff1690602001909291908035906020019092919080359060200190929190803590602001909291905050506107bf565b6040518083815260200182600019166000191681526020019250505060405180910390f35b34801561024157600080fd5b50610294600480360381019080803573ffffffffffffffffffffffffffffffffffffffff16906020019092919080359060200190929190803590602001909291908035906020019092919050505061080a565b6040518083815260200180602001828103825283818151815260200191508051906020019080838360005b838110156102da5780820151818401526020810190506102bf565b50505050905090810190601f1680156103075780820380516001836020036101000a031916815260200191505b50935050505060405180910390f35b6000809054906101000a900473ffffffffffffffffffffffffffffffffffffffff1673ffffffffffffffffffffffffffffffffffffffff1663b3687932846040518263ffffffff167c010000000000000000000000000000000000000000000000000000000002815260040180828152602001915050602060405180830381600087803b1580156103a657600080fd5b505af11580156103ba573d6000803e3d6000fd5b505050506040513d60208110156103d057600080fd5b810190808051906020019092919050505073ffffffffffffffffffffffffffffffffffffffff163373ffffffffffffffffffffffffffffffffffffffff1614151561041a57600080fd5b60408051908101604052804381526020018260001916815250600160008773ffffffffffffffffffffffffffffffffffffffff1673ffffffffffffffffffffffffffffffffffffffff168152602001908152602001600020600086815260200190815260200160002060008581526020019081526020016000206000848152602001908152602001600020600082015181600001556020820151816001019060001916905590505082848673ffffffffffffffffffffffffffffffffffffffff167fac9e01945fd98129f76be8dc56d27146551733b26bb806062ab29d6e08ef6940858543604051808481526020018360001916600019168152602001828152602001935050505060405180910390a45050505050565b6000809054906101000a900473ffffffffffffffffffffffffffffffffffffffff1673ffffffffffffffffffffffffffffffffffffffff1663b3687932856040518263ffffffff167c010000000000000000000000000000000000000000000000000000000002815260040180828152602001915050602060405180830381600087803b1580156105c157600080fd5b505af11580156105d5573d6000803e3d6000fd5b505050506040513d60208110156105eb57600080fd5b810190808051906020019092919050505073ffffffffffffffffffffffffffffffffffffffff163373ffffffffffffffffffffffffffffffffffffffff1614151561063557600080fd5b604080519081016040528043815260200183838080601f016020809104026020016040519081016040528093929190818152602001838380828437820191505050505050815250600260008873ffffffffffffffffffffffffffffffffffffffff1673ffffffffffffffffffffffffffffffffffffffff1681526020019081526020016000206000878152602001908152602001600020600086815260200190815260200160002060008581526020019081526020016000206000820151816000015560208201518160010190805190602001906107149291906108ed565b5090505083858773ffffffffffffffffffffffffffffffffffffffff167f079ed7783ceb4e8823b16b94b0ec1e74ade63b529bdad61f19d2c858a5052289868686436040518085815260200180602001838152602001828103825285858281815260200192508082843782019150509550505050505060405180910390a4505050505050565b6000809054906101000a900473ffffffffffffffffffffffffffffffffffffffff1681565b60016020528360005260406000206020528260005260406000206020528160005260406000206020528060005260406000206000935093505050508060000154908060010154905082565b6002602052836000526040600020602052826000526040600020602052816000526040600020602052806000526040600020600093509350505050806000015490806001018054600181600116156101000203166002900480601f0160208091040260200160405190810160405280929190818152602001828054600181600116156101000203166002900480156108e35780601f106108b8576101008083540402835291602001916108e3565b820191906000526020600020905b8154815290600101906020018083116108c657829003601f168201915b5050505050905082565b828054600181600116156101000203166002900490600052602060002090601f016020900481019282601f1061092e57805160ff191683800117855561095c565b8280016001018555821561095c579182015b8281111561095b578251825591602001919060010190610940565b5b509050610969919061096d565b5090565b61098f91905b8082111561098b576000816000905550600101610973565b5090565b905600a165627a7a723058202cfc9e26f8b9363343b170fa52b32dc99b0e7b223bdbfa1f09e6b1056947a8ed0029",
  "source": "pragma solidity ^0.4.24;\n\nimport \"./ProviderRegistry.sol\";\n\n/**\n * @title AnnotationDatabase\n * @dev Stores annotation information about NFTs.\n */\ncontract AnnotationDatabase {\n    ProviderRegistry public providerRegistry;\n\n    constructor(ProviderRegistry _providerRegistry) public\n    {\n        providerRegistry = _providerRegistry;\n    }\n\n    struct Bytes32Entry {\n        uint256 blockNumber;\n        bytes32 value;\n    }\n\n    struct BytesEntry {\n        uint256 blockNumber;\n        bytes value;\n    }\n\n    event WriteBytes32Annotation(\n        address indexed nftAddr,\n        uint256 indexed nftId,\n        uint256 indexed providerId,\n        uint256 fieldId,\n        bytes32 value,\n        uint256 blockNumber\n    );\n\n    event WriteBytesAnnotation(\n        address indexed nftAddr,\n        uint256 indexed nftId,\n        uint256 indexed providerId,\n        uint256 fieldId,\n        bytes value,\n        uint256 blockNumber\n    );\n\n    mapping (address => mapping (uint256 => mapping (uint256 => mapping (uint256 => Bytes32Entry)))) public bytes32Data;\n    mapping (address => mapping (uint256 => mapping (uint256 => mapping (uint256 => BytesEntry)))) public bytesData;\n\n    function writeBytes32Field(\n        address nftAddr,\n        uint256 nftId,\n        uint256 providerId,\n        uint256 fieldId,\n        bytes32 value\n    ) external {\n        require(msg.sender == providerRegistry.providerOwner(providerId));\n        bytes32Data[nftAddr][nftId][providerId][fieldId] = Bytes32Entry({\n            blockNumber: block.number,\n            value: value\n        });\n        emit WriteBytes32Annotation({\n            nftAddr: nftAddr,\n            nftId: nftId,\n            providerId: providerId,\n            fieldId: fieldId,\n            value: value,\n            blockNumber: block.number\n        });\n    }\n\n    function writeBytesField(\n        address nftAddr,\n        uint256 nftId,\n        uint256 providerId,\n        uint256 fieldId,\n        bytes value\n    ) external {\n        require(msg.sender == providerRegistry.providerOwner(providerId));\n        bytesData[nftAddr][nftId][providerId][fieldId] = BytesEntry({\n            blockNumber: block.number,\n            value: value\n        });\n        emit WriteBytesAnnotation({\n            nftAddr: nftAddr,\n            nftId: nftId,\n            providerId: providerId,\n            fieldId: fieldId,\n            value: value,\n            blockNumber: block.number\n        });\n    }\n\n}\n",
  "sourcePath": "/home/ian/proj/abacusfi/protocol/contracts/protocol/AnnotationDatabase.sol",
  "compiler": {
    "name": "solc",
    "version": "0.4.24+commit.e67f0147.Emscripten.clang"
  },
  "schemaVersion": "2.0.1",
  "updatedAt": "2018-12-19T06:06:47.733Z"
}