{
  "contractName": "AsyncProvider",
  "abi": [
    {
      "constant": false,
      "inputs": [
        {
          "name": "admin",
          "type": "address"
        }
      ],
      "name": "removeAdmin",
      "outputs": [],
      "payable": false,
      "stateMutability": "nonpayable",
      "type": "function"
    },
    {
      "constant": true,
      "inputs": [
        {
          "name": "_address",
          "type": "address"
        }
      ],
      "name": "isAdmin",
      "outputs": [
        {
          "name": "_isAdmin",
          "type": "bool"
        }
      ],
      "payable": false,
      "stateMutability": "view",
      "type": "function"
    },
    {
      "constant": false,
      "inputs": [
        {
          "name": "name",
          "type": "string"
        },
        {
          "name": "metadata",
          "type": "string"
        },
        {
          "name": "isAsync",
          "type": "bool"
        }
      ],
      "name": "registerProvider",
      "outputs": [
        {
          "name": "",
          "type": "uint256"
        }
      ],
      "payable": false,
      "stateMutability": "nonpayable",
      "type": "function"
    },
    {
      "constant": false,
      "inputs": [
        {
          "name": "newAdmin",
          "type": "address"
        }
      ],
      "name": "addAdmin",
      "outputs": [],
      "payable": false,
      "stateMutability": "nonpayable",
      "type": "function"
    },
    {
      "constant": true,
      "inputs": [],
      "name": "providerId",
      "outputs": [
        {
          "name": "",
          "type": "uint256"
        }
      ],
      "payable": false,
      "stateMutability": "view",
      "type": "function"
    },
    {
      "constant": false,
      "inputs": [
        {
          "name": "nextMetadata",
          "type": "string"
        },
        {
          "name": "nextProvider",
          "type": "address"
        },
        {
          "name": "nextIsAsync",
          "type": "bool"
        }
      ],
      "name": "performUpgrade",
      "outputs": [
        {
          "name": "",
          "type": "bool"
        }
      ],
      "payable": false,
      "stateMutability": "nonpayable",
      "type": "function"
    },
    {
      "inputs": [
        {
          "name": "_providerRegistry",
          "type": "address"
        },
        {
          "name": "_annotationDatabase",
          "type": "address"
        },
        {
          "name": "_providerId",
          "type": "uint256"
        }
      ],
      "payable": false,
      "stateMutability": "nonpayable",
      "type": "constructor"
    },
    {
      "constant": false,
      "inputs": [
        {
          "name": "tokenAddr",
          "type": "address"
        },
        {
          "name": "tokenId",
          "type": "uint256"
        },
        {
          "name": "fieldId",
          "type": "uint256"
        },
        {
          "name": "value",
          "type": "bytes32"
        }
      ],
      "name": "writeBytes32Field",
      "outputs": [],
      "payable": false,
      "stateMutability": "nonpayable",
      "type": "function"
    },
    {
      "constant": false,
      "inputs": [
        {
          "name": "tokenAddr",
          "type": "address"
        },
        {
          "name": "tokenId",
          "type": "uint256"
        },
        {
          "name": "fieldId",
          "type": "uint256"
        },
        {
          "name": "value",
          "type": "bytes"
        }
      ],
      "name": "writeBytesField",
      "outputs": [],
      "payable": false,
      "stateMutability": "nonpayable",
      "type": "function"
    }
  ],
  "bytecode": "0x608060405234801561001057600080fd5b5060405160608061114b833981018060405281019080805190602001909291908051906020019092919080519060200190929190505050828181600260006101000a81548173ffffffffffffffffffffffffffffffffffffffff021916908373ffffffffffffffffffffffffffffffffffffffff160217905550806001819055506100b23360006100fd64010000000002610e10179091906401000000009004565b505081600360006101000a81548173ffffffffffffffffffffffffffffffffffffffff021916908373ffffffffffffffffffffffffffffffffffffffff160217905550505050610250565b600073ffffffffffffffffffffffffffffffffffffffff168173ffffffffffffffffffffffffffffffffffffffff161415151561013957600080fd5b61015282826101bc640100000000026401000000009004565b15151561015e57600080fd5b60018260000160008373ffffffffffffffffffffffffffffffffffffffff1673ffffffffffffffffffffffffffffffffffffffff16815260200190815260200160002060006101000a81548160ff0219169083151502179055505050565b60008073ffffffffffffffffffffffffffffffffffffffff168273ffffffffffffffffffffffffffffffffffffffff16141515156101f957600080fd5b8260000160008373ffffffffffffffffffffffffffffffffffffffff1673ffffffffffffffffffffffffffffffffffffffff16815260200190815260200160002060009054906101000a900460ff16905092915050565b610eec8061025f6000396000f30060806040526004361061008e576000357c0100000000000000000000000000000000000000000000000000000000900463ffffffff1680631785f53c1461009357806324d7806c146100d65780632c93186a1461013157806370480275146101a45780638490a8df146101e7578063856e2c0714610212578063e5006aac14610277578063e70e75da146102f6575b600080fd5b34801561009f57600080fd5b506100d4600480360381019080803573ffffffffffffffffffffffffffffffffffffffff169060200190929190505050610393565b005b3480156100e257600080fd5b50610117600480360381019080803573ffffffffffffffffffffffffffffffffffffffff16906020019092919050505061044d565b604051808215151515815260200191505060405180910390f35b34801561013d57600080fd5b5061018e60048036038101908080359060200190820180359060200191909192939192939080359060200190820180359060200191909192939192939080351515906020019092919050505061046a565b6040518082815260200191505060405180910390f35b3480156101b057600080fd5b506101e5600480360381019080803573ffffffffffffffffffffffffffffffffffffffff169060200190929190505050610681565b005b3480156101f357600080fd5b506101fc61073b565b6040518082815260200191505060405180910390f35b34801561021e57600080fd5b50610275600480360381019080803573ffffffffffffffffffffffffffffffffffffffff16906020019092919080359060200190929190803590602001909291908035600019169060200190929190505050610741565b005b34801561028357600080fd5b506102dc600480360381019080803590602001908201803590602001919091929391929390803573ffffffffffffffffffffffffffffffffffffffff1690602001909291908035151590602001909291905050506108e9565b604051808215151515815260200191505060405180910390f35b34801561030257600080fd5b50610391600480360381019080803573ffffffffffffffffffffffffffffffffffffffff1690602001909291908035906020019092919080359060200190929190803590602001908201803590602001908080601f0160208091040260200160405190810160405280939291908181526020018383808284378201915050505050509192919290505050610ac8565b005b61039c3361044d565b1515610436576040517f08c379a00000000000000000000000000000000000000000000000000000000081526004018080602001828103825260288152602001807f4d75737420626520616e2061646d696e20746f20706572666f726d207468697381526020017f20616374696f6e2e00000000000000000000000000000000000000000000000081525060400191505060405180910390fd5b61044a816000610ccd90919063ffffffff16565b50565b6000610463826000610d7c90919063ffffffff16565b9050919050565b60006104753361044d565b151561050f576040517f08c379a00000000000000000000000000000000000000000000000000000000081526004018080602001828103825260288152602001807f4d75737420626520616e2061646d696e20746f20706572666f726d207468697381526020017f20616374696f6e2e00000000000000000000000000000000000000000000000081525060400191505060405180910390fd5b60006001541415156105245760009050610678565b600260009054906101000a900473ffffffffffffffffffffffffffffffffffffffff1673ffffffffffffffffffffffffffffffffffffffff1663c48afd098787878730886040518763ffffffff167c01000000000000000000000000000000000000000000000000000000000281526004018080602001806020018573ffffffffffffffffffffffffffffffffffffffff1673ffffffffffffffffffffffffffffffffffffffff16815260200184151515158152602001838103835289898281815260200192508082843782019150508381038252878782818152602001925080828437820191505098505050505050505050602060405180830381600087803b15801561063157600080fd5b505af1158015610645573d6000803e3d6000fd5b505050506040513d602081101561065b57600080fd5b810190808051906020019092919050505060018190555060015490505b95945050505050565b61068a3361044d565b1515610724576040517f08c379a00000000000000000000000000000000000000000000000000000000081526004018080602001828103825260288152602001807f4d75737420626520616e2061646d696e20746f20706572666f726d207468697381526020017f20616374696f6e2e00000000000000000000000000000000000000000000000081525060400191505060405180910390fd5b610738816000610e1090919063ffffffff16565b50565b60015481565b61074a3361044d565b15156107e4576040517f08c379a00000000000000000000000000000000000000000000000000000000081526004018080602001828103825260288152602001807f4d75737420626520616e2061646d696e20746f20706572666f726d207468697381526020017f20616374696f6e2e00000000000000000000000000000000000000000000000081525060400191505060405180910390fd5b600360009054906101000a900473ffffffffffffffffffffffffffffffffffffffff1673ffffffffffffffffffffffffffffffffffffffff1663229b5dd1858560015486866040518663ffffffff167c0100000000000000000000000000000000000000000000000000000000028152600401808673ffffffffffffffffffffffffffffffffffffffff1673ffffffffffffffffffffffffffffffffffffffff168152602001858152602001848152602001838152602001826000191660001916815260200195505050505050600060405180830381600087803b1580156108cb57600080fd5b505af11580156108df573d6000803e3d6000fd5b5050505050505050565b60006108f43361044d565b151561098e576040517f08c379a00000000000000000000000000000000000000000000000000000000081526004018080602001828103825260288152602001807f4d75737420626520616e2061646d696e20746f20706572666f726d207468697381526020017f20616374696f6e2e00000000000000000000000000000000000000000000000081525060400191505060405180910390fd5b600260009054906101000a900473ffffffffffffffffffffffffffffffffffffffff1673ffffffffffffffffffffffffffffffffffffffff16631645fdcd600154878787876040518663ffffffff167c010000000000000000000000000000000000000000000000000000000002815260040180868152602001806020018473ffffffffffffffffffffffffffffffffffffffff1673ffffffffffffffffffffffffffffffffffffffff16815260200183151515158152602001828103825286868281815260200192508082843782019150509650505050505050602060405180830381600087803b158015610a8357600080fd5b505af1158015610a97573d6000803e3d6000fd5b505050506040513d6020811015610aad57600080fd5b81019080805190602001909291905050509050949350505050565b610ad13361044d565b1515610b6b576040517f08c379a00000000000000000000000000000000000000000000000000000000081526004018080602001828103825260288152602001807f4d75737420626520616e2061646d696e20746f20706572666f726d207468697381526020017f20616374696f6e2e00000000000000000000000000000000000000000000000081525060400191505060405180910390fd5b600360009054906101000a900473ffffffffffffffffffffffffffffffffffffffff1673ffffffffffffffffffffffffffffffffffffffff16632fb66cb5858560015486866040518663ffffffff167c0100000000000000000000000000000000000000000000000000000000028152600401808673ffffffffffffffffffffffffffffffffffffffff1673ffffffffffffffffffffffffffffffffffffffff16815260200185815260200184815260200183815260200180602001828103825283818151815260200191508051906020019080838360005b83811015610c5f578082015181840152602081019050610c44565b50505050905090810190601f168015610c8c5780820380516001836020036101000a031916815260200191505b509650505050505050600060405180830381600087803b158015610caf57600080fd5b505af1158015610cc3573d6000803e3d6000fd5b5050505050505050565b600073ffffffffffffffffffffffffffffffffffffffff168173ffffffffffffffffffffffffffffffffffffffff1614151515610d0957600080fd5b610d138282610d7c565b1515610d1e57600080fd5b60008260000160008373ffffffffffffffffffffffffffffffffffffffff1673ffffffffffffffffffffffffffffffffffffffff16815260200190815260200160002060006101000a81548160ff0219169083151502179055505050565b60008073ffffffffffffffffffffffffffffffffffffffff168273ffffffffffffffffffffffffffffffffffffffff1614151515610db957600080fd5b8260000160008373ffffffffffffffffffffffffffffffffffffffff1673ffffffffffffffffffffffffffffffffffffffff16815260200190815260200160002060009054906101000a900460ff16905092915050565b600073ffffffffffffffffffffffffffffffffffffffff168173ffffffffffffffffffffffffffffffffffffffff1614151515610e4c57600080fd5b610e568282610d7c565b151515610e6257600080fd5b60018260000160008373ffffffffffffffffffffffffffffffffffffffff1673ffffffffffffffffffffffffffffffffffffffff16815260200190815260200160002060006101000a81548160ff02191690831515021790555050505600a165627a7a723058202ee7eff520ee909e769351aa09fd0a8d8a0b0daf3897ff3fd15acea2aac9464c0029",
  "source": "pragma solidity ^0.4.24;\n\nimport \"openzeppelin-solidity/contracts/ownership/Ownable.sol\";\nimport \"openzeppelin-solidity/contracts/token/ERC20/ERC20.sol\";\nimport \"./Provider.sol\";\nimport \"../../protocol/ProviderRegistry.sol\";\nimport \"../../protocol/AnnotationDatabase.sol\";\n\n/**\n * @title Provider\n * @dev A contract which can be used as a provider in a ProviderRegistry.\n */\ncontract AsyncProvider is Provider {\n    AnnotationDatabase annotationDatabase;\n\n    /**\n     * @dev Constructor can also be used for upgrades.\n     *\n     * @param _providerId The provider id. If set to 0, the provider can be registered.\n     */\n    constructor(\n        ProviderRegistry _providerRegistry,\n        AnnotationDatabase _annotationDatabase,\n        uint256 _providerId     \n    ) Provider(_providerRegistry, _providerId) public\n    {\n        annotationDatabase = _annotationDatabase;\n    }\n\n    function writeBytes32Field(\n        address tokenAddr,\n        uint256 tokenId,\n        uint256 fieldId,\n        bytes32 value\n    ) public onlyAdmin {\n        annotationDatabase.writeBytes32Field(\n            tokenAddr,\n            tokenId,\n            providerId,\n            fieldId,\n            value\n        );\n    }\n\n    function writeBytesField(\n        address tokenAddr,\n        uint256 tokenId,\n        uint256 fieldId,\n        bytes value\n    ) public onlyAdmin {\n        annotationDatabase.writeBytesField(\n            tokenAddr,\n            tokenId,\n            providerId,\n            fieldId,\n            value\n        );\n    }\n}\n",
  "sourcePath": "/home/ian/proj/abacusfi/protocol/contracts/library/provider/AsyncProvider.sol",
  "compiler": {
    "name": "solc",
    "version": "0.4.24+commit.e67f0147.Emscripten.clang"
  },
  "schemaVersion": "2.0.1",
  "updatedAt": "2018-12-19T05:52:05.402Z"
}