{
  "contractName": "AsyncProvider",
  "abi": [
    {
      "constant": true,
      "inputs": [
        {
          "name": "addr",
          "type": "address"
        },
        {
          "name": "roleName",
          "type": "string"
        }
      ],
      "name": "checkRole",
      "outputs": [],
      "payable": false,
      "stateMutability": "view",
      "type": "function"
    },
    {
      "constant": false,
      "inputs": [
        {
          "name": "admin",
          "type": "address"
        }
      ],
      "name": "removeAdmin",
      "outputs": [],
      "payable": false,
      "stateMutability": "nonpayable",
      "type": "function"
    },
    {
      "constant": true,
      "inputs": [
        {
          "name": "addr",
          "type": "address"
        },
        {
          "name": "roleName",
          "type": "string"
        }
      ],
      "name": "hasRole",
      "outputs": [
        {
          "name": "",
          "type": "bool"
        }
      ],
      "payable": false,
      "stateMutability": "view",
      "type": "function"
    },
    {
      "constant": false,
      "inputs": [
        {
          "name": "name",
          "type": "string"
        },
        {
          "name": "metadata",
          "type": "string"
        },
        {
          "name": "isAsync",
          "type": "bool"
        }
      ],
      "name": "registerProvider",
      "outputs": [
        {
          "name": "",
          "type": "uint256"
        }
      ],
      "payable": false,
      "stateMutability": "nonpayable",
      "type": "function"
    },
    {
      "constant": false,
      "inputs": [
        {
          "name": "newAdmin",
          "type": "address"
        }
      ],
      "name": "addAdmin",
      "outputs": [],
      "payable": false,
      "stateMutability": "nonpayable",
      "type": "function"
    },
    {
      "constant": true,
      "inputs": [],
      "name": "providerId",
      "outputs": [
        {
          "name": "",
          "type": "uint256"
        }
      ],
      "payable": false,
      "stateMutability": "view",
      "type": "function"
    },
    {
      "constant": true,
      "inputs": [],
      "name": "ROLE_ADMIN",
      "outputs": [
        {
          "name": "",
          "type": "string"
        }
      ],
      "payable": false,
      "stateMutability": "view",
      "type": "function"
    },
    {
      "constant": true,
      "inputs": [],
      "name": "kernel",
      "outputs": [
        {
          "name": "",
          "type": "address"
        }
      ],
      "payable": false,
      "stateMutability": "view",
      "type": "function"
    },
    {
      "constant": false,
      "inputs": [
        {
          "name": "nextMetadata",
          "type": "string"
        },
        {
          "name": "nextProvider",
          "type": "address"
        },
        {
          "name": "nextIsAsync",
          "type": "bool"
        }
      ],
      "name": "performUpgrade",
      "outputs": [
        {
          "name": "",
          "type": "bool"
        }
      ],
      "payable": false,
      "stateMutability": "nonpayable",
      "type": "function"
    },
    {
      "inputs": [
        {
          "name": "_kernel",
          "type": "address"
        },
        {
          "name": "_annotationDatabase",
          "type": "address"
        },
        {
          "name": "_providerId",
          "type": "uint256"
        }
      ],
      "payable": false,
      "stateMutability": "nonpayable",
      "type": "constructor"
    },
    {
      "anonymous": false,
      "inputs": [
        {
          "indexed": false,
          "name": "addr",
          "type": "address"
        },
        {
          "indexed": false,
          "name": "roleName",
          "type": "string"
        }
      ],
      "name": "RoleAdded",
      "type": "event"
    },
    {
      "anonymous": false,
      "inputs": [
        {
          "indexed": false,
          "name": "addr",
          "type": "address"
        },
        {
          "indexed": false,
          "name": "roleName",
          "type": "string"
        }
      ],
      "name": "RoleRemoved",
      "type": "event"
    },
    {
      "constant": false,
      "inputs": [
        {
          "name": "value",
          "type": "uint256"
        }
      ],
      "name": "withdrawBalance",
      "outputs": [],
      "payable": false,
      "stateMutability": "nonpayable",
      "type": "function"
    },
    {
      "constant": false,
      "inputs": [
        {
          "name": "requester",
          "type": "address"
        },
        {
          "name": "requestId",
          "type": "uint256"
        }
      ],
      "name": "acceptServiceRequest",
      "outputs": [],
      "payable": false,
      "stateMutability": "nonpayable",
      "type": "function"
    },
    {
      "constant": false,
      "inputs": [
        {
          "name": "requester",
          "type": "address"
        },
        {
          "name": "requestId",
          "type": "uint256"
        }
      ],
      "name": "completeServiceRequest",
      "outputs": [],
      "payable": false,
      "stateMutability": "nonpayable",
      "type": "function"
    },
    {
      "constant": false,
      "inputs": [
        {
          "name": "tokenAddr",
          "type": "address"
        },
        {
          "name": "tokenId",
          "type": "uint256"
        },
        {
          "name": "fieldId",
          "type": "uint256"
        },
        {
          "name": "value",
          "type": "bytes32"
        }
      ],
      "name": "writeBytes32Field",
      "outputs": [],
      "payable": false,
      "stateMutability": "nonpayable",
      "type": "function"
    },
    {
      "constant": false,
      "inputs": [
        {
          "name": "tokenAddr",
          "type": "address"
        },
        {
          "name": "tokenId",
          "type": "uint256"
        },
        {
          "name": "fieldId",
          "type": "uint256"
        },
        {
          "name": "value",
          "type": "bytes"
        }
      ],
      "name": "writeBytesField",
      "outputs": [],
      "payable": false,
      "stateMutability": "nonpayable",
      "type": "function"
    }
  ],
  "bytecode": "0x60806040523480156200001157600080fd5b5060405160608062001b408339810180604052810190808051906020019092919080519060200190929190805190602001909291905050508273ffffffffffffffffffffffffffffffffffffffff1663545921d96040518163ffffffff167c0100000000000000000000000000000000000000000000000000000000028152600401602060405180830381600087803b158015620000ae57600080fd5b505af1158015620000c3573d6000803e3d6000fd5b505050506040513d6020811015620000da57600080fd5b81019080805190602001909291905050508181600260006101000a81548173ffffffffffffffffffffffffffffffffffffffff021916908373ffffffffffffffffffffffffffffffffffffffff1602179055508060018190555062000184336040805190810160405280600581526020017f61646d696e000000000000000000000000000000000000000000000000000000815250620002f3640100000000026401000000009004565b505082600360006101000a81548173ffffffffffffffffffffffffffffffffffffffff021916908373ffffffffffffffffffffffffffffffffffffffff1602179055508273ffffffffffffffffffffffffffffffffffffffff1663fc0c546a6040518163ffffffff167c0100000000000000000000000000000000000000000000000000000000028152600401602060405180830381600087803b1580156200022c57600080fd5b505af115801562000241573d6000803e3d6000fd5b505050506040513d60208110156200025857600080fd5b8101908080519060200190929190505050600460006101000a81548173ffffffffffffffffffffffffffffffffffffffff021916908373ffffffffffffffffffffffffffffffffffffffff16021790555081600560006101000a81548173ffffffffffffffffffffffffffffffffffffffff021916908373ffffffffffffffffffffffffffffffffffffffff160217905550505050620004b7565b62000382826000836040518082805190602001908083835b6020831015156200033257805182526020820191506020810190506020830392506200030b565b6001836020036101000a03801982511681845116808217855250505050505090500191505090815260200160405180910390206200045964010000000002620015ef179091906401000000009004565b7fbfec83d64eaa953f2708271a023ab9ee82057f8f3578d548c1a4ba0b5b7004898282604051808373ffffffffffffffffffffffffffffffffffffffff1673ffffffffffffffffffffffffffffffffffffffff16815260200180602001828103825283818151815260200191508051906020019080838360005b8381101562000419578082015181840152602081019050620003fc565b50505050905090810190601f168015620004475780820380516001836020036101000a031916815260200191505b50935050505060405180910390a15050565b60018260000160008373ffffffffffffffffffffffffffffffffffffffff1673ffffffffffffffffffffffffffffffffffffffff16815260200190815260200160002060006101000a81548160ff0219169083151502179055505050565b61167980620004c76000396000f3006080604052600436106100d0576000357c0100000000000000000000000000000000000000000000000000000000900463ffffffff1680630988ca8c146100d55780631785f53c1461015e578063217fe6c6146101a15780632c93186a146102425780634425c5a8146102b5578063704802751461030257806382ad982c146103455780638490a8df14610392578063856e2c07146103bd578063d391014b14610422578063d4aae0c4146104b2578063da76d5cd14610509578063e5006aac14610536578063e70e75da146105b5575b600080fd5b3480156100e157600080fd5b5061015c600480360381019080803573ffffffffffffffffffffffffffffffffffffffff169060200190929190803590602001908201803590602001908080601f0160208091040260200160405190810160405280939291908181526020018383808284378201915050505050509192919290505050610652565b005b34801561016a57600080fd5b5061019f600480360381019080803573ffffffffffffffffffffffffffffffffffffffff1690602001909291905050506106d3565b005b3480156101ad57600080fd5b50610228600480360381019080803573ffffffffffffffffffffffffffffffffffffffff169060200190929190803590602001908201803590602001908080601f0160208091040260200160405190810160405280939291908181526020018383808284378201915050505050509192919290505050610756565b604051808215151515815260200191505060405180910390f35b34801561024e57600080fd5b5061029f6004803603810190808035906020019082018035906020019190919293919293908035906020019082018035906020019190919293919293908035151590602001909291905050506107dd565b6040518082815260200191505060405180910390f35b3480156102c157600080fd5b50610300600480360381019080803573ffffffffffffffffffffffffffffffffffffffff16906020019092919080359060200190929190505050610992565b005b34801561030e57600080fd5b50610343600480360381019080803573ffffffffffffffffffffffffffffffffffffffff169060200190929190505050610abe565b005b34801561035157600080fd5b50610390600480360381019080803573ffffffffffffffffffffffffffffffffffffffff16906020019092919080359060200190929190505050610b41565b005b34801561039e57600080fd5b506103a7610c6d565b6040518082815260200191505060405180910390f35b3480156103c957600080fd5b50610420600480360381019080803573ffffffffffffffffffffffffffffffffffffffff16906020019092919080359060200190929190803590602001909291908035600019169060200190929190505050610c73565b005b34801561042e57600080fd5b50610437610db9565b6040518080602001828103825283818151815260200191508051906020019080838360005b8381101561047757808201518184015260208101905061045c565b50505050905090810190601f1680156104a45780820380516001836020036101000a031916815260200191505b509250505060405180910390f35b3480156104be57600080fd5b506104c7610df2565b604051808273ffffffffffffffffffffffffffffffffffffffff1673ffffffffffffffffffffffffffffffffffffffff16815260200191505060405180910390f35b34801561051557600080fd5b5061053460048036038101908080359060200190929190505050610e18565b005b34801561054257600080fd5b5061059b600480360381019080803590602001908201803590602001919091929391929390803573ffffffffffffffffffffffffffffffffffffffff169060200190929190803515159060200190929190505050610f5d565b604051808215151515815260200191505060405180910390f35b3480156105c157600080fd5b50610650600480360381019080803573ffffffffffffffffffffffffffffffffffffffff1690602001909291908035906020019092919080359060200190929190803590602001908201803590602001908080601f01602080910402602001604051908101604052809392919081815260200183838082843782019150505050505091929192905050506110da565b005b6106cf826000836040518082805190602001908083835b60208310151561068e5780518252602082019150602081019050602083039250610669565b6001836020036101000a038019825116818451168082178552505050505050905001915050908152602001604051809103902061127d90919063ffffffff16565b5050565b6040805190810160405280600581526020017f61646d696e0000000000000000000000000000000000000000000000000000008152506107133382610652565b610752826040805190810160405280600581526020017f61646d696e000000000000000000000000000000000000000000000000000000815250611296565b5050565b60006107d5836000846040518082805190602001908083835b602083101515610794578051825260208201915060208101905060208303925061076f565b6001836020036101000a03801982511681845116808217855250505050505090500191505090815260200160405180910390206113e790919063ffffffff16565b905092915050565b60006040805190810160405280600581526020017f61646d696e00000000000000000000000000000000000000000000000000000081525061081f3382610652565b60006001541415156108345760009150610988565b600260009054906101000a900473ffffffffffffffffffffffffffffffffffffffff1673ffffffffffffffffffffffffffffffffffffffff1663c48afd098888888830896040518763ffffffff167c01000000000000000000000000000000000000000000000000000000000281526004018080602001806020018573ffffffffffffffffffffffffffffffffffffffff1673ffffffffffffffffffffffffffffffffffffffff16815260200184151515158152602001838103835289898281815260200192508082843782019150508381038252878782818152602001925080828437820191505098505050505050505050602060405180830381600087803b15801561094157600080fd5b505af1158015610955573d6000803e3d6000fd5b505050506040513d602081101561096b57600080fd5b810190808051906020019092919050505060018190555060015491505b5095945050505050565b6040805190810160405280600581526020017f61646d696e0000000000000000000000000000000000000000000000000000008152506109d23382610652565b600360009054906101000a900473ffffffffffffffffffffffffffffffffffffffff1673ffffffffffffffffffffffffffffffffffffffff1663668d828660015485856040518463ffffffff167c0100000000000000000000000000000000000000000000000000000000028152600401808481526020018373ffffffffffffffffffffffffffffffffffffffff1673ffffffffffffffffffffffffffffffffffffffff1681526020018281526020019350505050600060405180830381600087803b158015610aa157600080fd5b505af1158015610ab5573d6000803e3d6000fd5b50505050505050565b6040805190810160405280600581526020017f61646d696e000000000000000000000000000000000000000000000000000000815250610afe3382610652565b610b3d826040805190810160405280600581526020017f61646d696e000000000000000000000000000000000000000000000000000000815250611440565b5050565b6040805190810160405280600581526020017f61646d696e000000000000000000000000000000000000000000000000000000815250610b813382610652565b600360009054906101000a900473ffffffffffffffffffffffffffffffffffffffff1673ffffffffffffffffffffffffffffffffffffffff1663993c569660015485856040518463ffffffff167c0100000000000000000000000000000000000000000000000000000000028152600401808481526020018373ffffffffffffffffffffffffffffffffffffffff1673ffffffffffffffffffffffffffffffffffffffff1681526020018281526020019350505050600060405180830381600087803b158015610c5057600080fd5b505af1158015610c64573d6000803e3d6000fd5b50505050505050565b60015481565b6040805190810160405280600581526020017f61646d696e000000000000000000000000000000000000000000000000000000815250610cb33382610652565b600560009054906101000a900473ffffffffffffffffffffffffffffffffffffffff1673ffffffffffffffffffffffffffffffffffffffff1663229b5dd1868660015487876040518663ffffffff167c0100000000000000000000000000000000000000000000000000000000028152600401808673ffffffffffffffffffffffffffffffffffffffff1673ffffffffffffffffffffffffffffffffffffffff168152602001858152602001848152602001838152602001826000191660001916815260200195505050505050600060405180830381600087803b158015610d9a57600080fd5b505af1158015610dae573d6000803e3d6000fd5b505050505050505050565b6040805190810160405280600581526020017f61646d696e00000000000000000000000000000000000000000000000000000081525081565b600360009054906101000a900473ffffffffffffffffffffffffffffffffffffffff1681565b6040805190810160405280600581526020017f61646d696e000000000000000000000000000000000000000000000000000000815250610e583382610652565b600460009054906101000a900473ffffffffffffffffffffffffffffffffffffffff1673ffffffffffffffffffffffffffffffffffffffff1663a9059cbb33846040518363ffffffff167c0100000000000000000000000000000000000000000000000000000000028152600401808373ffffffffffffffffffffffffffffffffffffffff1673ffffffffffffffffffffffffffffffffffffffff16815260200182815260200192505050602060405180830381600087803b158015610f1d57600080fd5b505af1158015610f31573d6000803e3d6000fd5b505050506040513d6020811015610f4757600080fd5b8101908080519060200190929190505050505050565b60006040805190810160405280600581526020017f61646d696e000000000000000000000000000000000000000000000000000000815250610f9f3382610652565b600260009054906101000a900473ffffffffffffffffffffffffffffffffffffffff1673ffffffffffffffffffffffffffffffffffffffff16631645fdcd600154888888886040518663ffffffff167c010000000000000000000000000000000000000000000000000000000002815260040180868152602001806020018473ffffffffffffffffffffffffffffffffffffffff1673ffffffffffffffffffffffffffffffffffffffff16815260200183151515158152602001828103825286868281815260200192508082843782019150509650505050505050602060405180830381600087803b15801561109457600080fd5b505af11580156110a8573d6000803e3d6000fd5b505050506040513d60208110156110be57600080fd5b8101908080519060200190929190505050915050949350505050565b6040805190810160405280600581526020017f61646d696e00000000000000000000000000000000000000000000000000000081525061111a3382610652565b600560009054906101000a900473ffffffffffffffffffffffffffffffffffffffff1673ffffffffffffffffffffffffffffffffffffffff16632fb66cb5868660015487876040518663ffffffff167c0100000000000000000000000000000000000000000000000000000000028152600401808673ffffffffffffffffffffffffffffffffffffffff1673ffffffffffffffffffffffffffffffffffffffff16815260200185815260200184815260200183815260200180602001828103825283818151815260200191508051906020019080838360005b8381101561120e5780820151818401526020810190506111f3565b50505050905090810190601f16801561123b5780820380516001836020036101000a031916815260200191505b509650505050505050600060405180830381600087803b15801561125e57600080fd5b505af1158015611272573d6000803e3d6000fd5b505050505050505050565b61128782826113e7565b151561129257600080fd5b5050565b611313826000836040518082805190602001908083835b6020831015156112d257805182526020820191506020810190506020830392506112ad565b6001836020036101000a038019825116818451168082178552505050505050905001915050908152602001604051809103902061159190919063ffffffff16565b7fd211483f91fc6eff862467f8de606587a30c8fc9981056f051b897a418df803a8282604051808373ffffffffffffffffffffffffffffffffffffffff1673ffffffffffffffffffffffffffffffffffffffff16815260200180602001828103825283818151815260200191508051906020019080838360005b838110156113a857808201518184015260208101905061138d565b50505050905090810190601f1680156113d55780820380516001836020036101000a031916815260200191505b50935050505060405180910390a15050565b60008260000160008373ffffffffffffffffffffffffffffffffffffffff1673ffffffffffffffffffffffffffffffffffffffff16815260200190815260200160002060009054906101000a900460ff16905092915050565b6114bd826000836040518082805190602001908083835b60208310151561147c5780518252602082019150602081019050602083039250611457565b6001836020036101000a03801982511681845116808217855250505050505090500191505090815260200160405180910390206115ef90919063ffffffff16565b7fbfec83d64eaa953f2708271a023ab9ee82057f8f3578d548c1a4ba0b5b7004898282604051808373ffffffffffffffffffffffffffffffffffffffff1673ffffffffffffffffffffffffffffffffffffffff16815260200180602001828103825283818151815260200191508051906020019080838360005b83811015611552578082015181840152602081019050611537565b50505050905090810190601f16801561157f5780820380516001836020036101000a031916815260200191505b50935050505060405180910390a15050565b60008260000160008373ffffffffffffffffffffffffffffffffffffffff1673ffffffffffffffffffffffffffffffffffffffff16815260200190815260200160002060006101000a81548160ff0219169083151502179055505050565b60018260000160008373ffffffffffffffffffffffffffffffffffffffff1673ffffffffffffffffffffffffffffffffffffffff16815260200190815260200160002060006101000a81548160ff02191690831515021790555050505600a165627a7a72305820176e0ae42bcc5059002ee95c589527dd5437a1b0f59f0bb090686a834a492d530029",
  "source": "pragma solidity ^0.4.24;\n\nimport \"openzeppelin-solidity/contracts/ownership/Ownable.sol\";\nimport \"./Provider.sol\";\nimport \"../../protocol/ProviderRegistry.sol\";\nimport \"../../protocol/AbacusToken.sol\";\nimport \"../../protocol/AbacusKernel.sol\";\nimport \"../../protocol/AnnotationDatabase.sol\";\n\n/**\n * @title Provider\n * @dev A contract which can be used as a provider in a ProviderRegistry.\n */\ncontract AsyncProvider is Provider {\n    AbacusKernel public kernel;\n    AbacusToken token;\n    AnnotationDatabase annotationDatabase;\n\n    /**\n     * @dev Constructor can also be used for upgrades.\n     *\n     * @param _providerId The provider id. If set to 0, the provider can be registered.\n     */\n    constructor(\n        AbacusKernel _kernel,\n        AnnotationDatabase _annotationDatabase,\n        uint256 _providerId     \n    ) Provider(_kernel.providerRegistry(), _providerId) public\n    {\n        kernel = _kernel;\n        token = _kernel.token();\n        annotationDatabase = _annotationDatabase;\n    }\n\n    /**\n     * @dev Withdraw ABA balance from smart contract\n     *\n     * @param value Amount of ABA to withdraw \n     */\n    function withdrawBalance(\n        uint256 value\n    ) onlyRole(ROLE_ADMIN) public\n    {\n        token.transfer(msg.sender, value);\n    }\n\n    /**\n     * @dev Signal the kernel to accept async service requests and open escrow\n     * \n     * @param requester Ethereum address of the service requester\n     * @param requestId Request ID of the service request \n     */\n    function acceptServiceRequest(\n        address requester,\n        uint256 requestId\n    ) onlyRole(ROLE_ADMIN) public\n    {\n        kernel.acceptAsyncServiceRequest(providerId, requester, requestId);\n    }\n\n    /**\n    * @dev Signal the kernel that service was completed and close escrow\n    *\n    * @param requester Ethereum address of the service requester\n    * @param requestId Request ID of the service request \n    */\n    function completeServiceRequest(\n        address requester,\n        uint256 requestId\n    ) onlyRole(ROLE_ADMIN) public\n    {\n        kernel.onAsyncServiceCompleted(providerId, requester, requestId);\n    }\n\n    function writeBytes32Field(\n        address tokenAddr,\n        uint256 tokenId,\n        uint256 fieldId,\n        bytes32 value\n    ) public onlyRole(ROLE_ADMIN) {\n        annotationDatabase.writeBytes32Field(\n            tokenAddr,\n            tokenId,\n            providerId,\n            fieldId,\n            value\n        );\n    }\n\n    function writeBytesField(\n        address tokenAddr,\n        uint256 tokenId,\n        uint256 fieldId,\n        bytes value\n    ) public onlyRole(ROLE_ADMIN) {\n        annotationDatabase.writeBytesField(\n            tokenAddr,\n            tokenId,\n            providerId,\n            fieldId,\n            value\n        );\n    }\n}\n",
  "sourcePath": "/home/ian/proj/abacusprotocol/protocol/contracts/library/provider/AsyncProvider.sol",
  "compiler": {
    "name": "solc",
    "version": "0.4.24+commit.e67f0147.Emscripten.clang"
  },
  "schemaVersion": "2.0.1",
  "updatedAt": "2018-08-02T05:54:28.379Z"
}