{
  "contractName": "Bundle",
  "abi": [
    {
      "constant": true,
      "inputs": [],
      "name": "name",
      "outputs": [
        {
          "name": "",
          "type": "string"
        }
      ],
      "payable": false,
      "stateMutability": "view",
      "type": "function"
    },
    {
      "constant": true,
      "inputs": [
        {
          "name": "_tokenId",
          "type": "uint256"
        }
      ],
      "name": "getApproved",
      "outputs": [
        {
          "name": "",
          "type": "address"
        }
      ],
      "payable": false,
      "stateMutability": "view",
      "type": "function"
    },
    {
      "constant": false,
      "inputs": [
        {
          "name": "_to",
          "type": "address"
        },
        {
          "name": "_tokenId",
          "type": "uint256"
        }
      ],
      "name": "approve",
      "outputs": [],
      "payable": false,
      "stateMutability": "nonpayable",
      "type": "function"
    },
    {
      "constant": true,
      "inputs": [],
      "name": "totalSupply",
      "outputs": [
        {
          "name": "",
          "type": "uint256"
        }
      ],
      "payable": false,
      "stateMutability": "view",
      "type": "function"
    },
    {
      "constant": true,
      "inputs": [
        {
          "name": "",
          "type": "uint256"
        },
        {
          "name": "",
          "type": "address"
        },
        {
          "name": "",
          "type": "uint256"
        }
      ],
      "name": "erc721Assets",
      "outputs": [
        {
          "name": "",
          "type": "bool"
        }
      ],
      "payable": false,
      "stateMutability": "view",
      "type": "function"
    },
    {
      "constant": true,
      "inputs": [
        {
          "name": "_owner",
          "type": "address"
        },
        {
          "name": "_index",
          "type": "uint256"
        }
      ],
      "name": "tokenOfOwnerByIndex",
      "outputs": [
        {
          "name": "",
          "type": "uint256"
        }
      ],
      "payable": false,
      "stateMutability": "view",
      "type": "function"
    },
    {
      "constant": true,
      "inputs": [
        {
          "name": "",
          "type": "uint256"
        }
      ],
      "name": "complianceProviderIds",
      "outputs": [
        {
          "name": "",
          "type": "uint256"
        }
      ],
      "payable": false,
      "stateMutability": "view",
      "type": "function"
    },
    {
      "constant": true,
      "inputs": [
        {
          "name": "_tokenId",
          "type": "uint256"
        }
      ],
      "name": "exists",
      "outputs": [
        {
          "name": "",
          "type": "bool"
        }
      ],
      "payable": false,
      "stateMutability": "view",
      "type": "function"
    },
    {
      "constant": true,
      "inputs": [
        {
          "name": "_index",
          "type": "uint256"
        }
      ],
      "name": "tokenByIndex",
      "outputs": [
        {
          "name": "",
          "type": "uint256"
        }
      ],
      "payable": false,
      "stateMutability": "view",
      "type": "function"
    },
    {
      "constant": true,
      "inputs": [
        {
          "name": "_tokenId",
          "type": "uint256"
        }
      ],
      "name": "ownerOf",
      "outputs": [
        {
          "name": "",
          "type": "address"
        }
      ],
      "payable": false,
      "stateMutability": "view",
      "type": "function"
    },
    {
      "constant": true,
      "inputs": [
        {
          "name": "_owner",
          "type": "address"
        }
      ],
      "name": "balanceOf",
      "outputs": [
        {
          "name": "",
          "type": "uint256"
        }
      ],
      "payable": false,
      "stateMutability": "view",
      "type": "function"
    },
    {
      "constant": true,
      "inputs": [
        {
          "name": "",
          "type": "uint256"
        },
        {
          "name": "",
          "type": "address"
        }
      ],
      "name": "erc20Assets",
      "outputs": [
        {
          "name": "",
          "type": "uint256"
        }
      ],
      "payable": false,
      "stateMutability": "view",
      "type": "function"
    },
    {
      "constant": true,
      "inputs": [],
      "name": "symbol",
      "outputs": [
        {
          "name": "",
          "type": "string"
        }
      ],
      "payable": false,
      "stateMutability": "view",
      "type": "function"
    },
    {
      "constant": false,
      "inputs": [
        {
          "name": "_to",
          "type": "address"
        },
        {
          "name": "_approved",
          "type": "bool"
        }
      ],
      "name": "setApprovalForAll",
      "outputs": [],
      "payable": false,
      "stateMutability": "nonpayable",
      "type": "function"
    },
    {
      "constant": true,
      "inputs": [
        {
          "name": "",
          "type": "uint256"
        }
      ],
      "name": "locked",
      "outputs": [
        {
          "name": "",
          "type": "bool"
        }
      ],
      "payable": false,
      "stateMutability": "view",
      "type": "function"
    },
    {
      "constant": true,
      "inputs": [
        {
          "name": "_tokenId",
          "type": "uint256"
        }
      ],
      "name": "tokenURI",
      "outputs": [
        {
          "name": "",
          "type": "string"
        }
      ],
      "payable": false,
      "stateMutability": "view",
      "type": "function"
    },
    {
      "constant": true,
      "inputs": [
        {
          "name": "_owner",
          "type": "address"
        },
        {
          "name": "_operator",
          "type": "address"
        }
      ],
      "name": "isApprovedForAll",
      "outputs": [
        {
          "name": "",
          "type": "bool"
        }
      ],
      "payable": false,
      "stateMutability": "view",
      "type": "function"
    },
    {
      "inputs": [
        {
          "name": "_complianceCoordinator",
          "type": "address"
        }
      ],
      "payable": false,
      "stateMutability": "nonpayable",
      "type": "constructor"
    },
    {
      "anonymous": false,
      "inputs": [
        {
          "indexed": true,
          "name": "bundleId",
          "type": "uint256"
        },
        {
          "indexed": false,
          "name": "owner",
          "type": "address"
        }
      ],
      "name": "Create",
      "type": "event"
    },
    {
      "anonymous": false,
      "inputs": [
        {
          "indexed": true,
          "name": "bundleId",
          "type": "uint256"
        },
        {
          "indexed": false,
          "name": "token",
          "type": "address"
        },
        {
          "indexed": false,
          "name": "amount",
          "type": "uint256"
        }
      ],
      "name": "DepositERC20",
      "type": "event"
    },
    {
      "anonymous": false,
      "inputs": [
        {
          "indexed": true,
          "name": "bundleId",
          "type": "uint256"
        },
        {
          "indexed": false,
          "name": "token",
          "type": "address"
        },
        {
          "indexed": false,
          "name": "amount",
          "type": "uint256"
        }
      ],
      "name": "WithdrawERC20",
      "type": "event"
    },
    {
      "anonymous": false,
      "inputs": [
        {
          "indexed": true,
          "name": "bundleId",
          "type": "uint256"
        },
        {
          "indexed": false,
          "name": "token",
          "type": "address"
        },
        {
          "indexed": false,
          "name": "id",
          "type": "uint256"
        }
      ],
      "name": "DepositERC721",
      "type": "event"
    },
    {
      "anonymous": false,
      "inputs": [
        {
          "indexed": true,
          "name": "bundleId",
          "type": "uint256"
        },
        {
          "indexed": false,
          "name": "token",
          "type": "address"
        },
        {
          "indexed": false,
          "name": "id",
          "type": "uint256"
        }
      ],
      "name": "WithdrawERC721",
      "type": "event"
    },
    {
      "anonymous": false,
      "inputs": [
        {
          "indexed": true,
          "name": "bundleId",
          "type": "uint256"
        }
      ],
      "name": "Lock",
      "type": "event"
    },
    {
      "anonymous": false,
      "inputs": [
        {
          "indexed": true,
          "name": "bundleId",
          "type": "uint256"
        }
      ],
      "name": "Unlock",
      "type": "event"
    },
    {
      "anonymous": false,
      "inputs": [
        {
          "indexed": true,
          "name": "_from",
          "type": "address"
        },
        {
          "indexed": true,
          "name": "_to",
          "type": "address"
        },
        {
          "indexed": false,
          "name": "_tokenId",
          "type": "uint256"
        }
      ],
      "name": "Transfer",
      "type": "event"
    },
    {
      "anonymous": false,
      "inputs": [
        {
          "indexed": true,
          "name": "_owner",
          "type": "address"
        },
        {
          "indexed": true,
          "name": "_approved",
          "type": "address"
        },
        {
          "indexed": false,
          "name": "_tokenId",
          "type": "uint256"
        }
      ],
      "name": "Approval",
      "type": "event"
    },
    {
      "anonymous": false,
      "inputs": [
        {
          "indexed": true,
          "name": "_owner",
          "type": "address"
        },
        {
          "indexed": true,
          "name": "_operator",
          "type": "address"
        },
        {
          "indexed": false,
          "name": "_approved",
          "type": "bool"
        }
      ],
      "name": "ApprovalForAll",
      "type": "event"
    },
    {
      "constant": false,
      "inputs": [
        {
          "name": "_uri",
          "type": "string"
        },
        {
          "name": "_complianceProviderId",
          "type": "uint256"
        }
      ],
      "name": "create",
      "outputs": [
        {
          "name": "",
          "type": "uint256"
        }
      ],
      "payable": false,
      "stateMutability": "nonpayable",
      "type": "function"
    },
    {
      "constant": false,
      "inputs": [
        {
          "name": "_bundleId",
          "type": "uint256"
        },
        {
          "name": "_token",
          "type": "address"
        },
        {
          "name": "_amount",
          "type": "uint256"
        }
      ],
      "name": "depositERC20Asset",
      "outputs": [
        {
          "name": "",
          "type": "bool"
        }
      ],
      "payable": false,
      "stateMutability": "nonpayable",
      "type": "function"
    },
    {
      "constant": false,
      "inputs": [
        {
          "name": "_bundleId",
          "type": "uint256"
        },
        {
          "name": "_token",
          "type": "address"
        },
        {
          "name": "_amount",
          "type": "uint256"
        }
      ],
      "name": "withdrawERC20Asset",
      "outputs": [
        {
          "name": "",
          "type": "bool"
        }
      ],
      "payable": false,
      "stateMutability": "nonpayable",
      "type": "function"
    },
    {
      "constant": false,
      "inputs": [
        {
          "name": "_bundleId",
          "type": "uint256"
        },
        {
          "name": "_token",
          "type": "address"
        },
        {
          "name": "_id",
          "type": "uint256"
        }
      ],
      "name": "depositERC721Asset",
      "outputs": [
        {
          "name": "",
          "type": "bool"
        }
      ],
      "payable": false,
      "stateMutability": "nonpayable",
      "type": "function"
    },
    {
      "constant": false,
      "inputs": [
        {
          "name": "_bundleId",
          "type": "uint256"
        },
        {
          "name": "_token",
          "type": "address"
        },
        {
          "name": "_id",
          "type": "uint256"
        }
      ],
      "name": "withdrawERC721Asset",
      "outputs": [
        {
          "name": "",
          "type": "bool"
        }
      ],
      "payable": false,
      "stateMutability": "nonpayable",
      "type": "function"
    },
    {
      "constant": false,
      "inputs": [
        {
          "name": "_bundleId",
          "type": "uint256"
        }
      ],
      "name": "lock",
      "outputs": [
        {
          "name": "",
          "type": "bool"
        }
      ],
      "payable": false,
      "stateMutability": "nonpayable",
      "type": "function"
    },
    {
      "constant": false,
      "inputs": [
        {
          "name": "_bundleId",
          "type": "uint256"
        }
      ],
      "name": "unlock",
      "outputs": [
        {
          "name": "",
          "type": "bool"
        }
      ],
      "payable": false,
      "stateMutability": "nonpayable",
      "type": "function"
    },
    {
      "constant": false,
      "inputs": [
        {
          "name": "_from",
          "type": "address"
        },
        {
          "name": "_to",
          "type": "address"
        },
        {
          "name": "_tokenId",
          "type": "uint256"
        }
      ],
      "name": "transferFrom",
      "outputs": [],
      "payable": false,
      "stateMutability": "nonpayable",
      "type": "function"
    },
    {
      "constant": false,
      "inputs": [
        {
          "name": "_from",
          "type": "address"
        },
        {
          "name": "_to",
          "type": "address"
        },
        {
          "name": "_tokenId",
          "type": "uint256"
        }
      ],
      "name": "safeTransferFrom",
      "outputs": [],
      "payable": false,
      "stateMutability": "nonpayable",
      "type": "function"
    },
    {
      "constant": false,
      "inputs": [
        {
          "name": "_from",
          "type": "address"
        },
        {
          "name": "_to",
          "type": "address"
        },
        {
          "name": "_tokenId",
          "type": "uint256"
        },
        {
          "name": "_data",
          "type": "bytes"
        }
      ],
      "name": "safeTransferFrom",
      "outputs": [],
      "payable": false,
      "stateMutability": "nonpayable",
      "type": "function"
    }
  ],
  "bytecode": "0x60806040526001600b553480156200001657600080fd5b506040516020806200364f833981018060405281019080805190602001909291905050506040805190810160405280600681526020017f42756e646c6500000000000000000000000000000000000000000000000000008152506040805190810160405280600381526020017f424e4400000000000000000000000000000000000000000000000000000000008152508160049080519060200190620000be92919062000122565b508060059080519060200190620000d792919062000122565b50505080601060006101000a81548173ffffffffffffffffffffffffffffffffffffffff021916908373ffffffffffffffffffffffffffffffffffffffff16021790555050620001d1565b828054600181600116156101000203166002900490600052602060002090601f016020900481019282601f106200016557805160ff191683800117855562000196565b8280016001018555821562000196579182015b828111156200019557825182559160200191906001019062000178565b5b509050620001a59190620001a9565b5090565b620001ce91905b80821115620001ca576000816000905550600101620001b0565b5090565b90565b61346e80620001e16000396000f30060806040526004361061015f576000357c0100000000000000000000000000000000000000000000000000000000900463ffffffff16806306fdde0314610164578063081812fc146101f4578063095ea7b31461026157806318160ddd146102ae5780631ba49bc6146102d957806323b872dd146103485780632f745c59146103b55780633683cdf81461041657806342842e0e1461045757806346f81a87146104c45780634f558e791461051d5780634f6ccce7146105625780636198e339146105a3578063627116b4146105e85780636352211e1461065757806370a08231146106c45780637530f0461461071b578063859a9b271461078a5780639089ef58146107eb57806395d89b411461085a578063a22cb465146108ea578063b45a3c0e14610939578063b88d4fde1461097e578063c87b56dd14610a31578063dd46706414610ad7578063e985e9c514610b1c578063f7930bc414610b97575b600080fd5b34801561017057600080fd5b50610179610c06565b6040518080602001828103825283818151815260200191508051906020019080838360005b838110156101b957808201518184015260208101905061019e565b50505050905090810190601f1680156101e65780820380516001836020036101000a031916815260200191505b509250505060405180910390f35b34801561020057600080fd5b5061021f60048036038101908080359060200190929190505050610ca8565b604051808273ffffffffffffffffffffffffffffffffffffffff1673ffffffffffffffffffffffffffffffffffffffff16815260200191505060405180910390f35b34801561026d57600080fd5b506102ac600480360381019080803573ffffffffffffffffffffffffffffffffffffffff16906020019092919080359060200190929190505050610ce5565b005b3480156102ba57600080fd5b506102c3610eab565b6040518082815260200191505060405180910390f35b3480156102e557600080fd5b5061032e60048036038101908080359060200190929190803573ffffffffffffffffffffffffffffffffffffffff16906020019092919080359060200190929190505050610eb8565b604051808215151515815260200191505060405180910390f35b34801561035457600080fd5b506103b3600480360381019080803573ffffffffffffffffffffffffffffffffffffffff169060200190929190803573ffffffffffffffffffffffffffffffffffffffff16906020019092919080359060200190929190505050610ef4565b005b3480156103c157600080fd5b50610400600480360381019080803573ffffffffffffffffffffffffffffffffffffffff169060200190929190803590602001909291905050506110fa565b6040518082815260200191505060405180910390f35b34801561042257600080fd5b5061044160048036038101908080359060200190929190505050611171565b6040518082815260200191505060405180910390f35b34801561046357600080fd5b506104c2600480360381019080803573ffffffffffffffffffffffffffffffffffffffff169060200190929190803573ffffffffffffffffffffffffffffffffffffffff16906020019092919080359060200190929190505050611189565b005b3480156104d057600080fd5b506105076004803603810190808035906020019082018035906020019190919293919293908035906020019092919050505061138f565b6040518082815260200191505060405180910390f35b34801561052957600080fd5b506105486004803603810190808035906020019092919050505061146f565b604051808215151515815260200191505060405180910390f35b34801561056e57600080fd5b5061058d600480360381019080803590602001909291905050506114e0565b6040518082815260200191505060405180910390f35b3480156105af57600080fd5b506105ce60048036038101908080359060200190929190505050611518565b604051808215151515815260200191505060405180910390f35b3480156105f457600080fd5b5061063d60048036038101908080359060200190929190803573ffffffffffffffffffffffffffffffffffffffff169060200190929190803590602001909291905050506115c3565b604051808215151515815260200191505060405180910390f35b34801561066357600080fd5b5061068260048036038101908080359060200190929190505050611856565b604051808273ffffffffffffffffffffffffffffffffffffffff1673ffffffffffffffffffffffffffffffffffffffff16815260200191505060405180910390f35b3480156106d057600080fd5b50610705600480360381019080803573ffffffffffffffffffffffffffffffffffffffff1690602001909291905050506118d3565b6040518082815260200191505060405180910390f35b34801561072757600080fd5b5061077060048036038101908080359060200190929190803573ffffffffffffffffffffffffffffffffffffffff16906020019092919080359060200190929190505050611957565b604051808215151515815260200191505060405180910390f35b34801561079657600080fd5b506107d560048036038101908080359060200190929190803573ffffffffffffffffffffffffffffffffffffffff169060200190929190505050611b69565b6040518082815260200191505060405180910390f35b3480156107f757600080fd5b5061084060048036038101908080359060200190929190803573ffffffffffffffffffffffffffffffffffffffff16906020019092919080359060200190929190505050611b8e565b604051808215151515815260200191505060405180910390f35b34801561086657600080fd5b5061086f611e64565b6040518080602001828103825283818151815260200191508051906020019080838360005b838110156108af578082015181840152602081019050610894565b50505050905090810190601f1680156108dc5780820380516001836020036101000a031916815260200191505b509250505060405180910390f35b3480156108f657600080fd5b50610937600480360381019080803573ffffffffffffffffffffffffffffffffffffffff169060200190929190803515159060200190929190505050611f06565b005b34801561094557600080fd5b5061096460048036038101908080359060200190929190505050612042565b604051808215151515815260200191505060405180910390f35b34801561098a57600080fd5b50610a2f600480360381019080803573ffffffffffffffffffffffffffffffffffffffff169060200190929190803573ffffffffffffffffffffffffffffffffffffffff16906020019092919080359060200190929190803590602001908201803590602001908080601f0160208091040260200160405190810160405280939291908181526020018383808284378201915050505050509192919290505050612062565b005b348015610a3d57600080fd5b50610a5c6004803603810190808035906020019092919050505061226a565b6040518080602001828103825283818151815260200191508051906020019080838360005b83811015610a9c578082015181840152602081019050610a81565b50505050905090810190601f168015610ac95780820380516001836020036101000a031916815260200191505b509250505060405180910390f35b348015610ae357600080fd5b50610b0260048036038101908080359060200190929190505050612333565b604051808215151515815260200191505060405180910390f35b348015610b2857600080fd5b50610b7d600480360381019080803573ffffffffffffffffffffffffffffffffffffffff169060200190929190803573ffffffffffffffffffffffffffffffffffffffff1690602001909291905050506123de565b604051808215151515815260200191505060405180910390f35b348015610ba357600080fd5b50610bec60048036038101908080359060200190929190803573ffffffffffffffffffffffffffffffffffffffff16906020019092919080359060200190929190505050612472565b604051808215151515815260200191505060405180910390f35b606060048054600181600116156101000203166002900480601f016020809104026020016040519081016040528092919081815260200182805460018160011615610100020316600290048015610c9e5780601f10610c7357610100808354040283529160200191610c9e565b820191906000526020600020905b815481529060010190602001808311610c8157829003601f168201915b5050505050905090565b60006001600083815260200190815260200160002060009054906101000a900473ffffffffffffffffffffffffffffffffffffffff169050919050565b6000610cf082611856565b90508073ffffffffffffffffffffffffffffffffffffffff168373ffffffffffffffffffffffffffffffffffffffff1614151515610d2d57600080fd5b8073ffffffffffffffffffffffffffffffffffffffff163373ffffffffffffffffffffffffffffffffffffffff161480610d6d5750610d6c81336123de565b5b1515610d7857600080fd5b600073ffffffffffffffffffffffffffffffffffffffff16610d9983610ca8565b73ffffffffffffffffffffffffffffffffffffffff16141580610de95750600073ffffffffffffffffffffffffffffffffffffffff168373ffffffffffffffffffffffffffffffffffffffff1614155b15610ea657826001600084815260200190815260200160002060006101000a81548173ffffffffffffffffffffffffffffffffffffffff021916908373ffffffffffffffffffffffffffffffffffffffff1602179055508273ffffffffffffffffffffffffffffffffffffffff168173ffffffffffffffffffffffffffffffffffffffff167f8c5be1e5ebec7d5bd14f71427d1e84f3dd0314c0f7b2291e5b200ac8c7c3b925846040518082815260200191505060405180910390a35b505050565b6000600880549050905090565b600d602052826000526040600020602052816000526040600020602052806000526040600020600092509250509054906101000a900460ff1681565b6000600e600083815260200190815260200160002060009054906101000a900460ff161515610f2257600080fd5b6000600f6000848152602001908152602001600020541415156110e857601060009054906101000a900473ffffffffffffffffffffffffffffffffffffffff1673ffffffffffffffffffffffffffffffffffffffff1663648e5dfd600f6000858152602001908152602001600020543085888860006001026040518763ffffffff167c0100000000000000000000000000000000000000000000000000000000028152600401808781526020018673ffffffffffffffffffffffffffffffffffffffff1673ffffffffffffffffffffffffffffffffffffffff1681526020018581526020018473ffffffffffffffffffffffffffffffffffffffff1673ffffffffffffffffffffffffffffffffffffffff1681526020018373ffffffffffffffffffffffffffffffffffffffff1673ffffffffffffffffffffffffffffffffffffffff16815260200182600019166000191681526020019650505050505050602060405180830381600087803b15801561109b57600080fd5b505af11580156110af573d6000803e3d6000fd5b505050506040513d60208110156110c557600080fd5b810190808051906020019092919050505090506000811415156110e7576110f4565b5b6110f38484846126f3565b5b50505050565b6000611105836118d3565b8210151561111257600080fd5b600660008473ffffffffffffffffffffffffffffffffffffffff1673ffffffffffffffffffffffffffffffffffffffff1681526020019081526020016000208281548110151561115e57fe5b9060005260206000200154905092915050565b600f6020528060005260406000206000915090505481565b6000600e600083815260200190815260200160002060009054906101000a900460ff1615156111b757600080fd5b6000600f60008481526020019081526020016000205414151561137d57601060009054906101000a900473ffffffffffffffffffffffffffffffffffffffff1673ffffffffffffffffffffffffffffffffffffffff1663648e5dfd600f6000858152602001908152602001600020543085888860006001026040518763ffffffff167c0100000000000000000000000000000000000000000000000000000000028152600401808781526020018673ffffffffffffffffffffffffffffffffffffffff1673ffffffffffffffffffffffffffffffffffffffff1681526020018581526020018473ffffffffffffffffffffffffffffffffffffffff1673ffffffffffffffffffffffffffffffffffffffff1681526020018373ffffffffffffffffffffffffffffffffffffffff1673ffffffffffffffffffffffffffffffffffffffff16815260200182600019166000191681526020019650505050505050602060405180830381600087803b15801561133057600080fd5b505af1158015611344573d6000803e3d6000fd5b505050506040513d602081101561135a57600080fd5b8101908080519060200190929190505050905060008114151561137c57611389565b5b61138884848461280a565b5b50505050565b600080600b60008154809291906001019190505590506113af3382612842565b6113eb8186868080601f016020809104026020016040519081016040528093929190818152602001838380828437820191505050505050612899565b82600f600083815260200190815260200160002081905550807f748fd6a01f0f0df2e8354235caf8fdf83654b5a47b2358be7e7bffb16b726ceb33604051808273ffffffffffffffffffffffffffffffffffffffff1673ffffffffffffffffffffffffffffffffffffffff16815260200191505060405180910390a2509392505050565b60008060008084815260200190815260200160002060009054906101000a900473ffffffffffffffffffffffffffffffffffffffff169050600073ffffffffffffffffffffffffffffffffffffffff168173ffffffffffffffffffffffffffffffffffffffff161415915050919050565b60006114ea610eab565b821015156114f757600080fd5b60088281548110151561150657fe5b90600052602060002001549050919050565b600061152382611856565b73ffffffffffffffffffffffffffffffffffffffff163373ffffffffffffffffffffffffffffffffffffffff1614151561156057600090506115be565b6000600e600084815260200190815260200160002060006101000a81548160ff021916908315150217905550817f832a253ad4e9e88f705006a24d9957b8aa1de307a0f9d0a6ad5fd0b0ac81050560405160405180910390a2600190505b919050565b60006115ce84611856565b73ffffffffffffffffffffffffffffffffffffffff163373ffffffffffffffffffffffffffffffffffffffff1614151561160b576000905061184f565b600e600085815260200190815260200160002060009054906101000a900460ff161561163a576000905061184f565b8273ffffffffffffffffffffffffffffffffffffffff1663a9059cbb33846040518363ffffffff167c0100000000000000000000000000000000000000000000000000000000028152600401808373ffffffffffffffffffffffffffffffffffffffff1673ffffffffffffffffffffffffffffffffffffffff16815260200182815260200192505050602060405180830381600087803b1580156116dd57600080fd5b505af11580156116f1573d6000803e3d6000fd5b505050506040513d602081101561170757600080fd5b81019080805190602001909291905050501515611727576000905061184f565b61178a82600c600087815260200190815260200160002060008673ffffffffffffffffffffffffffffffffffffffff1673ffffffffffffffffffffffffffffffffffffffff168152602001908152602001600020546128d990919063ffffffff16565b600c600086815260200190815260200160002060008573ffffffffffffffffffffffffffffffffffffffff1673ffffffffffffffffffffffffffffffffffffffff16815260200190815260200160002081905550837f357f70a556e9cc649ac2f7187a705593ce01058fcc222baca5b0e3fb68c5bbf28484604051808373ffffffffffffffffffffffffffffffffffffffff1673ffffffffffffffffffffffffffffffffffffffff1681526020018281526020019250505060405180910390a2600190505b9392505050565b60008060008084815260200190815260200160002060009054906101000a900473ffffffffffffffffffffffffffffffffffffffff169050600073ffffffffffffffffffffffffffffffffffffffff168173ffffffffffffffffffffffffffffffffffffffff16141515156118ca57600080fd5b80915050919050565b60008073ffffffffffffffffffffffffffffffffffffffff168273ffffffffffffffffffffffffffffffffffffffff161415151561191057600080fd5b600260008373ffffffffffffffffffffffffffffffffffffffff1673ffffffffffffffffffffffffffffffffffffffff168152602001908152602001600020549050919050565b6000600e600085815260200190815260200160002060009054906101000a900460ff16156119885760009050611b62565b8273ffffffffffffffffffffffffffffffffffffffff166323b872dd3330856040518463ffffffff167c0100000000000000000000000000000000000000000000000000000000028152600401808473ffffffffffffffffffffffffffffffffffffffff1673ffffffffffffffffffffffffffffffffffffffff1681526020018373ffffffffffffffffffffffffffffffffffffffff1673ffffffffffffffffffffffffffffffffffffffff1681526020018281526020019350505050600060405180830381600087803b158015611a5f57600080fd5b505af1158015611a73573d6000803e3d6000fd5b505050506001600d600086815260200190815260200160002060008573ffffffffffffffffffffffffffffffffffffffff1673ffffffffffffffffffffffffffffffffffffffff168152602001908152602001600020600084815260200190815260200160002060006101000a81548160ff021916908315150217905550837f2b797c66a8126707a48f7389d37d786369b16112a99786cbaba8df2100e535bd8484604051808373ffffffffffffffffffffffffffffffffffffffff1673ffffffffffffffffffffffffffffffffffffffff1681526020018281526020019250505060405180910390a2600190505b9392505050565b600c602052816000526040600020602052806000526040600020600091509150505481565b6000611b9984611856565b73ffffffffffffffffffffffffffffffffffffffff163373ffffffffffffffffffffffffffffffffffffffff16141515611bd65760009050611e5d565b600e600085815260200190815260200160002060009054906101000a900460ff1615611c055760009050611e5d565b600d600085815260200190815260200160002060008473ffffffffffffffffffffffffffffffffffffffff1673ffffffffffffffffffffffffffffffffffffffff168152602001908152602001600020600083815260200190815260200160002060009054906101000a900460ff161515611c835760009050611e5d565b8273ffffffffffffffffffffffffffffffffffffffff166342842e0e3033856040518463ffffffff167c0100000000000000000000000000000000000000000000000000000000028152600401808473ffffffffffffffffffffffffffffffffffffffff1673ffffffffffffffffffffffffffffffffffffffff1681526020018373ffffffffffffffffffffffffffffffffffffffff1673ffffffffffffffffffffffffffffffffffffffff1681526020018281526020019350505050600060405180830381600087803b158015611d5a57600080fd5b505af1158015611d6e573d6000803e3d6000fd5b505050506000600d600086815260200190815260200160002060008573ffffffffffffffffffffffffffffffffffffffff1673ffffffffffffffffffffffffffffffffffffffff168152602001908152602001600020600084815260200190815260200160002060006101000a81548160ff021916908315150217905550837f896bfff2c7d20b24d95894c46508fe26da89611bdeb455412d3d1db175f656758484604051808373ffffffffffffffffffffffffffffffffffffffff1673ffffffffffffffffffffffffffffffffffffffff1681526020018281526020019250505060405180910390a2600190505b9392505050565b606060058054600181600116156101000203166002900480601f016020809104026020016040519081016040528092919081815260200182805460018160011615610100020316600290048015611efc5780601f10611ed157610100808354040283529160200191611efc565b820191906000526020600020905b815481529060010190602001808311611edf57829003601f168201915b5050505050905090565b3373ffffffffffffffffffffffffffffffffffffffff168273ffffffffffffffffffffffffffffffffffffffff1614151515611f4157600080fd5b80600360003373ffffffffffffffffffffffffffffffffffffffff1673ffffffffffffffffffffffffffffffffffffffff16815260200190815260200160002060008473ffffffffffffffffffffffffffffffffffffffff1673ffffffffffffffffffffffffffffffffffffffff16815260200190815260200160002060006101000a81548160ff0219169083151502179055508173ffffffffffffffffffffffffffffffffffffffff163373ffffffffffffffffffffffffffffffffffffffff167f17307eab39ab6107e8899845ad3d59bd9653f200f220920489ca2b5937696c3183604051808215151515815260200191505060405180910390a35050565b600e6020528060005260406000206000915054906101000a900460ff1681565b6000600e600084815260200190815260200160002060009054906101000a900460ff16151561209057600080fd5b6000600f60008581526020019081526020016000205414151561225657601060009054906101000a900473ffffffffffffffffffffffffffffffffffffffff1673ffffffffffffffffffffffffffffffffffffffff1663648e5dfd600f6000868152602001908152602001600020543086898960006001026040518763ffffffff167c0100000000000000000000000000000000000000000000000000000000028152600401808781526020018673ffffffffffffffffffffffffffffffffffffffff1673ffffffffffffffffffffffffffffffffffffffff1681526020018581526020018473ffffffffffffffffffffffffffffffffffffffff1673ffffffffffffffffffffffffffffffffffffffff1681526020018373ffffffffffffffffffffffffffffffffffffffff1673ffffffffffffffffffffffffffffffffffffffff16815260200182600019166000191681526020019650505050505050602060405180830381600087803b15801561220957600080fd5b505af115801561221d573d6000803e3d6000fd5b505050506040513d602081101561223357600080fd5b8101908080519060200190929190505050905060008114151561225557612263565b5b612262858585856128f2565b5b5050505050565b60606122758261146f565b151561228057600080fd5b600a60008381526020019081526020016000208054600181600116156101000203166002900480601f0160208091040260200160405190810160405280929190818152602001828054600181600116156101000203166002900480156123275780601f106122fc57610100808354040283529160200191612327565b820191906000526020600020905b81548152906001019060200180831161230a57829003601f168201915b50505050509050919050565b600061233e82611856565b73ffffffffffffffffffffffffffffffffffffffff163373ffffffffffffffffffffffffffffffffffffffff1614151561237b57600090506123d9565b6001600e600084815260200190815260200160002060006101000a81548160ff021916908315150217905550817f57424d5909ad92dd80fbaa1967a047a5975a0e9bb94726d561734e667cdf422760405160405180910390a2600190505b919050565b6000600360008473ffffffffffffffffffffffffffffffffffffffff1673ffffffffffffffffffffffffffffffffffffffff16815260200190815260200160002060008373ffffffffffffffffffffffffffffffffffffffff1673ffffffffffffffffffffffffffffffffffffffff16815260200190815260200160002060009054906101000a900460ff16905092915050565b6000600e600085815260200190815260200160002060009054906101000a900460ff16156124a357600090506126ec565b8273ffffffffffffffffffffffffffffffffffffffff166323b872dd3330856040518463ffffffff167c0100000000000000000000000000000000000000000000000000000000028152600401808473ffffffffffffffffffffffffffffffffffffffff1673ffffffffffffffffffffffffffffffffffffffff1681526020018373ffffffffffffffffffffffffffffffffffffffff1673ffffffffffffffffffffffffffffffffffffffff1681526020018281526020019350505050602060405180830381600087803b15801561257a57600080fd5b505af115801561258e573d6000803e3d6000fd5b505050506040513d60208110156125a457600080fd5b810190808051906020019092919050505015156125c457600090506126ec565b61262782600c600087815260200190815260200160002060008673ffffffffffffffffffffffffffffffffffffffff1673ffffffffffffffffffffffffffffffffffffffff1681526020019081526020016000205461293190919063ffffffff16565b600c600086815260200190815260200160002060008573ffffffffffffffffffffffffffffffffffffffff1673ffffffffffffffffffffffffffffffffffffffff16815260200190815260200160002081905550837fbe2434dd77fd26d69e78cf6aef6f09123c59da51eb8f8655ccc8ed443b0b8c458484604051808373ffffffffffffffffffffffffffffffffffffffff1673ffffffffffffffffffffffffffffffffffffffff1681526020018281526020019250505060405180910390a2600190505b9392505050565b806126fe338261294d565b151561270957600080fd5b600073ffffffffffffffffffffffffffffffffffffffff168473ffffffffffffffffffffffffffffffffffffffff161415151561274557600080fd5b600073ffffffffffffffffffffffffffffffffffffffff168373ffffffffffffffffffffffffffffffffffffffff161415151561278157600080fd5b61278b84836129e2565b6127958483612b4b565b61279f8383612d63565b8273ffffffffffffffffffffffffffffffffffffffff168473ffffffffffffffffffffffffffffffffffffffff167fddf252ad1be2c89b69c2b068fc378daa952ba7f163c4a11628f55a4df523b3ef846040518082815260200191505060405180910390a350505050565b80612815338261294d565b151561282057600080fd5b61283c8484846020604051908101604052806000815250612062565b50505050565b61284c8282612e3a565b600880549050600960008381526020019081526020016000208190555060088190806001815401808255809150509060018203906000526020600020016000909192909190915055505050565b6128a28261146f565b15156128ad57600080fd5b80600a600084815260200190815260200160002090805190602001906128d4929190613371565b505050565b60008282111515156128e757fe5b818303905092915050565b816128fd338261294d565b151561290857600080fd5b612913858585610ef4565b61291f85858585612eea565b151561292a57600080fd5b5050505050565b6000818301905082811015151561294457fe5b80905092915050565b60008061295983611856565b90508073ffffffffffffffffffffffffffffffffffffffff168473ffffffffffffffffffffffffffffffffffffffff1614806129c857508373ffffffffffffffffffffffffffffffffffffffff166129b084610ca8565b73ffffffffffffffffffffffffffffffffffffffff16145b806129d957506129d881856123de565b5b91505092915050565b8173ffffffffffffffffffffffffffffffffffffffff16612a0282611856565b73ffffffffffffffffffffffffffffffffffffffff16141515612a2457600080fd5b600073ffffffffffffffffffffffffffffffffffffffff166001600083815260200190815260200160002060009054906101000a900473ffffffffffffffffffffffffffffffffffffffff1673ffffffffffffffffffffffffffffffffffffffff16141515612b475760006001600083815260200190815260200160002060006101000a81548173ffffffffffffffffffffffffffffffffffffffff021916908373ffffffffffffffffffffffffffffffffffffffff160217905550600073ffffffffffffffffffffffffffffffffffffffff168273ffffffffffffffffffffffffffffffffffffffff167f8c5be1e5ebec7d5bd14f71427d1e84f3dd0314c0f7b2291e5b200ac8c7c3b925836040518082815260200191505060405180910390a35b5050565b6000806000612b5a85856130d8565b60076000858152602001908152602001600020549250612bc66001600660008873ffffffffffffffffffffffffffffffffffffffff1673ffffffffffffffffffffffffffffffffffffffff168152602001908152602001600020805490506128d990919063ffffffff16565b9150600660008673ffffffffffffffffffffffffffffffffffffffff1673ffffffffffffffffffffffffffffffffffffffff16815260200190815260200160002082815481101515612c1457fe5b9060005260206000200154905080600660008773ffffffffffffffffffffffffffffffffffffffff1673ffffffffffffffffffffffffffffffffffffffff16815260200190815260200160002084815481101515612c6e57fe5b90600052602060002001819055506000600660008773ffffffffffffffffffffffffffffffffffffffff1673ffffffffffffffffffffffffffffffffffffffff16815260200190815260200160002083815481101515612cca57fe5b9060005260206000200181905550600660008673ffffffffffffffffffffffffffffffffffffffff1673ffffffffffffffffffffffffffffffffffffffff168152602001908152602001600020805480919060019003612d2a91906133f1565b50600060076000868152602001908152602001600020819055508260076000838152602001908152602001600020819055505050505050565b6000612d6f8383613206565b600660008473ffffffffffffffffffffffffffffffffffffffff1673ffffffffffffffffffffffffffffffffffffffff168152602001908152602001600020805490509050600660008473ffffffffffffffffffffffffffffffffffffffff1673ffffffffffffffffffffffffffffffffffffffff168152602001908152602001600020829080600181540180825580915050906001820390600052602060002001600090919290919091505550806007600084815260200190815260200160002081905550505050565b600073ffffffffffffffffffffffffffffffffffffffff168273ffffffffffffffffffffffffffffffffffffffff1614151515612e7657600080fd5b612e808282612d63565b8173ffffffffffffffffffffffffffffffffffffffff16600073ffffffffffffffffffffffffffffffffffffffff167fddf252ad1be2c89b69c2b068fc378daa952ba7f163c4a11628f55a4df523b3ef836040518082815260200191505060405180910390a35050565b600080612f0c8573ffffffffffffffffffffffffffffffffffffffff1661335e565b1515612f1b57600191506130cf565b8473ffffffffffffffffffffffffffffffffffffffff1663f0b9e5ba8786866040518463ffffffff167c0100000000000000000000000000000000000000000000000000000000028152600401808473ffffffffffffffffffffffffffffffffffffffff1673ffffffffffffffffffffffffffffffffffffffff16815260200183815260200180602001828103825283818151815260200191508051906020019080838360005b83811015612fdd578082015181840152602081019050612fc2565b50505050905090810190601f16801561300a5780820380516001836020036101000a031916815260200191505b50945050505050602060405180830381600087803b15801561302b57600080fd5b505af115801561303f573d6000803e3d6000fd5b505050506040513d602081101561305557600080fd5b8101908080519060200190929190505050905063f0b9e5ba7c0100000000000000000000000000000000000000000000000000000000027bffffffffffffffffffffffffffffffffffffffffffffffffffffffff1916817bffffffffffffffffffffffffffffffffffffffffffffffffffffffff19161491505b50949350505050565b8173ffffffffffffffffffffffffffffffffffffffff166130f882611856565b73ffffffffffffffffffffffffffffffffffffffff1614151561311a57600080fd5b61316d6001600260008573ffffffffffffffffffffffffffffffffffffffff1673ffffffffffffffffffffffffffffffffffffffff168152602001908152602001600020546128d990919063ffffffff16565b600260008473ffffffffffffffffffffffffffffffffffffffff1673ffffffffffffffffffffffffffffffffffffffff16815260200190815260200160002081905550600080600083815260200190815260200160002060006101000a81548173ffffffffffffffffffffffffffffffffffffffff021916908373ffffffffffffffffffffffffffffffffffffffff1602179055505050565b600073ffffffffffffffffffffffffffffffffffffffff1660008083815260200190815260200160002060009054906101000a900473ffffffffffffffffffffffffffffffffffffffff1673ffffffffffffffffffffffffffffffffffffffff1614151561327357600080fd5b8160008083815260200190815260200160002060006101000a81548173ffffffffffffffffffffffffffffffffffffffff021916908373ffffffffffffffffffffffffffffffffffffffff1602179055506133176001600260008573ffffffffffffffffffffffffffffffffffffffff1673ffffffffffffffffffffffffffffffffffffffff1681526020019081526020016000205461293190919063ffffffff16565b600260008473ffffffffffffffffffffffffffffffffffffffff1673ffffffffffffffffffffffffffffffffffffffff168152602001908152602001600020819055505050565b600080823b905060008111915050919050565b828054600181600116156101000203166002900490600052602060002090601f016020900481019282601f106133b257805160ff19168380011785556133e0565b828001600101855582156133e0579182015b828111156133df5782518255916020019190600101906133c4565b5b5090506133ed919061341d565b5090565b81548183558181111561341857818360005260206000209182019101613417919061341d565b5b505050565b61343f91905b8082111561343b576000816000905550600101613423565b5090565b905600a165627a7a7230582058bb87ef6155c047aa65b3a5bbf17ec5304c6a00cd894f6155ab72bc482419db0029",
  "source": "pragma solidity ^0.4.24;\n\nimport \"openzeppelin-solidity/contracts/token/ERC721/ERC721Token.sol\";\nimport \"openzeppelin-solidity/contracts/token/ERC20/ERC20.sol\";\nimport \"openzeppelin-solidity/contracts/math/SafeMath.sol\";\nimport \"./coordinator/ComplianceCoordinator.sol\";\n\n/**\n * @dev A collection of ERC20 and ERC721 assets represented as an ERC721 token.\n * Bundles are initialized in an unlocked state. Transfer of Bundles may only\n * occur when the Bundle is locked. When a Bundle is unlocked, transfer is forbidden.\n */\ncontract Bundle is ERC721Token {\n    using SafeMath for uint256;\n\n    uint256 nextTokenId = 1;\n\n    mapping (uint256 => mapping (address => uint256)) public erc20Assets;\n    mapping (uint256 => mapping (address => mapping (uint256 => bool))) public erc721Assets;\n    mapping (uint256 => bool) public locked;\n    mapping (uint256 => uint256) public complianceProviderIds;\n\n    event Create(uint256 indexed bundleId, address owner);\n    event DepositERC20(uint256 indexed bundleId, address token, uint256 amount);\n    event WithdrawERC20(uint256 indexed bundleId, address token, uint256 amount);\n    event DepositERC721(uint256 indexed bundleId, address token, uint256 id);\n    event WithdrawERC721(uint256 indexed bundleId, address token, uint256 id);\n    event Lock(uint256 indexed bundleId);\n    event Unlock(uint256 indexed bundleId);\n\n    ComplianceCoordinator complianceCoordinator;\n\n    constructor(\n        ComplianceCoordinator _complianceCoordinator\n    ) public ERC721Token(\"Bundle\", \"BND\")\n    {\n        complianceCoordinator = _complianceCoordinator;\n    }\n\n    /**\n     * @dev Creates a new Bundle that one may send tokens to.\n     */\n    function create(string _uri, uint256 _complianceProviderId) external returns (uint256) {\n        uint256 id = nextTokenId++;\n        _mint(msg.sender, id);\n        _setTokenURI(id, _uri);\n        complianceProviderIds[id] = _complianceProviderId;\n        emit Create(id, msg.sender);\n    }\n\n    /**\n     * @dev Allows one to inject ERC-20 assets into the Bundle.\n     */\n    function depositERC20Asset(\n        uint256 _bundleId, ERC20 _token, uint256 _amount\n    ) external returns (bool) {\n        if (locked[_bundleId]) {\n            return false;\n        }\n        if (!_token.transferFrom(msg.sender, this, _amount)) {\n            return false;\n        }\n        erc20Assets[_bundleId][_token] = erc20Assets[_bundleId][_token].add(_amount);\n        emit DepositERC20(_bundleId, _token, _amount);\n        return true;\n    }\n\n    /**\n     * @dev Allows the bundle owner to withdraw ERC-20 tokens from the Bundle.\n     */\n    function withdrawERC20Asset(\n        uint256 _bundleId, ERC20 _token, uint256 _amount\n    ) external returns (bool) {\n        if (msg.sender != ownerOf(_bundleId)) {\n            return false;\n        }\n        if (locked[_bundleId]) {\n            return false;\n        }\n        if (!_token.transfer(msg.sender, _amount)) {\n            return false;\n        }\n        erc20Assets[_bundleId][_token] = erc20Assets[_bundleId][_token].sub(_amount);\n        emit WithdrawERC20(_bundleId, _token, _amount);\n        return true;\n    }\n\n    /**\n     * @dev Allows one to inject ERC-721 assets into the Bundle.\n     */\n    function depositERC721Asset(\n        uint256 _bundleId, ERC721Basic _token, uint256 _id\n    ) external returns (bool) {\n        if (locked[_bundleId]) {\n            return false;\n        }\n        _token.transferFrom(msg.sender, this, _id);\n        erc721Assets[_bundleId][_token][_id] = true;\n        emit DepositERC721(_bundleId, _token, _id);\n        return true;\n    }\n\n    /**\n     * @dev Allows the bundle owner to withdraw ERC-721 tokens from the Bundle.\n     */\n    function withdrawERC721Asset(\n        uint256 _bundleId, ERC721Basic _token, uint256 _id\n    ) external returns (bool) {\n        if (msg.sender != ownerOf(_bundleId)) {\n            return false;\n        }\n        if (locked[_bundleId]) {\n            return false;\n        }\n        if (!erc721Assets[_bundleId][_token][_id]) {\n            return false;\n        }\n        _token.safeTransferFrom(this, msg.sender, _id);\n        erc721Assets[_bundleId][_token][_id] = false;\n        emit WithdrawERC721(_bundleId, _token, _id);\n        return true;\n    }\n\n    /**\n     * @dev Prevents assets from being added to the Bundle.\n     */\n    function lock(\n        uint256 _bundleId\n    ) external returns (bool) {\n        if (msg.sender != ownerOf(_bundleId)) {\n            return false;\n        }\n        locked[_bundleId] = true;\n        emit Lock(_bundleId);\n        return true;\n    }\n\n    /**\n     * @dev Allows assets to be added to the Bundle.\n     */\n    function unlock(\n        uint256 _bundleId\n    ) external returns (bool) {\n        if (msg.sender != ownerOf(_bundleId)) {\n            return false;\n        }\n        locked[_bundleId] = false;\n        emit Unlock(_bundleId);\n        return true;\n    }\n\n    function transferFrom(address _from, address _to, uint256 _tokenId) public {\n        require(locked[_tokenId]);\n        if (complianceProviderIds[_tokenId] != 0) {\n            uint256 result = complianceCoordinator.check(\n                complianceProviderIds[_tokenId],\n                this,\n                _tokenId,\n                _from,\n                _to,\n                bytes32(0)\n            );\n            if (result != 0) {\n                return;\n            }\n        }\n        super.transferFrom(_from, _to, _tokenId);\n    }\n\n    function safeTransferFrom(address _from, address _to, uint256 _tokenId) public {\n        require(locked[_tokenId]);\n        if (complianceProviderIds[_tokenId] != 0) {\n            uint256 result = complianceCoordinator.check(\n                complianceProviderIds[_tokenId],\n                this,\n                _tokenId,\n                _from,\n                _to,\n                bytes32(0)\n            );\n            if (result != 0) {\n                return;\n            }\n        }\n        super.safeTransferFrom(_from, _to, _tokenId);\n    }\n\n    function safeTransferFrom(\n        address _from,\n        address _to,\n        uint256 _tokenId,\n        bytes _data\n    ) public {\n        require(locked[_tokenId]);\n        if (complianceProviderIds[_tokenId] != 0) {\n            uint256 result = complianceCoordinator.check(\n                complianceProviderIds[_tokenId],\n                this,\n                _tokenId,\n                _from,\n                _to,\n                bytes32(0)\n            );\n            if (result != 0) {\n                return;\n            }\n        }\n        super.safeTransferFrom(_from, _to, _tokenId, _data);\n    }\n\n\n}",
  "sourcePath": "/home/ian/proj/abacusprotocol/protocol/contracts/protocol/Bundle.sol",
  "compiler": {
    "name": "solc",
    "version": "0.4.24+commit.e67f0147.Emscripten.clang"
  },
  "schemaVersion": "2.0.1",
  "updatedAt": "2018-08-02T06:02:22.551Z"
}