{
  "contractName": "Bundle",
  "abi": [
    {
      "constant": true,
      "inputs": [
        {
          "name": "interfaceId",
          "type": "bytes4"
        }
      ],
      "name": "supportsInterface",
      "outputs": [
        {
          "name": "",
          "type": "bool"
        }
      ],
      "payable": false,
      "stateMutability": "view",
      "type": "function"
    },
    {
      "constant": true,
      "inputs": [],
      "name": "name",
      "outputs": [
        {
          "name": "",
          "type": "string"
        }
      ],
      "payable": false,
      "stateMutability": "view",
      "type": "function"
    },
    {
      "constant": true,
      "inputs": [
        {
          "name": "tokenId",
          "type": "uint256"
        }
      ],
      "name": "getApproved",
      "outputs": [
        {
          "name": "",
          "type": "address"
        }
      ],
      "payable": false,
      "stateMutability": "view",
      "type": "function"
    },
    {
      "constant": false,
      "inputs": [
        {
          "name": "to",
          "type": "address"
        },
        {
          "name": "tokenId",
          "type": "uint256"
        }
      ],
      "name": "approve",
      "outputs": [],
      "payable": false,
      "stateMutability": "nonpayable",
      "type": "function"
    },
    {
      "constant": true,
      "inputs": [],
      "name": "totalSupply",
      "outputs": [
        {
          "name": "",
          "type": "uint256"
        }
      ],
      "payable": false,
      "stateMutability": "view",
      "type": "function"
    },
    {
      "constant": true,
      "inputs": [
        {
          "name": "",
          "type": "uint256"
        },
        {
          "name": "",
          "type": "address"
        },
        {
          "name": "",
          "type": "uint256"
        }
      ],
      "name": "erc721Assets",
      "outputs": [
        {
          "name": "",
          "type": "bool"
        }
      ],
      "payable": false,
      "stateMutability": "view",
      "type": "function"
    },
    {
      "constant": true,
      "inputs": [
        {
          "name": "owner",
          "type": "address"
        },
        {
          "name": "index",
          "type": "uint256"
        }
      ],
      "name": "tokenOfOwnerByIndex",
      "outputs": [
        {
          "name": "",
          "type": "uint256"
        }
      ],
      "payable": false,
      "stateMutability": "view",
      "type": "function"
    },
    {
      "constant": true,
      "inputs": [
        {
          "name": "",
          "type": "uint256"
        }
      ],
      "name": "complianceProviderIds",
      "outputs": [
        {
          "name": "",
          "type": "uint256"
        }
      ],
      "payable": false,
      "stateMutability": "view",
      "type": "function"
    },
    {
      "constant": true,
      "inputs": [
        {
          "name": "index",
          "type": "uint256"
        }
      ],
      "name": "tokenByIndex",
      "outputs": [
        {
          "name": "",
          "type": "uint256"
        }
      ],
      "payable": false,
      "stateMutability": "view",
      "type": "function"
    },
    {
      "constant": true,
      "inputs": [
        {
          "name": "tokenId",
          "type": "uint256"
        }
      ],
      "name": "ownerOf",
      "outputs": [
        {
          "name": "",
          "type": "address"
        }
      ],
      "payable": false,
      "stateMutability": "view",
      "type": "function"
    },
    {
      "constant": true,
      "inputs": [
        {
          "name": "owner",
          "type": "address"
        }
      ],
      "name": "balanceOf",
      "outputs": [
        {
          "name": "",
          "type": "uint256"
        }
      ],
      "payable": false,
      "stateMutability": "view",
      "type": "function"
    },
    {
      "constant": true,
      "inputs": [
        {
          "name": "",
          "type": "uint256"
        },
        {
          "name": "",
          "type": "address"
        }
      ],
      "name": "erc20Assets",
      "outputs": [
        {
          "name": "",
          "type": "uint256"
        }
      ],
      "payable": false,
      "stateMutability": "view",
      "type": "function"
    },
    {
      "constant": true,
      "inputs": [],
      "name": "symbol",
      "outputs": [
        {
          "name": "",
          "type": "string"
        }
      ],
      "payable": false,
      "stateMutability": "view",
      "type": "function"
    },
    {
      "constant": false,
      "inputs": [
        {
          "name": "to",
          "type": "address"
        },
        {
          "name": "approved",
          "type": "bool"
        }
      ],
      "name": "setApprovalForAll",
      "outputs": [],
      "payable": false,
      "stateMutability": "nonpayable",
      "type": "function"
    },
    {
      "constant": true,
      "inputs": [
        {
          "name": "",
          "type": "uint256"
        }
      ],
      "name": "locked",
      "outputs": [
        {
          "name": "",
          "type": "bool"
        }
      ],
      "payable": false,
      "stateMutability": "view",
      "type": "function"
    },
    {
      "constant": true,
      "inputs": [
        {
          "name": "tokenId",
          "type": "uint256"
        }
      ],
      "name": "tokenURI",
      "outputs": [
        {
          "name": "",
          "type": "string"
        }
      ],
      "payable": false,
      "stateMutability": "view",
      "type": "function"
    },
    {
      "constant": true,
      "inputs": [
        {
          "name": "owner",
          "type": "address"
        },
        {
          "name": "operator",
          "type": "address"
        }
      ],
      "name": "isApprovedForAll",
      "outputs": [
        {
          "name": "",
          "type": "bool"
        }
      ],
      "payable": false,
      "stateMutability": "view",
      "type": "function"
    },
    {
      "inputs": [
        {
          "name": "_complianceCoordinator",
          "type": "address"
        }
      ],
      "payable": false,
      "stateMutability": "nonpayable",
      "type": "constructor"
    },
    {
      "anonymous": false,
      "inputs": [
        {
          "indexed": true,
          "name": "bundleId",
          "type": "uint256"
        },
        {
          "indexed": false,
          "name": "owner",
          "type": "address"
        }
      ],
      "name": "Create",
      "type": "event"
    },
    {
      "anonymous": false,
      "inputs": [
        {
          "indexed": true,
          "name": "bundleId",
          "type": "uint256"
        },
        {
          "indexed": false,
          "name": "token",
          "type": "address"
        },
        {
          "indexed": false,
          "name": "amount",
          "type": "uint256"
        }
      ],
      "name": "DepositERC20",
      "type": "event"
    },
    {
      "anonymous": false,
      "inputs": [
        {
          "indexed": true,
          "name": "bundleId",
          "type": "uint256"
        },
        {
          "indexed": false,
          "name": "token",
          "type": "address"
        },
        {
          "indexed": false,
          "name": "amount",
          "type": "uint256"
        }
      ],
      "name": "WithdrawERC20",
      "type": "event"
    },
    {
      "anonymous": false,
      "inputs": [
        {
          "indexed": true,
          "name": "bundleId",
          "type": "uint256"
        },
        {
          "indexed": false,
          "name": "token",
          "type": "address"
        },
        {
          "indexed": false,
          "name": "id",
          "type": "uint256"
        }
      ],
      "name": "DepositERC721",
      "type": "event"
    },
    {
      "anonymous": false,
      "inputs": [
        {
          "indexed": true,
          "name": "bundleId",
          "type": "uint256"
        },
        {
          "indexed": false,
          "name": "token",
          "type": "address"
        },
        {
          "indexed": false,
          "name": "id",
          "type": "uint256"
        }
      ],
      "name": "WithdrawERC721",
      "type": "event"
    },
    {
      "anonymous": false,
      "inputs": [
        {
          "indexed": true,
          "name": "bundleId",
          "type": "uint256"
        }
      ],
      "name": "Lock",
      "type": "event"
    },
    {
      "anonymous": false,
      "inputs": [
        {
          "indexed": true,
          "name": "bundleId",
          "type": "uint256"
        }
      ],
      "name": "Unlock",
      "type": "event"
    },
    {
      "anonymous": false,
      "inputs": [
        {
          "indexed": true,
          "name": "from",
          "type": "address"
        },
        {
          "indexed": true,
          "name": "to",
          "type": "address"
        },
        {
          "indexed": true,
          "name": "tokenId",
          "type": "uint256"
        }
      ],
      "name": "Transfer",
      "type": "event"
    },
    {
      "anonymous": false,
      "inputs": [
        {
          "indexed": true,
          "name": "owner",
          "type": "address"
        },
        {
          "indexed": true,
          "name": "approved",
          "type": "address"
        },
        {
          "indexed": true,
          "name": "tokenId",
          "type": "uint256"
        }
      ],
      "name": "Approval",
      "type": "event"
    },
    {
      "anonymous": false,
      "inputs": [
        {
          "indexed": true,
          "name": "owner",
          "type": "address"
        },
        {
          "indexed": true,
          "name": "operator",
          "type": "address"
        },
        {
          "indexed": false,
          "name": "approved",
          "type": "bool"
        }
      ],
      "name": "ApprovalForAll",
      "type": "event"
    },
    {
      "constant": false,
      "inputs": [
        {
          "name": "_uri",
          "type": "string"
        },
        {
          "name": "_complianceProviderId",
          "type": "uint256"
        }
      ],
      "name": "create",
      "outputs": [
        {
          "name": "",
          "type": "uint256"
        }
      ],
      "payable": false,
      "stateMutability": "nonpayable",
      "type": "function"
    },
    {
      "constant": false,
      "inputs": [
        {
          "name": "_bundleId",
          "type": "uint256"
        },
        {
          "name": "_token",
          "type": "address"
        },
        {
          "name": "_amount",
          "type": "uint256"
        }
      ],
      "name": "depositERC20Asset",
      "outputs": [
        {
          "name": "",
          "type": "bool"
        }
      ],
      "payable": false,
      "stateMutability": "nonpayable",
      "type": "function"
    },
    {
      "constant": false,
      "inputs": [
        {
          "name": "_bundleId",
          "type": "uint256"
        },
        {
          "name": "_token",
          "type": "address"
        },
        {
          "name": "_amount",
          "type": "uint256"
        }
      ],
      "name": "withdrawERC20Asset",
      "outputs": [
        {
          "name": "",
          "type": "bool"
        }
      ],
      "payable": false,
      "stateMutability": "nonpayable",
      "type": "function"
    },
    {
      "constant": false,
      "inputs": [
        {
          "name": "_bundleId",
          "type": "uint256"
        },
        {
          "name": "_token",
          "type": "address"
        },
        {
          "name": "_id",
          "type": "uint256"
        }
      ],
      "name": "depositERC721Asset",
      "outputs": [
        {
          "name": "",
          "type": "bool"
        }
      ],
      "payable": false,
      "stateMutability": "nonpayable",
      "type": "function"
    },
    {
      "constant": false,
      "inputs": [
        {
          "name": "_bundleId",
          "type": "uint256"
        },
        {
          "name": "_token",
          "type": "address"
        },
        {
          "name": "_id",
          "type": "uint256"
        }
      ],
      "name": "withdrawERC721Asset",
      "outputs": [
        {
          "name": "",
          "type": "bool"
        }
      ],
      "payable": false,
      "stateMutability": "nonpayable",
      "type": "function"
    },
    {
      "constant": false,
      "inputs": [
        {
          "name": "_bundleId",
          "type": "uint256"
        }
      ],
      "name": "lock",
      "outputs": [
        {
          "name": "",
          "type": "bool"
        }
      ],
      "payable": false,
      "stateMutability": "nonpayable",
      "type": "function"
    },
    {
      "constant": false,
      "inputs": [
        {
          "name": "_bundleId",
          "type": "uint256"
        }
      ],
      "name": "unlock",
      "outputs": [
        {
          "name": "",
          "type": "bool"
        }
      ],
      "payable": false,
      "stateMutability": "nonpayable",
      "type": "function"
    },
    {
      "constant": false,
      "inputs": [
        {
          "name": "_from",
          "type": "address"
        },
        {
          "name": "_to",
          "type": "address"
        },
        {
          "name": "_tokenId",
          "type": "uint256"
        }
      ],
      "name": "transferFrom",
      "outputs": [],
      "payable": false,
      "stateMutability": "nonpayable",
      "type": "function"
    },
    {
      "constant": false,
      "inputs": [
        {
          "name": "_from",
          "type": "address"
        },
        {
          "name": "_to",
          "type": "address"
        },
        {
          "name": "_tokenId",
          "type": "uint256"
        }
      ],
      "name": "safeTransferFrom",
      "outputs": [],
      "payable": false,
      "stateMutability": "nonpayable",
      "type": "function"
    },
    {
      "constant": false,
      "inputs": [
        {
          "name": "_from",
          "type": "address"
        },
        {
          "name": "_to",
          "type": "address"
        },
        {
          "name": "_tokenId",
          "type": "uint256"
        },
        {
          "name": "_data",
          "type": "bytes"
        }
      ],
      "name": "safeTransferFrom",
      "outputs": [],
      "payable": false,
      "stateMutability": "nonpayable",
      "type": "function"
    }
  ],
  "bytecode": "0x60806040526001600c553480156200001657600080fd5b5060405160208062003722833981018060405281019080805190602001909291905050506040805190810160405280600681526020017f42756e646c6500000000000000000000000000000000000000000000000000008152506040805190810160405280600381526020017f424e4400000000000000000000000000000000000000000000000000000000008152508181620000e56301ffc9a77c0100000000000000000000000000000000000000000000000000000000026200021a640100000000026401000000009004565b620001226380ac58cd7c0100000000000000000000000000000000000000000000000000000000026200021a640100000000026401000000009004565b6200015f63780e9d637c0100000000000000000000000000000000000000000000000000000000026200021a640100000000026401000000009004565b816009908051906020019062000177929190620002d8565b5080600a908051906020019062000190929190620002d8565b50620001ce635b5e139f7c0100000000000000000000000000000000000000000000000000000000026200021a640100000000026401000000009004565b5050505080601160006101000a81548173ffffffffffffffffffffffffffffffffffffffff021916908373ffffffffffffffffffffffffffffffffffffffff1602179055505062000387565b63ffffffff7c010000000000000000000000000000000000000000000000000000000002817bffffffffffffffffffffffffffffffffffffffffffffffffffffffff1916141515156200026c57600080fd5b6001600080837bffffffffffffffffffffffffffffffffffffffffffffffffffffffff19167bffffffffffffffffffffffffffffffffffffffffffffffffffffffff1916815260200190815260200160002060006101000a81548160ff02191690831515021790555050565b828054600181600116156101000203166002900490600052602060002090601f016020900481019282601f106200031b57805160ff19168380011785556200034c565b828001600101855582156200034c579182015b828111156200034b5782518255916020019190600101906200032e565b5b5090506200035b91906200035f565b5090565b6200038491905b808211156200038057600081600090555060010162000366565b5090565b90565b61338b80620003976000396000f30060806040526004361061015f576000357c0100000000000000000000000000000000000000000000000000000000900463ffffffff16806301ffc9a71461016457806306fdde03146101c8578063081812fc14610258578063095ea7b3146102c557806318160ddd146103125780631ba49bc61461033d57806323b872dd146103ac5780632f745c59146104195780633683cdf81461047a57806342842e0e146104bb57806346f81a87146105285780634f6ccce7146105815780636198e339146105c2578063627116b4146106075780636352211e1461067657806370a08231146106e35780637530f0461461073a578063859a9b27146107a95780639089ef581461080a57806395d89b4114610879578063a22cb46514610909578063b45a3c0e14610958578063b88d4fde1461099d578063c87b56dd14610a50578063dd46706414610af6578063e985e9c514610b3b578063f7930bc414610bb6575b600080fd5b34801561017057600080fd5b506101ae60048036038101908080357bffffffffffffffffffffffffffffffffffffffffffffffffffffffff19169060200190929190505050610c25565b604051808215151515815260200191505060405180910390f35b3480156101d457600080fd5b506101dd610c8c565b6040518080602001828103825283818151815260200191508051906020019080838360005b8381101561021d578082015181840152602081019050610202565b50505050905090810190601f16801561024a5780820380516001836020036101000a031916815260200191505b509250505060405180910390f35b34801561026457600080fd5b5061028360048036038101908080359060200190929190505050610d2e565b604051808273ffffffffffffffffffffffffffffffffffffffff1673ffffffffffffffffffffffffffffffffffffffff16815260200191505060405180910390f35b3480156102d157600080fd5b50610310600480360381019080803573ffffffffffffffffffffffffffffffffffffffff16906020019092919080359060200190929190505050610d7f565b005b34801561031e57600080fd5b50610327610ec4565b6040518082815260200191505060405180910390f35b34801561034957600080fd5b5061039260048036038101908080359060200190929190803573ffffffffffffffffffffffffffffffffffffffff16906020019092919080359060200190929190505050610ed1565b604051808215151515815260200191505060405180910390f35b3480156103b857600080fd5b50610417600480360381019080803573ffffffffffffffffffffffffffffffffffffffff169060200190929190803573ffffffffffffffffffffffffffffffffffffffff16906020019092919080359060200190929190505050610f0d565b005b34801561042557600080fd5b50610464600480360381019080803573ffffffffffffffffffffffffffffffffffffffff16906020019092919080359060200190929190505050611113565b6040518082815260200191505060405180910390f35b34801561048657600080fd5b506104a56004803603810190808035906020019092919050505061118a565b6040518082815260200191505060405180910390f35b3480156104c757600080fd5b50610526600480360381019080803573ffffffffffffffffffffffffffffffffffffffff169060200190929190803573ffffffffffffffffffffffffffffffffffffffff169060200190929190803590602001909291905050506111a2565b005b34801561053457600080fd5b5061056b600480360381019080803590602001908201803590602001919091929391929390803590602001909291905050506113a8565b6040518082815260200191505060405180910390f35b34801561058d57600080fd5b506105ac60048036038101908080359060200190929190505050611488565b6040518082815260200191505060405180910390f35b3480156105ce57600080fd5b506105ed600480360381019080803590602001909291905050506114c0565b604051808215151515815260200191505060405180910390f35b34801561061357600080fd5b5061065c60048036038101908080359060200190929190803573ffffffffffffffffffffffffffffffffffffffff1690602001909291908035906020019092919050505061156b565b604051808215151515815260200191505060405180910390f35b34801561068257600080fd5b506106a1600480360381019080803590602001909291905050506117fe565b604051808273ffffffffffffffffffffffffffffffffffffffff1673ffffffffffffffffffffffffffffffffffffffff16815260200191505060405180910390f35b3480156106ef57600080fd5b50610724600480360381019080803573ffffffffffffffffffffffffffffffffffffffff16906020019092919050505061187c565b6040518082815260200191505060405180910390f35b34801561074657600080fd5b5061078f60048036038101908080359060200190929190803573ffffffffffffffffffffffffffffffffffffffff16906020019092919080359060200190929190505050611900565b604051808215151515815260200191505060405180910390f35b3480156107b557600080fd5b506107f460048036038101908080359060200190929190803573ffffffffffffffffffffffffffffffffffffffff169060200190929190505050611b12565b6040518082815260200191505060405180910390f35b34801561081657600080fd5b5061085f60048036038101908080359060200190929190803573ffffffffffffffffffffffffffffffffffffffff16906020019092919080359060200190929190505050611b37565b604051808215151515815260200191505060405180910390f35b34801561088557600080fd5b5061088e611e0d565b6040518080602001828103825283818151815260200191508051906020019080838360005b838110156108ce5780820151818401526020810190506108b3565b50505050905090810190601f1680156108fb5780820380516001836020036101000a031916815260200191505b509250505060405180910390f35b34801561091557600080fd5b50610956600480360381019080803573ffffffffffffffffffffffffffffffffffffffff169060200190929190803515159060200190929190505050611eaf565b005b34801561096457600080fd5b5061098360048036038101908080359060200190929190505050611feb565b604051808215151515815260200191505060405180910390f35b3480156109a957600080fd5b50610a4e600480360381019080803573ffffffffffffffffffffffffffffffffffffffff169060200190929190803573ffffffffffffffffffffffffffffffffffffffff16906020019092919080359060200190929190803590602001908201803590602001908080601f016020809104026020016040519081016040528093929190818152602001838380828437820191505050505050919291929050505061200b565b005b348015610a5c57600080fd5b50610a7b60048036038101908080359060200190929190505050612213565b6040518080602001828103825283818151815260200191508051906020019080838360005b83811015610abb578082015181840152602081019050610aa0565b50505050905090810190601f168015610ae85780820380516001836020036101000a031916815260200191505b509250505060405180910390f35b348015610b0257600080fd5b50610b21600480360381019080803590602001909291905050506122dc565b604051808215151515815260200191505060405180910390f35b348015610b4757600080fd5b50610b9c600480360381019080803573ffffffffffffffffffffffffffffffffffffffff169060200190929190803573ffffffffffffffffffffffffffffffffffffffff169060200190929190505050612387565b604051808215151515815260200191505060405180910390f35b348015610bc257600080fd5b50610c0b60048036038101908080359060200190929190803573ffffffffffffffffffffffffffffffffffffffff1690602001909291908035906020019092919050505061241b565b604051808215151515815260200191505060405180910390f35b6000806000837bffffffffffffffffffffffffffffffffffffffffffffffffffffffff19167bffffffffffffffffffffffffffffffffffffffffffffffffffffffff1916815260200190815260200160002060009054906101000a900460ff169050919050565b606060098054600181600116156101000203166002900480601f016020809104026020016040519081016040528092919081815260200182805460018160011615610100020316600290048015610d245780601f10610cf957610100808354040283529160200191610d24565b820191906000526020600020905b815481529060010190602001808311610d0757829003601f168201915b5050505050905090565b6000610d398261269c565b1515610d4457600080fd5b6002600083815260200190815260200160002060009054906101000a900473ffffffffffffffffffffffffffffffffffffffff169050919050565b6000610d8a826117fe565b90508073ffffffffffffffffffffffffffffffffffffffff168373ffffffffffffffffffffffffffffffffffffffff1614151515610dc757600080fd5b8073ffffffffffffffffffffffffffffffffffffffff163373ffffffffffffffffffffffffffffffffffffffff161480610e075750610e068133612387565b5b1515610e1257600080fd5b826002600084815260200190815260200160002060006101000a81548173ffffffffffffffffffffffffffffffffffffffff021916908373ffffffffffffffffffffffffffffffffffffffff160217905550818373ffffffffffffffffffffffffffffffffffffffff168273ffffffffffffffffffffffffffffffffffffffff167f8c5be1e5ebec7d5bd14f71427d1e84f3dd0314c0f7b2291e5b200ac8c7c3b92560405160405180910390a4505050565b6000600780549050905090565b600e602052826000526040600020602052816000526040600020602052806000526040600020600092509250509054906101000a900460ff1681565b6000600f600083815260200190815260200160002060009054906101000a900460ff161515610f3b57600080fd5b6000601060008481526020019081526020016000205414151561110157601160009054906101000a900473ffffffffffffffffffffffffffffffffffffffff1673ffffffffffffffffffffffffffffffffffffffff1663648e5dfd60106000858152602001908152602001600020543085888860006001026040518763ffffffff167c0100000000000000000000000000000000000000000000000000000000028152600401808781526020018673ffffffffffffffffffffffffffffffffffffffff1673ffffffffffffffffffffffffffffffffffffffff1681526020018581526020018473ffffffffffffffffffffffffffffffffffffffff1673ffffffffffffffffffffffffffffffffffffffff1681526020018373ffffffffffffffffffffffffffffffffffffffff1673ffffffffffffffffffffffffffffffffffffffff16815260200182600019166000191681526020019650505050505050602060405180830381600087803b1580156110b457600080fd5b505af11580156110c8573d6000803e3d6000fd5b505050506040513d60208110156110de57600080fd5b810190808051906020019092919050505090506000811415156111005761110d565b5b61110c84848461270e565b5b50505050565b600061111e8361187c565b8210151561112b57600080fd5b600560008473ffffffffffffffffffffffffffffffffffffffff1673ffffffffffffffffffffffffffffffffffffffff1681526020019081526020016000208281548110151561117757fe5b9060005260206000200154905092915050565b60106020528060005260406000206000915090505481565b6000600f600083815260200190815260200160002060009054906101000a900460ff1615156111d057600080fd5b6000601060008481526020019081526020016000205414151561139657601160009054906101000a900473ffffffffffffffffffffffffffffffffffffffff1673ffffffffffffffffffffffffffffffffffffffff1663648e5dfd60106000858152602001908152602001600020543085888860006001026040518763ffffffff167c0100000000000000000000000000000000000000000000000000000000028152600401808781526020018673ffffffffffffffffffffffffffffffffffffffff1673ffffffffffffffffffffffffffffffffffffffff1681526020018581526020018473ffffffffffffffffffffffffffffffffffffffff1673ffffffffffffffffffffffffffffffffffffffff1681526020018373ffffffffffffffffffffffffffffffffffffffff1673ffffffffffffffffffffffffffffffffffffffff16815260200182600019166000191681526020019650505050505050602060405180830381600087803b15801561134957600080fd5b505af115801561135d573d6000803e3d6000fd5b505050506040513d602081101561137357600080fd5b81019080805190602001909291905050509050600081141515611395576113a2565b5b6113a18484846127dd565b5b50505050565b600080600c60008154809291906001019190505590506113c833826127fe565b6114048186868080601f016020809104026020016040519081016040528093929190818152602001838380828437820191505050505050612855565b826010600083815260200190815260200160002081905550807f748fd6a01f0f0df2e8354235caf8fdf83654b5a47b2358be7e7bffb16b726ceb33604051808273ffffffffffffffffffffffffffffffffffffffff1673ffffffffffffffffffffffffffffffffffffffff16815260200191505060405180910390a2509392505050565b6000611492610ec4565b8210151561149f57600080fd5b6007828154811015156114ae57fe5b90600052602060002001549050919050565b60006114cb826117fe565b73ffffffffffffffffffffffffffffffffffffffff163373ffffffffffffffffffffffffffffffffffffffff161415156115085760009050611566565b6000600f600084815260200190815260200160002060006101000a81548160ff021916908315150217905550817f832a253ad4e9e88f705006a24d9957b8aa1de307a0f9d0a6ad5fd0b0ac81050560405160405180910390a2600190505b919050565b6000611576846117fe565b73ffffffffffffffffffffffffffffffffffffffff163373ffffffffffffffffffffffffffffffffffffffff161415156115b357600090506117f7565b600f600085815260200190815260200160002060009054906101000a900460ff16156115e257600090506117f7565b8273ffffffffffffffffffffffffffffffffffffffff1663a9059cbb33846040518363ffffffff167c0100000000000000000000000000000000000000000000000000000000028152600401808373ffffffffffffffffffffffffffffffffffffffff1673ffffffffffffffffffffffffffffffffffffffff16815260200182815260200192505050602060405180830381600087803b15801561168557600080fd5b505af1158015611699573d6000803e3d6000fd5b505050506040513d60208110156116af57600080fd5b810190808051906020019092919050505015156116cf57600090506117f7565b61173282600d600087815260200190815260200160002060008673ffffffffffffffffffffffffffffffffffffffff1673ffffffffffffffffffffffffffffffffffffffff1681526020019081526020016000205461289590919063ffffffff16565b600d600086815260200190815260200160002060008573ffffffffffffffffffffffffffffffffffffffff1673ffffffffffffffffffffffffffffffffffffffff16815260200190815260200160002081905550837f357f70a556e9cc649ac2f7187a705593ce01058fcc222baca5b0e3fb68c5bbf28484604051808373ffffffffffffffffffffffffffffffffffffffff1673ffffffffffffffffffffffffffffffffffffffff1681526020018281526020019250505060405180910390a2600190505b9392505050565b6000806001600084815260200190815260200160002060009054906101000a900473ffffffffffffffffffffffffffffffffffffffff169050600073ffffffffffffffffffffffffffffffffffffffff168173ffffffffffffffffffffffffffffffffffffffff161415151561187357600080fd5b80915050919050565b60008073ffffffffffffffffffffffffffffffffffffffff168273ffffffffffffffffffffffffffffffffffffffff16141515156118b957600080fd5b600360008373ffffffffffffffffffffffffffffffffffffffff1673ffffffffffffffffffffffffffffffffffffffff168152602001908152602001600020549050919050565b6000600f600085815260200190815260200160002060009054906101000a900460ff16156119315760009050611b0b565b8273ffffffffffffffffffffffffffffffffffffffff166323b872dd3330856040518463ffffffff167c0100000000000000000000000000000000000000000000000000000000028152600401808473ffffffffffffffffffffffffffffffffffffffff1673ffffffffffffffffffffffffffffffffffffffff1681526020018373ffffffffffffffffffffffffffffffffffffffff1673ffffffffffffffffffffffffffffffffffffffff1681526020018281526020019350505050600060405180830381600087803b158015611a0857600080fd5b505af1158015611a1c573d6000803e3d6000fd5b505050506001600e600086815260200190815260200160002060008573ffffffffffffffffffffffffffffffffffffffff1673ffffffffffffffffffffffffffffffffffffffff168152602001908152602001600020600084815260200190815260200160002060006101000a81548160ff021916908315150217905550837f2b797c66a8126707a48f7389d37d786369b16112a99786cbaba8df2100e535bd8484604051808373ffffffffffffffffffffffffffffffffffffffff1673ffffffffffffffffffffffffffffffffffffffff1681526020018281526020019250505060405180910390a2600190505b9392505050565b600d602052816000526040600020602052806000526040600020600091509150505481565b6000611b42846117fe565b73ffffffffffffffffffffffffffffffffffffffff163373ffffffffffffffffffffffffffffffffffffffff16141515611b7f5760009050611e06565b600f600085815260200190815260200160002060009054906101000a900460ff1615611bae5760009050611e06565b600e600085815260200190815260200160002060008473ffffffffffffffffffffffffffffffffffffffff1673ffffffffffffffffffffffffffffffffffffffff168152602001908152602001600020600083815260200190815260200160002060009054906101000a900460ff161515611c2c5760009050611e06565b8273ffffffffffffffffffffffffffffffffffffffff166342842e0e3033856040518463ffffffff167c0100000000000000000000000000000000000000000000000000000000028152600401808473ffffffffffffffffffffffffffffffffffffffff1673ffffffffffffffffffffffffffffffffffffffff1681526020018373ffffffffffffffffffffffffffffffffffffffff1673ffffffffffffffffffffffffffffffffffffffff1681526020018281526020019350505050600060405180830381600087803b158015611d0357600080fd5b505af1158015611d17573d6000803e3d6000fd5b505050506000600e600086815260200190815260200160002060008573ffffffffffffffffffffffffffffffffffffffff1673ffffffffffffffffffffffffffffffffffffffff168152602001908152602001600020600084815260200190815260200160002060006101000a81548160ff021916908315150217905550837f896bfff2c7d20b24d95894c46508fe26da89611bdeb455412d3d1db175f656758484604051808373ffffffffffffffffffffffffffffffffffffffff1673ffffffffffffffffffffffffffffffffffffffff1681526020018281526020019250505060405180910390a2600190505b9392505050565b6060600a8054600181600116156101000203166002900480601f016020809104026020016040519081016040528092919081815260200182805460018160011615610100020316600290048015611ea55780601f10611e7a57610100808354040283529160200191611ea5565b820191906000526020600020905b815481529060010190602001808311611e8857829003601f168201915b5050505050905090565b3373ffffffffffffffffffffffffffffffffffffffff168273ffffffffffffffffffffffffffffffffffffffff1614151515611eea57600080fd5b80600460003373ffffffffffffffffffffffffffffffffffffffff1673ffffffffffffffffffffffffffffffffffffffff16815260200190815260200160002060008473ffffffffffffffffffffffffffffffffffffffff1673ffffffffffffffffffffffffffffffffffffffff16815260200190815260200160002060006101000a81548160ff0219169083151502179055508173ffffffffffffffffffffffffffffffffffffffff163373ffffffffffffffffffffffffffffffffffffffff167f17307eab39ab6107e8899845ad3d59bd9653f200f220920489ca2b5937696c3183604051808215151515815260200191505060405180910390a35050565b600f6020528060005260406000206000915054906101000a900460ff1681565b6000600f600084815260200190815260200160002060009054906101000a900460ff16151561203957600080fd5b600060106000858152602001908152602001600020541415156121ff57601160009054906101000a900473ffffffffffffffffffffffffffffffffffffffff1673ffffffffffffffffffffffffffffffffffffffff1663648e5dfd60106000868152602001908152602001600020543086898960006001026040518763ffffffff167c0100000000000000000000000000000000000000000000000000000000028152600401808781526020018673ffffffffffffffffffffffffffffffffffffffff1673ffffffffffffffffffffffffffffffffffffffff1681526020018581526020018473ffffffffffffffffffffffffffffffffffffffff1673ffffffffffffffffffffffffffffffffffffffff1681526020018373ffffffffffffffffffffffffffffffffffffffff1673ffffffffffffffffffffffffffffffffffffffff16815260200182600019166000191681526020019650505050505050602060405180830381600087803b1580156121b257600080fd5b505af11580156121c6573d6000803e3d6000fd5b505050506040513d60208110156121dc57600080fd5b810190808051906020019092919050505090506000811415156121fe5761220c565b5b61220b858585856128b6565b5b5050505050565b606061221e8261269c565b151561222957600080fd5b600b60008381526020019081526020016000208054600181600116156101000203166002900480601f0160208091040260200160405190810160405280929190818152602001828054600181600116156101000203166002900480156122d05780601f106122a5576101008083540402835291602001916122d0565b820191906000526020600020905b8154815290600101906020018083116122b357829003601f168201915b50505050509050919050565b60006122e7826117fe565b73ffffffffffffffffffffffffffffffffffffffff163373ffffffffffffffffffffffffffffffffffffffff161415156123245760009050612382565b6001600f600084815260200190815260200160002060006101000a81548160ff021916908315150217905550817f57424d5909ad92dd80fbaa1967a047a5975a0e9bb94726d561734e667cdf422760405160405180910390a2600190505b919050565b6000600460008473ffffffffffffffffffffffffffffffffffffffff1673ffffffffffffffffffffffffffffffffffffffff16815260200190815260200160002060008373ffffffffffffffffffffffffffffffffffffffff1673ffffffffffffffffffffffffffffffffffffffff16815260200190815260200160002060009054906101000a900460ff16905092915050565b6000600f600085815260200190815260200160002060009054906101000a900460ff161561244c5760009050612695565b8273ffffffffffffffffffffffffffffffffffffffff166323b872dd3330856040518463ffffffff167c0100000000000000000000000000000000000000000000000000000000028152600401808473ffffffffffffffffffffffffffffffffffffffff1673ffffffffffffffffffffffffffffffffffffffff1681526020018373ffffffffffffffffffffffffffffffffffffffff1673ffffffffffffffffffffffffffffffffffffffff1681526020018281526020019350505050602060405180830381600087803b15801561252357600080fd5b505af1158015612537573d6000803e3d6000fd5b505050506040513d602081101561254d57600080fd5b8101908080519060200190929190505050151561256d5760009050612695565b6125d082600d600087815260200190815260200160002060008673ffffffffffffffffffffffffffffffffffffffff1673ffffffffffffffffffffffffffffffffffffffff168152602001908152602001600020546128de90919063ffffffff16565b600d600086815260200190815260200160002060008573ffffffffffffffffffffffffffffffffffffffff1673ffffffffffffffffffffffffffffffffffffffff16815260200190815260200160002081905550837fbe2434dd77fd26d69e78cf6aef6f09123c59da51eb8f8655ccc8ed443b0b8c458484604051808373ffffffffffffffffffffffffffffffffffffffff1673ffffffffffffffffffffffffffffffffffffffff1681526020018281526020019250505060405180910390a2600190505b9392505050565b6000806001600084815260200190815260200160002060009054906101000a900473ffffffffffffffffffffffffffffffffffffffff169050600073ffffffffffffffffffffffffffffffffffffffff168173ffffffffffffffffffffffffffffffffffffffff161415915050919050565b61271833826128ff565b151561272357600080fd5b600073ffffffffffffffffffffffffffffffffffffffff168273ffffffffffffffffffffffffffffffffffffffff161415151561275f57600080fd5b6127698382612994565b6127738382612a97565b61277d8282612c53565b808273ffffffffffffffffffffffffffffffffffffffff168473ffffffffffffffffffffffffffffffffffffffff167fddf252ad1be2c89b69c2b068fc378daa952ba7f163c4a11628f55a4df523b3ef60405160405180910390a4505050565b6127f9838383602060405190810160405280600081525061200b565b505050565b6128088282612d2a565b600780549050600860008381526020019081526020016000208190555060078190806001815401808255809150509060018203906000526020600020016000909192909190915055505050565b61285e8261269c565b151561286957600080fd5b80600b6000848152602001908152602001600020908051906020019061289092919061328e565b505050565b6000808383111515156128a757600080fd5b82840390508091505092915050565b6128c1848484610f0d565b6128cd84848484612dd0565b15156128d857600080fd5b50505050565b60008082840190508381101515156128f557600080fd5b8091505092915050565b60008061290b836117fe565b90508073ffffffffffffffffffffffffffffffffffffffff168473ffffffffffffffffffffffffffffffffffffffff16148061297a57508373ffffffffffffffffffffffffffffffffffffffff1661296284610d2e565b73ffffffffffffffffffffffffffffffffffffffff16145b8061298b575061298a8185612387565b5b91505092915050565b8173ffffffffffffffffffffffffffffffffffffffff166129b4826117fe565b73ffffffffffffffffffffffffffffffffffffffff161415156129d657600080fd5b600073ffffffffffffffffffffffffffffffffffffffff166002600083815260200190815260200160002060009054906101000a900473ffffffffffffffffffffffffffffffffffffffff1673ffffffffffffffffffffffffffffffffffffffff16141515612a935760006002600083815260200190815260200160002060006101000a81548173ffffffffffffffffffffffffffffffffffffffff021916908373ffffffffffffffffffffffffffffffffffffffff1602179055505b5050565b6000806000612aa68585612ff2565b60066000858152602001908152602001600020549250612b126001600560008873ffffffffffffffffffffffffffffffffffffffff1673ffffffffffffffffffffffffffffffffffffffff1681526020019081526020016000208054905061289590919063ffffffff16565b9150600560008673ffffffffffffffffffffffffffffffffffffffff1673ffffffffffffffffffffffffffffffffffffffff16815260200190815260200160002082815481101515612b6057fe5b9060005260206000200154905080600560008773ffffffffffffffffffffffffffffffffffffffff1673ffffffffffffffffffffffffffffffffffffffff16815260200190815260200160002084815481101515612bba57fe5b9060005260206000200181905550600560008673ffffffffffffffffffffffffffffffffffffffff1673ffffffffffffffffffffffffffffffffffffffff168152602001908152602001600020805480919060019003612c1a919061330e565b50600060066000868152602001908152602001600020819055508260066000838152602001908152602001600020819055505050505050565b6000612c5f8383613121565b600560008473ffffffffffffffffffffffffffffffffffffffff1673ffffffffffffffffffffffffffffffffffffffff168152602001908152602001600020805490509050600560008473ffffffffffffffffffffffffffffffffffffffff1673ffffffffffffffffffffffffffffffffffffffff168152602001908152602001600020829080600181540180825580915050906001820390600052602060002001600090919290919091505550806006600084815260200190815260200160002081905550505050565b600073ffffffffffffffffffffffffffffffffffffffff168273ffffffffffffffffffffffffffffffffffffffff1614151515612d6657600080fd5b612d708282612c53565b808273ffffffffffffffffffffffffffffffffffffffff16600073ffffffffffffffffffffffffffffffffffffffff167fddf252ad1be2c89b69c2b068fc378daa952ba7f163c4a11628f55a4df523b3ef60405160405180910390a45050565b600080612df28573ffffffffffffffffffffffffffffffffffffffff1661327b565b1515612e015760019150612fe9565b8473ffffffffffffffffffffffffffffffffffffffff1663150b7a02338887876040518563ffffffff167c0100000000000000000000000000000000000000000000000000000000028152600401808573ffffffffffffffffffffffffffffffffffffffff1673ffffffffffffffffffffffffffffffffffffffff1681526020018473ffffffffffffffffffffffffffffffffffffffff1673ffffffffffffffffffffffffffffffffffffffff16815260200183815260200180602001828103825283818151815260200191508051906020019080838360005b83811015612ef6578082015181840152602081019050612edb565b50505050905090810190601f168015612f235780820380516001836020036101000a031916815260200191505b5095505050505050602060405180830381600087803b158015612f4557600080fd5b505af1158015612f59573d6000803e3d6000fd5b505050506040513d6020811015612f6f57600080fd5b8101908080519060200190929190505050905063150b7a027c0100000000000000000000000000000000000000000000000000000000027bffffffffffffffffffffffffffffffffffffffffffffffffffffffff1916817bffffffffffffffffffffffffffffffffffffffffffffffffffffffff19161491505b50949350505050565b8173ffffffffffffffffffffffffffffffffffffffff16613012826117fe565b73ffffffffffffffffffffffffffffffffffffffff1614151561303457600080fd5b6130876001600360008573ffffffffffffffffffffffffffffffffffffffff1673ffffffffffffffffffffffffffffffffffffffff1681526020019081526020016000205461289590919063ffffffff16565b600360008473ffffffffffffffffffffffffffffffffffffffff1673ffffffffffffffffffffffffffffffffffffffff1681526020019081526020016000208190555060006001600083815260200190815260200160002060006101000a81548173ffffffffffffffffffffffffffffffffffffffff021916908373ffffffffffffffffffffffffffffffffffffffff1602179055505050565b600073ffffffffffffffffffffffffffffffffffffffff166001600083815260200190815260200160002060009054906101000a900473ffffffffffffffffffffffffffffffffffffffff1673ffffffffffffffffffffffffffffffffffffffff1614151561318f57600080fd5b816001600083815260200190815260200160002060006101000a81548173ffffffffffffffffffffffffffffffffffffffff021916908373ffffffffffffffffffffffffffffffffffffffff1602179055506132346001600360008573ffffffffffffffffffffffffffffffffffffffff1673ffffffffffffffffffffffffffffffffffffffff168152602001908152602001600020546128de90919063ffffffff16565b600360008473ffffffffffffffffffffffffffffffffffffffff1673ffffffffffffffffffffffffffffffffffffffff168152602001908152602001600020819055505050565b600080823b905060008111915050919050565b828054600181600116156101000203166002900490600052602060002090601f016020900481019282601f106132cf57805160ff19168380011785556132fd565b828001600101855582156132fd579182015b828111156132fc5782518255916020019190600101906132e1565b5b50905061330a919061333a565b5090565b81548183558181111561333557818360005260206000209182019101613334919061333a565b5b505050565b61335c91905b80821115613358576000816000905550600101613340565b5090565b905600a165627a7a72305820da18d78a3bac8171bb600612f5b7876d9437029203915509b30e5ba0f59c3a730029",
  "source": "pragma solidity ^0.4.24;\n\nimport \"openzeppelin-solidity/contracts/token/ERC721/ERC721Full.sol\";\nimport \"openzeppelin-solidity/contracts/token/ERC20/ERC20.sol\";\nimport \"openzeppelin-solidity/contracts/math/SafeMath.sol\";\nimport \"./coordinator/ComplianceCoordinator.sol\";\n\n/**\n * @dev A collection of ERC20 and ERC721 assets represented as an ERC721 token.\n * Bundles are initialized in an unlocked state. Transfer of Bundles may only\n * occur when the Bundle is locked. When a Bundle is unlocked, transfer is forbidden.\n */\ncontract Bundle is ERC721Full {\n    using SafeMath for uint256;\n\n    uint256 nextTokenId = 1;\n\n    mapping (uint256 => mapping (address => uint256)) public erc20Assets;\n    mapping (uint256 => mapping (address => mapping (uint256 => bool))) public erc721Assets;\n    mapping (uint256 => bool) public locked;\n    mapping (uint256 => uint256) public complianceProviderIds;\n\n    event Create(uint256 indexed bundleId, address owner);\n    event DepositERC20(uint256 indexed bundleId, address token, uint256 amount);\n    event WithdrawERC20(uint256 indexed bundleId, address token, uint256 amount);\n    event DepositERC721(uint256 indexed bundleId, address token, uint256 id);\n    event WithdrawERC721(uint256 indexed bundleId, address token, uint256 id);\n    event Lock(uint256 indexed bundleId);\n    event Unlock(uint256 indexed bundleId);\n\n    ComplianceCoordinator complianceCoordinator;\n\n    constructor(\n        ComplianceCoordinator _complianceCoordinator\n    ) public ERC721Full(\"Bundle\", \"BND\")\n    {\n        complianceCoordinator = _complianceCoordinator;\n    }\n\n    /**\n     * @dev Creates a new Bundle that one may send tokens to.\n     */\n    function create(string _uri, uint256 _complianceProviderId) external returns (uint256) {\n        uint256 id = nextTokenId++;\n        _mint(msg.sender, id);\n        _setTokenURI(id, _uri);\n        complianceProviderIds[id] = _complianceProviderId;\n        emit Create(id, msg.sender);\n    }\n\n    /**\n     * @dev Allows one to inject ERC-20 assets into the Bundle.\n     */\n    function depositERC20Asset(\n        uint256 _bundleId, ERC20 _token, uint256 _amount\n    ) external returns (bool) {\n        if (locked[_bundleId]) {\n            return false;\n        }\n        if (!_token.transferFrom(msg.sender, this, _amount)) {\n            return false;\n        }\n        erc20Assets[_bundleId][_token] = erc20Assets[_bundleId][_token].add(_amount);\n        emit DepositERC20(_bundleId, _token, _amount);\n        return true;\n    }\n\n    /**\n     * @dev Allows the bundle owner to withdraw ERC-20 tokens from the Bundle.\n     */\n    function withdrawERC20Asset(\n        uint256 _bundleId, ERC20 _token, uint256 _amount\n    ) external returns (bool) {\n        if (msg.sender != ownerOf(_bundleId)) {\n            return false;\n        }\n        if (locked[_bundleId]) {\n            return false;\n        }\n        if (!_token.transfer(msg.sender, _amount)) {\n            return false;\n        }\n        erc20Assets[_bundleId][_token] = erc20Assets[_bundleId][_token].sub(_amount);\n        emit WithdrawERC20(_bundleId, _token, _amount);\n        return true;\n    }\n\n    /**\n     * @dev Allows one to inject ERC-721 assets into the Bundle.\n     */\n    function depositERC721Asset(\n        uint256 _bundleId, ERC721 _token, uint256 _id\n    ) external returns (bool) {\n        if (locked[_bundleId]) {\n            return false;\n        }\n        _token.transferFrom(msg.sender, this, _id);\n        erc721Assets[_bundleId][_token][_id] = true;\n        emit DepositERC721(_bundleId, _token, _id);\n        return true;\n    }\n\n    /**\n     * @dev Allows the bundle owner to withdraw ERC-721 tokens from the Bundle.\n     */\n    function withdrawERC721Asset(\n        uint256 _bundleId, ERC721 _token, uint256 _id\n    ) external returns (bool) {\n        if (msg.sender != ownerOf(_bundleId)) {\n            return false;\n        }\n        if (locked[_bundleId]) {\n            return false;\n        }\n        if (!erc721Assets[_bundleId][_token][_id]) {\n            return false;\n        }\n        _token.safeTransferFrom(this, msg.sender, _id);\n        erc721Assets[_bundleId][_token][_id] = false;\n        emit WithdrawERC721(_bundleId, _token, _id);\n        return true;\n    }\n\n    /**\n     * @dev Prevents assets from being added to the Bundle.\n     */\n    function lock(\n        uint256 _bundleId\n    ) external returns (bool) {\n        if (msg.sender != ownerOf(_bundleId)) {\n            return false;\n        }\n        locked[_bundleId] = true;\n        emit Lock(_bundleId);\n        return true;\n    }\n\n    /**\n     * @dev Allows assets to be added to the Bundle.\n     */\n    function unlock(\n        uint256 _bundleId\n    ) external returns (bool) {\n        if (msg.sender != ownerOf(_bundleId)) {\n            return false;\n        }\n        locked[_bundleId] = false;\n        emit Unlock(_bundleId);\n        return true;\n    }\n\n    function transferFrom(address _from, address _to, uint256 _tokenId) public {\n        require(locked[_tokenId]);\n        if (complianceProviderIds[_tokenId] != 0) {\n            uint256 result = complianceCoordinator.check(\n                complianceProviderIds[_tokenId],\n                this,\n                _tokenId,\n                _from,\n                _to,\n                bytes32(0)\n            );\n            if (result != 0) {\n                return;\n            }\n        }\n        super.transferFrom(_from, _to, _tokenId);\n    }\n\n    function safeTransferFrom(address _from, address _to, uint256 _tokenId) public {\n        require(locked[_tokenId]);\n        if (complianceProviderIds[_tokenId] != 0) {\n            uint256 result = complianceCoordinator.check(\n                complianceProviderIds[_tokenId],\n                this,\n                _tokenId,\n                _from,\n                _to,\n                bytes32(0)\n            );\n            if (result != 0) {\n                return;\n            }\n        }\n        super.safeTransferFrom(_from, _to, _tokenId);\n    }\n\n    function safeTransferFrom(\n        address _from,\n        address _to,\n        uint256 _tokenId,\n        bytes _data\n    ) public {\n        require(locked[_tokenId]);\n        if (complianceProviderIds[_tokenId] != 0) {\n            uint256 result = complianceCoordinator.check(\n                complianceProviderIds[_tokenId],\n                this,\n                _tokenId,\n                _from,\n                _to,\n                bytes32(0)\n            );\n            if (result != 0) {\n                return;\n            }\n        }\n        super.safeTransferFrom(_from, _to, _tokenId, _data);\n    }\n\n\n}",
  "sourcePath": "/home/ian/proj/abacusfi/protocol/contracts/protocol/Bundle.sol",
  "compiler": {
    "name": "solc",
    "version": "0.4.24+commit.e67f0147.Emscripten.clang"
  },
  "schemaVersion": "2.0.1",
  "updatedAt": "2018-12-19T06:06:47.945Z"
}