{
  "contractName": "ComplianceCoordinator",
  "abi": [
    {
      "constant": true,
      "inputs": [],
      "name": "E_CASYNC_CHECK_NOT_EXPIRED",
      "outputs": [
        {
          "name": "",
          "type": "uint256"
        }
      ],
      "payable": false,
      "stateMutability": "view",
      "type": "function"
    },
    {
      "constant": true,
      "inputs": [],
      "name": "providerRegistry",
      "outputs": [
        {
          "name": "",
          "type": "address"
        }
      ],
      "payable": false,
      "stateMutability": "view",
      "type": "function"
    },
    {
      "constant": true,
      "inputs": [],
      "name": "E_CASYNC_CHECK_NOT_PERFORMED",
      "outputs": [
        {
          "name": "",
          "type": "uint256"
        }
      ],
      "payable": false,
      "stateMutability": "view",
      "type": "function"
    },
    {
      "inputs": [
        {
          "name": "_providerRegistry",
          "type": "address"
        }
      ],
      "payable": false,
      "stateMutability": "nonpayable",
      "type": "constructor"
    },
    {
      "anonymous": false,
      "inputs": [
        {
          "indexed": true,
          "name": "providerId",
          "type": "uint256"
        },
        {
          "indexed": false,
          "name": "providerVersion",
          "type": "uint256"
        },
        {
          "indexed": false,
          "name": "instrumentAddr",
          "type": "address"
        },
        {
          "indexed": false,
          "name": "instrumentIdOrAmt",
          "type": "uint256"
        },
        {
          "indexed": false,
          "name": "from",
          "type": "address"
        },
        {
          "indexed": false,
          "name": "to",
          "type": "address"
        },
        {
          "indexed": false,
          "name": "data",
          "type": "bytes32"
        },
        {
          "indexed": false,
          "name": "checkResult",
          "type": "uint256"
        }
      ],
      "name": "ComplianceCheckPerformed",
      "type": "event"
    },
    {
      "anonymous": false,
      "inputs": [
        {
          "indexed": true,
          "name": "providerId",
          "type": "uint256"
        },
        {
          "indexed": false,
          "name": "actionHash",
          "type": "uint256"
        },
        {
          "indexed": false,
          "name": "providerVersion",
          "type": "uint256"
        },
        {
          "indexed": false,
          "name": "blockToExpire",
          "type": "uint256"
        },
        {
          "indexed": false,
          "name": "checkResult",
          "type": "uint256"
        }
      ],
      "name": "ComplianceCheckResultWritten",
      "type": "event"
    },
    {
      "constant": false,
      "inputs": [
        {
          "name": "providerId",
          "type": "uint256"
        },
        {
          "name": "providerVersion",
          "type": "uint256"
        },
        {
          "name": "actionHash",
          "type": "uint256"
        },
        {
          "name": "blockToExpire",
          "type": "uint256"
        },
        {
          "name": "checkResult",
          "type": "uint256"
        }
      ],
      "name": "writeCheckResult",
      "outputs": [],
      "payable": false,
      "stateMutability": "nonpayable",
      "type": "function"
    },
    {
      "constant": false,
      "inputs": [
        {
          "name": "providerId",
          "type": "uint256"
        },
        {
          "name": "instrumentAddr",
          "type": "address"
        },
        {
          "name": "instrumentIdOrAmt",
          "type": "uint256"
        },
        {
          "name": "from",
          "type": "address"
        },
        {
          "name": "to",
          "type": "address"
        },
        {
          "name": "data",
          "type": "bytes32"
        }
      ],
      "name": "invalidateCheckResult",
      "outputs": [],
      "payable": false,
      "stateMutability": "nonpayable",
      "type": "function"
    },
    {
      "constant": true,
      "inputs": [
        {
          "name": "providerId",
          "type": "uint256"
        },
        {
          "name": "providerVersion",
          "type": "uint256"
        },
        {
          "name": "instrumentAddr",
          "type": "address"
        },
        {
          "name": "instrumentIdOrAmt",
          "type": "uint256"
        },
        {
          "name": "from",
          "type": "address"
        },
        {
          "name": "to",
          "type": "address"
        },
        {
          "name": "data",
          "type": "bytes32"
        }
      ],
      "name": "computeActionHash",
      "outputs": [
        {
          "name": "",
          "type": "uint256"
        }
      ],
      "payable": false,
      "stateMutability": "pure",
      "type": "function"
    },
    {
      "constant": false,
      "inputs": [
        {
          "name": "providerId",
          "type": "uint256"
        },
        {
          "name": "instrumentAddr",
          "type": "address"
        },
        {
          "name": "instrumentIdOrAmt",
          "type": "uint256"
        },
        {
          "name": "from",
          "type": "address"
        },
        {
          "name": "to",
          "type": "address"
        },
        {
          "name": "data",
          "type": "bytes32"
        }
      ],
      "name": "check",
      "outputs": [
        {
          "name": "",
          "type": "uint256"
        }
      ],
      "payable": false,
      "stateMutability": "nonpayable",
      "type": "function"
    }
  ],
  "bytecode": "0x608060405234801561001057600080fd5b506040516020806110af83398101806040528101908080519060200190929190505050806000806101000a81548173ffffffffffffffffffffffffffffffffffffffff021916908373ffffffffffffffffffffffffffffffffffffffff1602179055505061102c806100836000396000f300608060405260043610610083576000357c0100000000000000000000000000000000000000000000000000000000900463ffffffff168063256affba14610088578063545921d9146100b35780636237e61e1461010a578063648e5dfd1461013557806396008aca146101ee578063979405cc14610293578063c41d7c4d146102e8575b600080fd5b34801561009457600080fd5b5061009d6103ab565b6040518082815260200191505060405180910390f35b3480156100bf57600080fd5b506100c86103b0565b604051808273ffffffffffffffffffffffffffffffffffffffff1673ffffffffffffffffffffffffffffffffffffffff16815260200191505060405180910390f35b34801561011657600080fd5b5061011f6103d5565b6040518082815260200191505060405180910390f35b34801561014157600080fd5b506101d860048036038101908080359060200190929190803573ffffffffffffffffffffffffffffffffffffffff16906020019092919080359060200190929190803573ffffffffffffffffffffffffffffffffffffffff169060200190929190803573ffffffffffffffffffffffffffffffffffffffff16906020019092919080356000191690602001909291905050506103da565b6040518082815260200191505060405180910390f35b3480156101fa57600080fd5b5061029160048036038101908080359060200190929190803573ffffffffffffffffffffffffffffffffffffffff16906020019092919080359060200190929190803573ffffffffffffffffffffffffffffffffffffffff169060200190929190803573ffffffffffffffffffffffffffffffffffffffff1690602001909291908035600019169060200190929190505050610849565b005b34801561029f57600080fd5b506102e66004803603810190808035906020019092919080359060200190929190803590602001909291908035906020019092919080359060200190929190505050610a94565b005b3480156102f457600080fd5b506103956004803603810190808035906020019092919080359060200190929190803573ffffffffffffffffffffffffffffffffffffffff16906020019092919080359060200190929190803573ffffffffffffffffffffffffffffffffffffffff169060200190929190803573ffffffffffffffffffffffffffffffffffffffff1690602001909291908035600019169060200190929190505050610d3b565b6040518082815260200191505060405180910390f35b606581565b6000809054906101000a900473ffffffffffffffffffffffffffffffffffffffff1681565b606481565b6000806000806000806000809054906101000a900473ffffffffffffffffffffffffffffffffffffffff1673ffffffffffffffffffffffffffffffffffffffff16630faa2d608d6040518263ffffffff167c010000000000000000000000000000000000000000000000000000000002815260040180828152602001915050600060405180830381600087803b15801561047357600080fd5b505af1158015610487573d6000803e3d6000fd5b505050506040513d6000823e3d601f19601f8201168201806040525060c08110156104b157600080fd5b810190808051906020019092919080516401000000008111156104d357600080fd5b828101905060208101848111156104e957600080fd5b815185600182028301116401000000008211171561050657600080fd5b5050929190602001805164010000000081111561052257600080fd5b8281019050602081018481111561053857600080fd5b815185600182028301116401000000008211171561055557600080fd5b505092919060200180519060200190929190805190602001909291908051906020019092919050505090919293945090919293509091925080955081965082975050505082156105ea576105ad8c8c8c8c8c8c610eb9565b809250819350505060008214156105e55760016000828152602001908152602001600020600080820160009055600182016000905550505b610743565b8473ffffffffffffffffffffffffffffffffffffffff1663ea4000f88c8c8c8c8c6040518663ffffffff167c0100000000000000000000000000000000000000000000000000000000028152600401808673ffffffffffffffffffffffffffffffffffffffff1673ffffffffffffffffffffffffffffffffffffffff1681526020018581526020018473ffffffffffffffffffffffffffffffffffffffff1673ffffffffffffffffffffffffffffffffffffffff1681526020018373ffffffffffffffffffffffffffffffffffffffff1673ffffffffffffffffffffffffffffffffffffffff168152602001826000191660001916815260200195505050505050602060405180830381600087803b15801561070557600080fd5b505af1158015610719573d6000803e3d6000fd5b505050506040513d602081101561072f57600080fd5b810190808051906020019092919050505091505b8b7f66c49d7330813d11616c495e921b407a5342f935b524a7ad965884d425b4c8d1858d8d8d8d8d89604051808881526020018773ffffffffffffffffffffffffffffffffffffffff1673ffffffffffffffffffffffffffffffffffffffff1681526020018681526020018573ffffffffffffffffffffffffffffffffffffffff1673ffffffffffffffffffffffffffffffffffffffff1681526020018473ffffffffffffffffffffffffffffffffffffffff1673ffffffffffffffffffffffffffffffffffffffff168152602001836000191660001916815260200182815260200197505050505050505060405180910390a281955050505050509695505050505050565b600080610925886000809054906101000a900473ffffffffffffffffffffffffffffffffffffffff1673ffffffffffffffffffffffffffffffffffffffff1663bb6ec2ec8b6040518263ffffffff167c010000000000000000000000000000000000000000000000000000000002815260040180828152602001915050602060405180830381600087803b1580156108e057600080fd5b505af11580156108f4573d6000803e3d6000fd5b505050506040513d602081101561090a57600080fd5b81019080805190602001909291905050508989898989610d3b565b91506000809054906101000a900473ffffffffffffffffffffffffffffffffffffffff1673ffffffffffffffffffffffffffffffffffffffff1663b3687932896040518263ffffffff167c010000000000000000000000000000000000000000000000000000000002815260040180828152602001915050602060405180830381600087803b1580156109b757600080fd5b505af11580156109cb573d6000803e3d6000fd5b505050506040513d60208110156109e157600080fd5b810190808051906020019092919050505090508073ffffffffffffffffffffffffffffffffffffffff163373ffffffffffffffffffffffffffffffffffffffff161480610a5957508673ffffffffffffffffffffffffffffffffffffffff163373ffffffffffffffffffffffffffffffffffffffff16145b1515610a6457600080fd5b60016000838152602001908152602001600020600080820160009055600182016000905550505050505050505050565b60008060008060009054906101000a900473ffffffffffffffffffffffffffffffffffffffff1673ffffffffffffffffffffffffffffffffffffffff16630faa2d60896040518263ffffffff167c010000000000000000000000000000000000000000000000000000000002815260040180828152602001915050600060405180830381600087803b158015610b2957600080fd5b505af1158015610b3d573d6000803e3d6000fd5b505050506040513d6000823e3d601f19601f8201168201806040525060c0811015610b6757600080fd5b81019080805190602001909291908051640100000000811115610b8957600080fd5b82810190506020810184811115610b9f57600080fd5b8151856001820283011164010000000082111715610bbc57600080fd5b50509291906020018051640100000000811115610bd857600080fd5b82810190506020810184811115610bee57600080fd5b8151856001820283011164010000000082111715610c0b57600080fd5b50509291906020018051906020019092919080519060200190929190805190602001909291905050509091929350909192505080935081945082955050505060008314151515610c5a57600080fd5b8681141515610c6857600080fd5b8173ffffffffffffffffffffffffffffffffffffffff163373ffffffffffffffffffffffffffffffffffffffff16141515610ca257600080fd5b604080519081016040528086815260200185815250600160008881526020019081526020016000206000820151816000015560208201518160010155905050877f7f8cf2e335b40418fa70cff2e484883a1d1f2f9fae91138b50f3ea36ca725ed7878988886040518085815260200184815260200183815260200182815260200194505050505060405180910390a25050505050505050565b600087878787878787604051602001808881526020018781526020018673ffffffffffffffffffffffffffffffffffffffff1673ffffffffffffffffffffffffffffffffffffffff166c010000000000000000000000000281526014018581526020018473ffffffffffffffffffffffffffffffffffffffff1673ffffffffffffffffffffffffffffffffffffffff166c010000000000000000000000000281526014018373ffffffffffffffffffffffffffffffffffffffff1673ffffffffffffffffffffffffffffffffffffffff166c0100000000000000000000000002815260140182600019166000191681526020019750505050505050506040516020818303038152906040526040518082805190602001908083835b602083101515610e7b5780518252602082019150602081019050602083039250610e56565b6001836020036101000a0380198251168184511680821785525050505050509050019150506040518091039020600190049050979650505050505050565b600080600080610f988a6000809054906101000a900473ffffffffffffffffffffffffffffffffffffffff1673ffffffffffffffffffffffffffffffffffffffff1663bb6ec2ec8d6040518263ffffffff167c010000000000000000000000000000000000000000000000000000000002815260040180828152602001915050602060405180830381600087803b158015610f5357600080fd5b505af1158015610f67573d6000803e3d6000fd5b505050506040513d6020811015610f7d57600080fd5b81019080805190602001909291905050508b8b8b8b8b610d3b565b9150600160008381526020019081526020016000209050600081600001541415610fcc576064600080905093509350610ff3565b4381600001541015610fe8576065600080905093509350610ff3565b806001015482935093505b50509650969450505050505600a165627a7a723058202510189a51cdc8d9ce6402a6727dcd3e80ae8835ba249eab5eded5d2f6d97d4b0029",
  "source": "pragma solidity ^0.4.24;\n\nimport \"openzeppelin-solidity/contracts/ownership/Ownable.sol\";\nimport \"../ProviderRegistry.sol\";\nimport \"../../library/compliance/ComplianceStandard.sol\";\n\n/**\n * Registry for compliance providers.\n */\ncontract ComplianceCoordinator {\n    ProviderRegistry public providerRegistry;\n\n    constructor(ProviderRegistry _providerRegistry) public  {\n        providerRegistry = _providerRegistry;\n    }\n\n    struct CheckResult {\n        /**\n         * @dev Block when this check status has expired. 0 if we haven't writen.\n         */\n        uint256 blockToExpire;\n\n        /**\n         * @dev Result of the check. 0 indicates success, non-zero is left to the caller.\n         */\n        uint256 checkResult;\n    }\n\n    /**\n     * @dev Mapping of action hash to the check result.\n     */\n    mapping(uint256 => CheckResult) checkResults;\n\n    /**\n     * @dev Emitted when a compliance check is performed.\n     *\n     * @param providerId The id of the provider.\n     * @param providerVersion The version of the provider.\n     * @param instrumentAddr The address of the instrument contract.\n     * @param instrumentIdOrAmt The instrument id (NFT) or amount (ERC20).\n     * @param from The from address of the token transfer.\n     * @param to The to address of the token transfer.\n     * @param data Any additional data related to the action.\n     * @param checkResult The result of the compliance check.\n     */\n    event ComplianceCheckPerformed(\n        uint256 indexed providerId,\n        uint256 providerVersion,\n        address instrumentAddr,\n        uint256 instrumentIdOrAmt,\n        address from,\n        address to,\n        bytes32 data,\n        uint256 checkResult\n    );\n\n    /**\n     * @dev Emitted when the result of an asynchronous compliance check is written.\n     *\n     * @param providerId The id of the compliance check request.\n     * @param blockToExpire The block in which the compliance check result expires.\n     * @param checkResult The result of the compliance check.\n     */\n    event ComplianceCheckResultWritten(\n        uint256 indexed providerId,\n        uint256 actionHash,\n        uint256 providerVersion,\n        uint256 blockToExpire,\n        uint256 checkResult\n    );\n\n    /**\n     * @dev Writes the result of an asynchronous compliance check to the blockchain.\n     *\n     * @param blockToExpire The block in which the compliance check result expires.\n     * @param checkResult The result of the compliance check.\n     */\n    function writeCheckResult(\n        uint256 providerId,\n        uint256 providerVersion,\n        uint256 actionHash,\n        uint256 blockToExpire,\n        uint256 checkResult\n    ) external\n    {\n        uint256 id;\n        address owner;\n        uint256 version;\n        (id,,, owner,version,) = providerRegistry.latestProvider(providerId);\n\n        // Check service exists\n        require(id != 0);\n        // Check provider version is correct\n        require(version == providerVersion);\n        // Check service owner is correct\n        require(msg.sender == owner);\n\n        // Overwrite existing action\n        checkResults[actionHash] = CheckResult({\n            blockToExpire: blockToExpire,\n            checkResult: checkResult\n        });\n\n        emit ComplianceCheckResultWritten({\n            providerId: providerId,\n            actionHash: actionHash,\n            providerVersion: providerVersion,\n            blockToExpire: blockToExpire,\n            checkResult: checkResult\n        });\n    }\n\n    /**\n     * @dev Invalidates a stored asynchronous compliance check result.\n     * This can only be called by the owner of the provider or by the instrument that\n     * requested the compliance check.\n     */\n    function invalidateCheckResult(\n        uint256 providerId,\n        address instrumentAddr,\n        uint256 instrumentIdOrAmt,\n        address from,\n        address to,\n        bytes32 data\n    ) external\n    {\n        uint256 actionHash = computeActionHash(\n            providerId,\n            providerRegistry.latestProviderVersion(providerId),\n            instrumentAddr,\n            instrumentIdOrAmt,\n            from,\n            to,\n            data\n        );\n        address owner = providerRegistry.providerOwner(providerId);\n        require(msg.sender == owner || msg.sender == instrumentAddr);\n        delete checkResults[actionHash];\n    }\n\n    /**\n     * @dev Computes an id for an action using keccak256.\n     */\n    function computeActionHash(\n        uint256 providerId,\n        uint256 providerVersion,\n        address instrumentAddr,\n        uint256 instrumentIdOrAmt,\n        address from,\n        address to,\n        bytes32 data\n    ) pure public returns (uint256)\n    {\n        return uint256(\n            keccak256(\n                abi.encodePacked(\n                    providerId,\n                    providerVersion,\n                    instrumentAddr,\n                    instrumentIdOrAmt,\n                    from,\n                    to,\n                    data\n                )\n            )\n        );\n    }\n\n    uint256 constant public E_CASYNC_CHECK_NOT_PERFORMED = 100;\n    uint256 constant public E_CASYNC_CHECK_NOT_EXPIRED = 101;\n\n    /**\n     * @dev Checks the result of an async service.\n     * Assumes the service is async. Check your preconditions before calling.\n     */\n    function checkAsync(\n        uint256 providerId,\n        address instrumentAddr,\n        uint256 instrumentIdOrAmt,\n        address from,\n        address to,\n        bytes32 data\n    ) view private returns (uint256, uint256)\n    {\n        uint256 actionHash = computeActionHash(\n            providerId,\n            providerRegistry.latestProviderVersion(providerId),\n            instrumentAddr,\n            instrumentIdOrAmt,\n            from,\n            to,\n            data\n        );\n        CheckResult storage result = checkResults[actionHash];\n\n        // Check that the status check has been performed.\n        if (result.blockToExpire == 0) {\n            return (E_CASYNC_CHECK_NOT_PERFORMED, 0);\n        }\n\n        // Check that the status check has not expired. \n        if (result.blockToExpire < block.number) {\n            return (E_CASYNC_CHECK_NOT_EXPIRED, 0);\n        }\n\n        return (result.checkResult, actionHash);\n    }\n\n    /**\n     * @dev Performs a compliance check.\n     */\n    function check(\n        uint256 providerId,\n        address instrumentAddr,\n        uint256 instrumentIdOrAmt,\n        address from,\n        address to,\n        bytes32 data\n    ) public returns (uint256)\n    {\n        address owner;\n        uint256 providerVersion;\n        bool isAsync;\n        (,,, owner, providerVersion, isAsync) = providerRegistry.latestProvider(providerId);\n\n        uint256 checkResult;\n        if (isAsync) {\n            uint256 actionHash;\n            // Async checks\n            (checkResult, actionHash) = checkAsync(\n                providerId,\n                instrumentAddr,\n                instrumentIdOrAmt,\n                from,\n                to,\n                data\n            );\n            // Invalidate check result if successful check.\n            if (checkResult == 0) {\n                delete checkResults[actionHash];\n            }\n        } else {\n            // Sync checks -- call method on compliance standard\n            checkResult = ComplianceStandard(owner).performCheck(\n                instrumentAddr,\n                instrumentIdOrAmt,\n                from,\n                to,\n                data\n            );\n        }\n\n        emit ComplianceCheckPerformed({\n            providerId: providerId,\n            providerVersion: providerVersion,\n            instrumentAddr: instrumentAddr,\n            instrumentIdOrAmt: instrumentIdOrAmt,\n            from: from,\n            to: to,\n            data: data,\n            checkResult: checkResult\n        });\n        return checkResult;\n    }\n\n}\n",
  "sourcePath": "/home/ian/proj/abacusfi/protocol/contracts/protocol/coordinator/ComplianceCoordinator.sol",
  "compiler": {
    "name": "solc",
    "version": "0.4.24+commit.e67f0147.Emscripten.clang"
  },
  "schemaVersion": "2.0.1",
  "updatedAt": "2018-12-19T06:06:48.329Z"
}