{
  "contractName": "DelegateCS",
  "abi": [
    {
      "constant": true,
      "inputs": [
        {
          "name": "addr",
          "type": "address"
        },
        {
          "name": "roleName",
          "type": "string"
        }
      ],
      "name": "checkRole",
      "outputs": [],
      "payable": false,
      "stateMutability": "view",
      "type": "function"
    },
    {
      "constant": false,
      "inputs": [
        {
          "name": "admin",
          "type": "address"
        }
      ],
      "name": "removeAdmin",
      "outputs": [],
      "payable": false,
      "stateMutability": "nonpayable",
      "type": "function"
    },
    {
      "constant": true,
      "inputs": [
        {
          "name": "addr",
          "type": "address"
        },
        {
          "name": "roleName",
          "type": "string"
        }
      ],
      "name": "hasRole",
      "outputs": [
        {
          "name": "",
          "type": "bool"
        }
      ],
      "payable": false,
      "stateMutability": "view",
      "type": "function"
    },
    {
      "constant": false,
      "inputs": [
        {
          "name": "name",
          "type": "string"
        },
        {
          "name": "metadata",
          "type": "string"
        },
        {
          "name": "isAsync",
          "type": "bool"
        }
      ],
      "name": "registerProvider",
      "outputs": [
        {
          "name": "",
          "type": "uint256"
        }
      ],
      "payable": false,
      "stateMutability": "nonpayable",
      "type": "function"
    },
    {
      "constant": false,
      "inputs": [
        {
          "name": "newAdmin",
          "type": "address"
        }
      ],
      "name": "addAdmin",
      "outputs": [],
      "payable": false,
      "stateMutability": "nonpayable",
      "type": "function"
    },
    {
      "constant": true,
      "inputs": [],
      "name": "providerId",
      "outputs": [
        {
          "name": "",
          "type": "uint256"
        }
      ],
      "payable": false,
      "stateMutability": "view",
      "type": "function"
    },
    {
      "constant": true,
      "inputs": [],
      "name": "ROLE_ADMIN",
      "outputs": [
        {
          "name": "",
          "type": "string"
        }
      ],
      "payable": false,
      "stateMutability": "view",
      "type": "function"
    },
    {
      "constant": false,
      "inputs": [
        {
          "name": "nextMetadata",
          "type": "string"
        },
        {
          "name": "nextProvider",
          "type": "address"
        },
        {
          "name": "nextIsAsync",
          "type": "bool"
        }
      ],
      "name": "performUpgrade",
      "outputs": [
        {
          "name": "",
          "type": "bool"
        }
      ],
      "payable": false,
      "stateMutability": "nonpayable",
      "type": "function"
    },
    {
      "inputs": [
        {
          "name": "_providerRegistry",
          "type": "address"
        },
        {
          "name": "_providerId",
          "type": "uint256"
        },
        {
          "name": "_delegateProviderId",
          "type": "uint256"
        },
        {
          "name": "_complianceCoordinator",
          "type": "address"
        }
      ],
      "payable": false,
      "stateMutability": "nonpayable",
      "type": "constructor"
    },
    {
      "anonymous": false,
      "inputs": [
        {
          "indexed": false,
          "name": "addr",
          "type": "address"
        },
        {
          "indexed": false,
          "name": "roleName",
          "type": "string"
        }
      ],
      "name": "RoleAdded",
      "type": "event"
    },
    {
      "anonymous": false,
      "inputs": [
        {
          "indexed": false,
          "name": "addr",
          "type": "address"
        },
        {
          "indexed": false,
          "name": "roleName",
          "type": "string"
        }
      ],
      "name": "RoleRemoved",
      "type": "event"
    },
    {
      "constant": false,
      "inputs": [
        {
          "name": "user",
          "type": "address"
        }
      ],
      "name": "allow",
      "outputs": [
        {
          "name": "",
          "type": "bool"
        }
      ],
      "payable": false,
      "stateMutability": "nonpayable",
      "type": "function"
    },
    {
      "constant": false,
      "inputs": [
        {
          "name": "instrumentAddr",
          "type": "address"
        },
        {
          "name": "instrumentIdOrAmt",
          "type": "uint256"
        },
        {
          "name": "from",
          "type": "address"
        },
        {
          "name": "to",
          "type": "address"
        },
        {
          "name": "data",
          "type": "bytes32"
        }
      ],
      "name": "performCheck",
      "outputs": [
        {
          "name": "",
          "type": "uint256"
        }
      ],
      "payable": false,
      "stateMutability": "nonpayable",
      "type": "function"
    }
  ],
  "bytecode": "0x6080604052600060045534801561001557600080fd5b506040516080806114b583398101806040528101908080519060200190929190805190602001909291908051906020019092919080519060200190929190505050838381600260006101000a81548173ffffffffffffffffffffffffffffffffffffffff021916908373ffffffffffffffffffffffffffffffffffffffff160217905550806001819055506100ee336040805190810160405280600581526020017f61646d696e000000000000000000000000000000000000000000000000000000815250610199640100000000026401000000009004565b5050816005819055506001600360003373ffffffffffffffffffffffffffffffffffffffff1673ffffffffffffffffffffffffffffffffffffffff16815260200190815260200160002060006101000a81548160ff02191690831515021790555080600660006101000a81548173ffffffffffffffffffffffffffffffffffffffff021916908373ffffffffffffffffffffffffffffffffffffffff16021790555050505050610355565b610223826000836040518082805190602001908083835b6020831015156101d557805182526020820191506020810190506020830392506101b0565b6001836020036101000a03801982511681845116808217855250505050505090500191505090815260200160405180910390206102f7640100000000026110c7179091906401000000009004565b7fbfec83d64eaa953f2708271a023ab9ee82057f8f3578d548c1a4ba0b5b7004898282604051808373ffffffffffffffffffffffffffffffffffffffff1673ffffffffffffffffffffffffffffffffffffffff16815260200180602001828103825283818151815260200191508051906020019080838360005b838110156102b857808201518184015260208101905061029d565b50505050905090810190601f1680156102e55780820380516001836020036101000a031916815260200191505b50935050505060405180910390a15050565b60018260000160008373ffffffffffffffffffffffffffffffffffffffff1673ffffffffffffffffffffffffffffffffffffffff16815260200190815260200160002060006101000a81548160ff0219169083151502179055505050565b611151806103646000396000f3006080604052600436106100a4576000357c0100000000000000000000000000000000000000000000000000000000900463ffffffff1680630988ca8c146100a95780631785f53c14610132578063217fe6c6146101755780632c93186a1461021657806370480275146102895780638490a8df146102cc578063d391014b146102f7578063e5006aac14610387578063ea4000f814610406578063ff9913e8146104b5575b600080fd5b3480156100b557600080fd5b50610130600480360381019080803573ffffffffffffffffffffffffffffffffffffffff169060200190929190803590602001908201803590602001908080601f0160208091040260200160405190810160405280939291908181526020018383808284378201915050505050509192919290505050610510565b005b34801561013e57600080fd5b50610173600480360381019080803573ffffffffffffffffffffffffffffffffffffffff169060200190929190505050610591565b005b34801561018157600080fd5b506101fc600480360381019080803573ffffffffffffffffffffffffffffffffffffffff169060200190929190803590602001908201803590602001908080601f0160208091040260200160405190810160405280939291908181526020018383808284378201915050505050509192919290505050610614565b604051808215151515815260200191505060405180910390f35b34801561022257600080fd5b5061027360048036038101908080359060200190820180359060200191909192939192939080359060200190820180359060200191909192939192939080351515906020019092919050505061069b565b6040518082815260200191505060405180910390f35b34801561029557600080fd5b506102ca600480360381019080803573ffffffffffffffffffffffffffffffffffffffff169060200190929190505050610850565b005b3480156102d857600080fd5b506102e16108d3565b6040518082815260200191505060405180910390f35b34801561030357600080fd5b5061030c6108d9565b6040518080602001828103825283818151815260200191508051906020019080838360005b8381101561034c578082015181840152602081019050610331565b50505050905090810190601f1680156103795780820380516001836020036101000a031916815260200191505b509250505060405180910390f35b34801561039357600080fd5b506103ec600480360381019080803590602001908201803590602001919091929391929390803573ffffffffffffffffffffffffffffffffffffffff169060200190929190803515159060200190929190505050610912565b604051808215151515815260200191505060405180910390f35b34801561041257600080fd5b5061049f600480360381019080803573ffffffffffffffffffffffffffffffffffffffff16906020019092919080359060200190929190803573ffffffffffffffffffffffffffffffffffffffff169060200190929190803573ffffffffffffffffffffffffffffffffffffffff1690602001909291908035600019169060200190929190505050610a8f565b6040518082815260200191505060405180910390f35b3480156104c157600080fd5b506104f6600480360381019080803573ffffffffffffffffffffffffffffffffffffffff169060200190929190505050610cf6565b604051808215151515815260200191505060405180910390f35b61058d826000836040518082805190602001908083835b60208310151561054c5780518252602082019150602081019050602083039250610527565b6001836020036101000a0380198251168184511680821785525050505050509050019150509081526020016040518091039020610d5590919063ffffffff16565b5050565b6040805190810160405280600581526020017f61646d696e0000000000000000000000000000000000000000000000000000008152506105d13382610510565b610610826040805190810160405280600581526020017f61646d696e000000000000000000000000000000000000000000000000000000815250610d6e565b5050565b6000610693836000846040518082805190602001908083835b602083101515610652578051825260208201915060208101905060208303925061062d565b6001836020036101000a0380198251168184511680821785525050505050509050019150509081526020016040518091039020610ebf90919063ffffffff16565b905092915050565b60006040805190810160405280600581526020017f61646d696e0000000000000000000000000000000000000000000000000000008152506106dd3382610510565b60006001541415156106f25760009150610846565b600260009054906101000a900473ffffffffffffffffffffffffffffffffffffffff1673ffffffffffffffffffffffffffffffffffffffff1663c48afd098888888830896040518763ffffffff167c01000000000000000000000000000000000000000000000000000000000281526004018080602001806020018573ffffffffffffffffffffffffffffffffffffffff1673ffffffffffffffffffffffffffffffffffffffff16815260200184151515158152602001838103835289898281815260200192508082843782019150508381038252878782818152602001925080828437820191505098505050505050505050602060405180830381600087803b1580156107ff57600080fd5b505af1158015610813573d6000803e3d6000fd5b505050506040513d602081101561082957600080fd5b810190808051906020019092919050505060018190555060015491505b5095945050505050565b6040805190810160405280600581526020017f61646d696e0000000000000000000000000000000000000000000000000000008152506108903382610510565b6108cf826040805190810160405280600581526020017f61646d696e000000000000000000000000000000000000000000000000000000815250610f18565b5050565b60015481565b6040805190810160405280600581526020017f61646d696e00000000000000000000000000000000000000000000000000000081525081565b60006040805190810160405280600581526020017f61646d696e0000000000000000000000000000000000000000000000000000008152506109543382610510565b600260009054906101000a900473ffffffffffffffffffffffffffffffffffffffff1673ffffffffffffffffffffffffffffffffffffffff16631645fdcd600154888888886040518663ffffffff167c010000000000000000000000000000000000000000000000000000000002815260040180868152602001806020018473ffffffffffffffffffffffffffffffffffffffff1673ffffffffffffffffffffffffffffffffffffffff16815260200183151515158152602001828103825286868281815260200192508082843782019150509650505050505050602060405180830381600087803b158015610a4957600080fd5b505af1158015610a5d573d6000803e3d6000fd5b505050506040513d6020811015610a7357600080fd5b8101908080519060200190929190505050915050949350505050565b6000600460008154809291906001019190505550600360008573ffffffffffffffffffffffffffffffffffffffff1673ffffffffffffffffffffffffffffffffffffffff16815260200190815260200160002060009054906101000a900460ff168015610b455750600360008473ffffffffffffffffffffffffffffffffffffffff1673ffffffffffffffffffffffffffffffffffffffff16815260200190815260200160002060009054906101000a900460ff165b15610ce8576000600554141515610cdf57600660009054906101000a900473ffffffffffffffffffffffffffffffffffffffff1673ffffffffffffffffffffffffffffffffffffffff1663648e5dfd60055488888888886040518763ffffffff167c0100000000000000000000000000000000000000000000000000000000028152600401808781526020018673ffffffffffffffffffffffffffffffffffffffff1673ffffffffffffffffffffffffffffffffffffffff1681526020018581526020018473ffffffffffffffffffffffffffffffffffffffff1673ffffffffffffffffffffffffffffffffffffffff1681526020018373ffffffffffffffffffffffffffffffffffffffff1673ffffffffffffffffffffffffffffffffffffffff16815260200182600019166000191681526020019650505050505050602060405180830381600087803b158015610c9d57600080fd5b505af1158015610cb1573d6000803e3d6000fd5b505050506040513d6020811015610cc757600080fd5b81019080805190602001909291905050509050610ced565b60009050610ced565b600190505b95945050505050565b60006001600360008473ffffffffffffffffffffffffffffffffffffffff1673ffffffffffffffffffffffffffffffffffffffff16815260200190815260200160002060006101000a81548160ff021916908315150217905550919050565b610d5f8282610ebf565b1515610d6a57600080fd5b5050565b610deb826000836040518082805190602001908083835b602083101515610daa5780518252602082019150602081019050602083039250610d85565b6001836020036101000a038019825116818451168082178552505050505050905001915050908152602001604051809103902061106990919063ffffffff16565b7fd211483f91fc6eff862467f8de606587a30c8fc9981056f051b897a418df803a8282604051808373ffffffffffffffffffffffffffffffffffffffff1673ffffffffffffffffffffffffffffffffffffffff16815260200180602001828103825283818151815260200191508051906020019080838360005b83811015610e80578082015181840152602081019050610e65565b50505050905090810190601f168015610ead5780820380516001836020036101000a031916815260200191505b50935050505060405180910390a15050565b60008260000160008373ffffffffffffffffffffffffffffffffffffffff1673ffffffffffffffffffffffffffffffffffffffff16815260200190815260200160002060009054906101000a900460ff16905092915050565b610f95826000836040518082805190602001908083835b602083101515610f545780518252602082019150602081019050602083039250610f2f565b6001836020036101000a03801982511681845116808217855250505050505090500191505090815260200160405180910390206110c790919063ffffffff16565b7fbfec83d64eaa953f2708271a023ab9ee82057f8f3578d548c1a4ba0b5b7004898282604051808373ffffffffffffffffffffffffffffffffffffffff1673ffffffffffffffffffffffffffffffffffffffff16815260200180602001828103825283818151815260200191508051906020019080838360005b8381101561102a57808201518184015260208101905061100f565b50505050905090810190601f1680156110575780820380516001836020036101000a031916815260200191505b50935050505060405180910390a15050565b60008260000160008373ffffffffffffffffffffffffffffffffffffffff1673ffffffffffffffffffffffffffffffffffffffff16815260200190815260200160002060006101000a81548160ff0219169083151502179055505050565b60018260000160008373ffffffffffffffffffffffffffffffffffffffff1673ffffffffffffffffffffffffffffffffffffffff16815260200190815260200160002060006101000a81548160ff02191690831515021790555050505600a165627a7a72305820d0944352d939852c3fbb851570636039c1a1569a984dd59e13f7acad56135e170029",
  "source": "pragma solidity ^0.4.24;\n\nimport \"../../library/compliance/ComplianceStandard.sol\";\nimport \"../../protocol/coordinator/ComplianceCoordinator.sol\";\n\n/**\n * @dev A compliance standard that ensures everyone is on a whitelist.\n */\ncontract DelegateCS is ComplianceStandard {\n\n    mapping (address => bool) allowed;\n\n    uint256 constant E_UNWHITELISTED = 1;\n    uint256 operations = 0;\n    uint256 delegateProviderId;\n\n    ComplianceCoordinator complianceCoordinator;\n\n    constructor(\n        ProviderRegistry _providerRegistry,\n        uint256 _providerId,\n        uint256 _delegateProviderId,\n        ComplianceCoordinator _complianceCoordinator\n    ) Provider(_providerRegistry, _providerId) public\n    {\n        delegateProviderId = _delegateProviderId;\n        allowed[msg.sender] = true;\n        complianceCoordinator = _complianceCoordinator;\n    }\n\n    function allow(address user) external returns (bool) {\n        allowed[user] = true;\n    }\n\n    function performCheck(\n        address instrumentAddr,\n        uint256 instrumentIdOrAmt,\n        address from,\n        address to,\n        bytes32 data\n    ) external returns (uint256)\n    {\n        operations++;\n        if (allowed[from] && allowed[to]) {\n            if (delegateProviderId != 0) {\n                return complianceCoordinator.check(\n                    delegateProviderId,\n                    instrumentAddr,\n                    instrumentIdOrAmt,\n                    from,\n                    to,\n                    data\n                );\n            } else {\n                return 0;\n            }\n        } else {\n            return E_UNWHITELISTED;\n        }\n    }\n}",
  "sourcePath": "/home/ian/proj/abacusprotocol/protocol/contracts/test/cs/DelegateCS.sol",
  "compiler": {
    "name": "solc",
    "version": "0.4.24+commit.e67f0147.Emscripten.clang"
  },
  "schemaVersion": "2.0.1",
  "updatedAt": "2018-08-02T05:54:28.391Z"
}