{
  "contractName": "IdentityProvider",
  "abi": [
    {
      "constant": false,
      "inputs": [
        {
          "name": "admin",
          "type": "address"
        }
      ],
      "name": "removeAdmin",
      "outputs": [],
      "payable": false,
      "stateMutability": "nonpayable",
      "type": "function"
    },
    {
      "constant": true,
      "inputs": [
        {
          "name": "_address",
          "type": "address"
        }
      ],
      "name": "isAdmin",
      "outputs": [
        {
          "name": "_isAdmin",
          "type": "bool"
        }
      ],
      "payable": false,
      "stateMutability": "view",
      "type": "function"
    },
    {
      "constant": false,
      "inputs": [
        {
          "name": "name",
          "type": "string"
        },
        {
          "name": "metadata",
          "type": "string"
        },
        {
          "name": "isAsync",
          "type": "bool"
        }
      ],
      "name": "registerProvider",
      "outputs": [
        {
          "name": "",
          "type": "uint256"
        }
      ],
      "payable": false,
      "stateMutability": "nonpayable",
      "type": "function"
    },
    {
      "constant": false,
      "inputs": [
        {
          "name": "newAdmin",
          "type": "address"
        }
      ],
      "name": "addAdmin",
      "outputs": [],
      "payable": false,
      "stateMutability": "nonpayable",
      "type": "function"
    },
    {
      "constant": true,
      "inputs": [],
      "name": "providerId",
      "outputs": [
        {
          "name": "",
          "type": "uint256"
        }
      ],
      "payable": false,
      "stateMutability": "view",
      "type": "function"
    },
    {
      "constant": false,
      "inputs": [
        {
          "name": "tokenAddr",
          "type": "address"
        },
        {
          "name": "tokenId",
          "type": "uint256"
        },
        {
          "name": "fieldId",
          "type": "uint256"
        },
        {
          "name": "value",
          "type": "bytes32"
        }
      ],
      "name": "writeBytes32Field",
      "outputs": [],
      "payable": false,
      "stateMutability": "nonpayable",
      "type": "function"
    },
    {
      "constant": false,
      "inputs": [
        {
          "name": "nextMetadata",
          "type": "string"
        },
        {
          "name": "nextProvider",
          "type": "address"
        },
        {
          "name": "nextIsAsync",
          "type": "bool"
        }
      ],
      "name": "performUpgrade",
      "outputs": [
        {
          "name": "",
          "type": "bool"
        }
      ],
      "payable": false,
      "stateMutability": "nonpayable",
      "type": "function"
    },
    {
      "constant": false,
      "inputs": [
        {
          "name": "tokenAddr",
          "type": "address"
        },
        {
          "name": "tokenId",
          "type": "uint256"
        },
        {
          "name": "fieldId",
          "type": "uint256"
        },
        {
          "name": "value",
          "type": "bytes"
        }
      ],
      "name": "writeBytesField",
      "outputs": [],
      "payable": false,
      "stateMutability": "nonpayable",
      "type": "function"
    },
    {
      "inputs": [
        {
          "name": "_providerRegistry",
          "type": "address"
        },
        {
          "name": "_identityToken",
          "type": "address"
        },
        {
          "name": "_providerId",
          "type": "uint256"
        }
      ],
      "payable": false,
      "stateMutability": "nonpayable",
      "type": "constructor"
    },
    {
      "constant": false,
      "inputs": [
        {
          "name": "user",
          "type": "address"
        },
        {
          "name": "fieldId",
          "type": "uint256"
        },
        {
          "name": "value",
          "type": "bytes32"
        }
      ],
      "name": "writeIdentityBytes32Field",
      "outputs": [],
      "payable": false,
      "stateMutability": "nonpayable",
      "type": "function"
    },
    {
      "constant": false,
      "inputs": [
        {
          "name": "user",
          "type": "address"
        },
        {
          "name": "fieldId",
          "type": "uint256"
        },
        {
          "name": "value",
          "type": "bytes"
        }
      ],
      "name": "writeIdentityBytesField",
      "outputs": [],
      "payable": false,
      "stateMutability": "nonpayable",
      "type": "function"
    }
  ],
  "bytecode": "0x60806040523480156200001157600080fd5b50604051606080620016dd833981018060405281019080805190602001909291908051906020019092919080519060200190929190505050828273ffffffffffffffffffffffffffffffffffffffff16639a4e193f6040518163ffffffff167c0100000000000000000000000000000000000000000000000000000000028152600401602060405180830381600087803b158015620000af57600080fd5b505af1158015620000c4573d6000803e3d6000fd5b505050506040513d6020811015620000db57600080fd5b810190808051906020019092919050505082828181600260006101000a81548173ffffffffffffffffffffffffffffffffffffffff021916908373ffffffffffffffffffffffffffffffffffffffff160217905550806001819055506200015b336000620001eb64010000000002620012ae179091906401000000009004565b505081600360006101000a81548173ffffffffffffffffffffffffffffffffffffffff021916908373ffffffffffffffffffffffffffffffffffffffff16021790555050505081600460006101000a81548173ffffffffffffffffffffffffffffffffffffffff021916908373ffffffffffffffffffffffffffffffffffffffff16021790555050505062000343565b600073ffffffffffffffffffffffffffffffffffffffff168173ffffffffffffffffffffffffffffffffffffffff16141515156200022857600080fd5b620002438282620002ae640100000000026401000000009004565b1515156200025057600080fd5b60018260000160008373ffffffffffffffffffffffffffffffffffffffff1673ffffffffffffffffffffffffffffffffffffffff16815260200190815260200160002060006101000a81548160ff0219169083151502179055505050565b60008073ffffffffffffffffffffffffffffffffffffffff168273ffffffffffffffffffffffffffffffffffffffff1614151515620002ec57600080fd5b8260000160008373ffffffffffffffffffffffffffffffffffffffff1673ffffffffffffffffffffffffffffffffffffffff16815260200190815260200160002060009054906101000a900460ff16905092915050565b61138a80620003536000396000f3006080604052600436106100a4576000357c0100000000000000000000000000000000000000000000000000000000900463ffffffff1680630d99d521146100a95780631785f53c1461013c57806324d7806c1461017f5780632c93186a146101da578063356bbeb81461024d57806370480275146102a85780638490a8df146102eb578063856e2c0714610316578063e5006aac1461037b578063e70e75da146103fa575b600080fd5b3480156100b557600080fd5b5061013a600480360381019080803573ffffffffffffffffffffffffffffffffffffffff16906020019092919080359060200190929190803590602001908201803590602001908080601f0160208091040260200160405190810160405280939291908181526020018383808284378201915050505050509192919290505050610497565b005b34801561014857600080fd5b5061017d600480360381019080803573ffffffffffffffffffffffffffffffffffffffff169060200190929190505050610664565b005b34801561018b57600080fd5b506101c0600480360381019080803573ffffffffffffffffffffffffffffffffffffffff16906020019092919050505061071e565b604051808215151515815260200191505060405180910390f35b3480156101e657600080fd5b5061023760048036038101908080359060200190820180359060200191909192939192939080359060200190820180359060200191909192939192939080351515906020019092919050505061073b565b6040518082815260200191505060405180910390f35b34801561025957600080fd5b506102a6600480360381019080803573ffffffffffffffffffffffffffffffffffffffff169060200190929190803590602001909291908035600019169060200190929190505050610952565b005b3480156102b457600080fd5b506102e9600480360381019080803573ffffffffffffffffffffffffffffffffffffffff169060200190929190505050610b1f565b005b3480156102f757600080fd5b50610300610bd9565b6040518082815260200191505060405180910390f35b34801561032257600080fd5b50610379600480360381019080803573ffffffffffffffffffffffffffffffffffffffff16906020019092919080359060200190929190803590602001909291908035600019169060200190929190505050610bdf565b005b34801561038757600080fd5b506103e0600480360381019080803590602001908201803590602001919091929391929390803573ffffffffffffffffffffffffffffffffffffffff169060200190929190803515159060200190929190505050610d87565b604051808215151515815260200191505060405180910390f35b34801561040657600080fd5b50610495600480360381019080803573ffffffffffffffffffffffffffffffffffffffff1690602001909291908035906020019092919080359060200190929190803590602001908201803590602001908080601f0160208091040260200160405190810160405280939291908181526020018383808284378201915050505050509192919290505050610f66565b005b6104a03361071e565b151561053a576040517f08c379a00000000000000000000000000000000000000000000000000000000081526004018080602001828103825260288152602001807f4d75737420626520616e2061646d696e20746f20706572666f726d207468697381526020017f20616374696f6e2e00000000000000000000000000000000000000000000000081525060400191505060405180910390fd5b61065f600460009054906101000a900473ffffffffffffffffffffffffffffffffffffffff16600460009054906101000a900473ffffffffffffffffffffffffffffffffffffffff1673ffffffffffffffffffffffffffffffffffffffff166342ec38e2866040518263ffffffff167c0100000000000000000000000000000000000000000000000000000000028152600401808273ffffffffffffffffffffffffffffffffffffffff1673ffffffffffffffffffffffffffffffffffffffff168152602001915050602060405180830381600087803b15801561061d57600080fd5b505af1158015610631573d6000803e3d6000fd5b505050506040513d602081101561064757600080fd5b81019080805190602001909291905050508484610f66565b505050565b61066d3361071e565b1515610707576040517f08c379a00000000000000000000000000000000000000000000000000000000081526004018080602001828103825260288152602001807f4d75737420626520616e2061646d696e20746f20706572666f726d207468697381526020017f20616374696f6e2e00000000000000000000000000000000000000000000000081525060400191505060405180910390fd5b61071b81600061116b90919063ffffffff16565b50565b600061073482600061121a90919063ffffffff16565b9050919050565b60006107463361071e565b15156107e0576040517f08c379a00000000000000000000000000000000000000000000000000000000081526004018080602001828103825260288152602001807f4d75737420626520616e2061646d696e20746f20706572666f726d207468697381526020017f20616374696f6e2e00000000000000000000000000000000000000000000000081525060400191505060405180910390fd5b60006001541415156107f55760009050610949565b600260009054906101000a900473ffffffffffffffffffffffffffffffffffffffff1673ffffffffffffffffffffffffffffffffffffffff1663c48afd098787878730886040518763ffffffff167c01000000000000000000000000000000000000000000000000000000000281526004018080602001806020018573ffffffffffffffffffffffffffffffffffffffff1673ffffffffffffffffffffffffffffffffffffffff16815260200184151515158152602001838103835289898281815260200192508082843782019150508381038252878782818152602001925080828437820191505098505050505050505050602060405180830381600087803b15801561090257600080fd5b505af1158015610916573d6000803e3d6000fd5b505050506040513d602081101561092c57600080fd5b810190808051906020019092919050505060018190555060015490505b95945050505050565b61095b3361071e565b15156109f5576040517f08c379a00000000000000000000000000000000000000000000000000000000081526004018080602001828103825260288152602001807f4d75737420626520616e2061646d696e20746f20706572666f726d207468697381526020017f20616374696f6e2e00000000000000000000000000000000000000000000000081525060400191505060405180910390fd5b610b1a600460009054906101000a900473ffffffffffffffffffffffffffffffffffffffff16600460009054906101000a900473ffffffffffffffffffffffffffffffffffffffff1673ffffffffffffffffffffffffffffffffffffffff166342ec38e2866040518263ffffffff167c0100000000000000000000000000000000000000000000000000000000028152600401808273ffffffffffffffffffffffffffffffffffffffff1673ffffffffffffffffffffffffffffffffffffffff168152602001915050602060405180830381600087803b158015610ad857600080fd5b505af1158015610aec573d6000803e3d6000fd5b505050506040513d6020811015610b0257600080fd5b81019080805190602001909291905050508484610bdf565b505050565b610b283361071e565b1515610bc2576040517f08c379a00000000000000000000000000000000000000000000000000000000081526004018080602001828103825260288152602001807f4d75737420626520616e2061646d696e20746f20706572666f726d207468697381526020017f20616374696f6e2e00000000000000000000000000000000000000000000000081525060400191505060405180910390fd5b610bd68160006112ae90919063ffffffff16565b50565b60015481565b610be83361071e565b1515610c82576040517f08c379a00000000000000000000000000000000000000000000000000000000081526004018080602001828103825260288152602001807f4d75737420626520616e2061646d696e20746f20706572666f726d207468697381526020017f20616374696f6e2e00000000000000000000000000000000000000000000000081525060400191505060405180910390fd5b600360009054906101000a900473ffffffffffffffffffffffffffffffffffffffff1673ffffffffffffffffffffffffffffffffffffffff1663229b5dd1858560015486866040518663ffffffff167c0100000000000000000000000000000000000000000000000000000000028152600401808673ffffffffffffffffffffffffffffffffffffffff1673ffffffffffffffffffffffffffffffffffffffff168152602001858152602001848152602001838152602001826000191660001916815260200195505050505050600060405180830381600087803b158015610d6957600080fd5b505af1158015610d7d573d6000803e3d6000fd5b5050505050505050565b6000610d923361071e565b1515610e2c576040517f08c379a00000000000000000000000000000000000000000000000000000000081526004018080602001828103825260288152602001807f4d75737420626520616e2061646d696e20746f20706572666f726d207468697381526020017f20616374696f6e2e00000000000000000000000000000000000000000000000081525060400191505060405180910390fd5b600260009054906101000a900473ffffffffffffffffffffffffffffffffffffffff1673ffffffffffffffffffffffffffffffffffffffff16631645fdcd600154878787876040518663ffffffff167c010000000000000000000000000000000000000000000000000000000002815260040180868152602001806020018473ffffffffffffffffffffffffffffffffffffffff1673ffffffffffffffffffffffffffffffffffffffff16815260200183151515158152602001828103825286868281815260200192508082843782019150509650505050505050602060405180830381600087803b158015610f2157600080fd5b505af1158015610f35573d6000803e3d6000fd5b505050506040513d6020811015610f4b57600080fd5b81019080805190602001909291905050509050949350505050565b610f6f3361071e565b1515611009576040517f08c379a00000000000000000000000000000000000000000000000000000000081526004018080602001828103825260288152602001807f4d75737420626520616e2061646d696e20746f20706572666f726d207468697381526020017f20616374696f6e2e00000000000000000000000000000000000000000000000081525060400191505060405180910390fd5b600360009054906101000a900473ffffffffffffffffffffffffffffffffffffffff1673ffffffffffffffffffffffffffffffffffffffff16632fb66cb5858560015486866040518663ffffffff167c0100000000000000000000000000000000000000000000000000000000028152600401808673ffffffffffffffffffffffffffffffffffffffff1673ffffffffffffffffffffffffffffffffffffffff16815260200185815260200184815260200183815260200180602001828103825283818151815260200191508051906020019080838360005b838110156110fd5780820151818401526020810190506110e2565b50505050905090810190601f16801561112a5780820380516001836020036101000a031916815260200191505b509650505050505050600060405180830381600087803b15801561114d57600080fd5b505af1158015611161573d6000803e3d6000fd5b5050505050505050565b600073ffffffffffffffffffffffffffffffffffffffff168173ffffffffffffffffffffffffffffffffffffffff16141515156111a757600080fd5b6111b1828261121a565b15156111bc57600080fd5b60008260000160008373ffffffffffffffffffffffffffffffffffffffff1673ffffffffffffffffffffffffffffffffffffffff16815260200190815260200160002060006101000a81548160ff0219169083151502179055505050565b60008073ffffffffffffffffffffffffffffffffffffffff168273ffffffffffffffffffffffffffffffffffffffff161415151561125757600080fd5b8260000160008373ffffffffffffffffffffffffffffffffffffffff1673ffffffffffffffffffffffffffffffffffffffff16815260200190815260200160002060009054906101000a900460ff16905092915050565b600073ffffffffffffffffffffffffffffffffffffffff168173ffffffffffffffffffffffffffffffffffffffff16141515156112ea57600080fd5b6112f4828261121a565b15151561130057600080fd5b60018260000160008373ffffffffffffffffffffffffffffffffffffffff1673ffffffffffffffffffffffffffffffffffffffff16815260200190815260200160002060006101000a81548160ff02191690831515021790555050505600a165627a7a72305820c5ca40ff59cd3d0f630ec75f2b37439d5c386f82b746d3cb245e9f3cfce528640029",
  "source": "pragma solidity ^0.4.24;\n\nimport \"../../protocol/IdentityToken.sol\";\nimport \"./AsyncProvider.sol\";\n\ncontract IdentityProvider is AsyncProvider {\n    IdentityToken identityToken;\n\n    constructor(\n        ProviderRegistry _providerRegistry,\n        IdentityToken _identityToken,\n        uint256 _providerId\n    ) AsyncProvider(\n        _providerRegistry,\n        _identityToken.annotationDatabase(),\n        _providerId\n    ) public\n    {\n        identityToken = _identityToken;\n    }\n\n    function writeIdentityBytes32Field(\n        address user,\n        uint256 fieldId,\n        bytes32 value\n    ) public onlyAdmin {\n        writeBytes32Field(\n            identityToken,\n            identityToken.tokenOf(user),\n            fieldId,\n            value\n        );\n    }\n\n    function writeIdentityBytesField(\n        address user,\n        uint256 fieldId,\n        bytes value\n    ) public onlyAdmin {\n        writeBytesField(\n            identityToken,\n            identityToken.tokenOf(user),\n            fieldId,\n            value\n        );\n    }\n}\n",
  "sourcePath": "/home/ian/proj/abacusfi/protocol/contracts/library/provider/IdentityProvider.sol",
  "compiler": {
    "name": "solc",
    "version": "0.4.24+commit.e67f0147.Emscripten.clang"
  },
  "schemaVersion": "2.0.1",
  "updatedAt": "2018-12-19T05:52:05.402Z"
}