{
  "contractName": "IdentityProvider",
  "abi": [
    {
      "constant": true,
      "inputs": [
        {
          "name": "addr",
          "type": "address"
        },
        {
          "name": "roleName",
          "type": "string"
        }
      ],
      "name": "checkRole",
      "outputs": [],
      "payable": false,
      "stateMutability": "view",
      "type": "function"
    },
    {
      "constant": false,
      "inputs": [
        {
          "name": "admin",
          "type": "address"
        }
      ],
      "name": "removeAdmin",
      "outputs": [],
      "payable": false,
      "stateMutability": "nonpayable",
      "type": "function"
    },
    {
      "constant": true,
      "inputs": [
        {
          "name": "addr",
          "type": "address"
        },
        {
          "name": "roleName",
          "type": "string"
        }
      ],
      "name": "hasRole",
      "outputs": [
        {
          "name": "",
          "type": "bool"
        }
      ],
      "payable": false,
      "stateMutability": "view",
      "type": "function"
    },
    {
      "constant": false,
      "inputs": [
        {
          "name": "name",
          "type": "string"
        },
        {
          "name": "metadata",
          "type": "string"
        },
        {
          "name": "isAsync",
          "type": "bool"
        }
      ],
      "name": "registerProvider",
      "outputs": [
        {
          "name": "",
          "type": "uint256"
        }
      ],
      "payable": false,
      "stateMutability": "nonpayable",
      "type": "function"
    },
    {
      "constant": false,
      "inputs": [
        {
          "name": "requester",
          "type": "address"
        },
        {
          "name": "requestId",
          "type": "uint256"
        }
      ],
      "name": "acceptServiceRequest",
      "outputs": [],
      "payable": false,
      "stateMutability": "nonpayable",
      "type": "function"
    },
    {
      "constant": false,
      "inputs": [
        {
          "name": "newAdmin",
          "type": "address"
        }
      ],
      "name": "addAdmin",
      "outputs": [],
      "payable": false,
      "stateMutability": "nonpayable",
      "type": "function"
    },
    {
      "constant": false,
      "inputs": [
        {
          "name": "requester",
          "type": "address"
        },
        {
          "name": "requestId",
          "type": "uint256"
        }
      ],
      "name": "completeServiceRequest",
      "outputs": [],
      "payable": false,
      "stateMutability": "nonpayable",
      "type": "function"
    },
    {
      "constant": true,
      "inputs": [],
      "name": "providerId",
      "outputs": [
        {
          "name": "",
          "type": "uint256"
        }
      ],
      "payable": false,
      "stateMutability": "view",
      "type": "function"
    },
    {
      "constant": false,
      "inputs": [
        {
          "name": "tokenAddr",
          "type": "address"
        },
        {
          "name": "tokenId",
          "type": "uint256"
        },
        {
          "name": "fieldId",
          "type": "uint256"
        },
        {
          "name": "value",
          "type": "bytes32"
        }
      ],
      "name": "writeBytes32Field",
      "outputs": [],
      "payable": false,
      "stateMutability": "nonpayable",
      "type": "function"
    },
    {
      "constant": true,
      "inputs": [],
      "name": "ROLE_ADMIN",
      "outputs": [
        {
          "name": "",
          "type": "string"
        }
      ],
      "payable": false,
      "stateMutability": "view",
      "type": "function"
    },
    {
      "constant": true,
      "inputs": [],
      "name": "kernel",
      "outputs": [
        {
          "name": "",
          "type": "address"
        }
      ],
      "payable": false,
      "stateMutability": "view",
      "type": "function"
    },
    {
      "constant": false,
      "inputs": [
        {
          "name": "value",
          "type": "uint256"
        }
      ],
      "name": "withdrawBalance",
      "outputs": [],
      "payable": false,
      "stateMutability": "nonpayable",
      "type": "function"
    },
    {
      "constant": false,
      "inputs": [
        {
          "name": "nextMetadata",
          "type": "string"
        },
        {
          "name": "nextProvider",
          "type": "address"
        },
        {
          "name": "nextIsAsync",
          "type": "bool"
        }
      ],
      "name": "performUpgrade",
      "outputs": [
        {
          "name": "",
          "type": "bool"
        }
      ],
      "payable": false,
      "stateMutability": "nonpayable",
      "type": "function"
    },
    {
      "constant": false,
      "inputs": [
        {
          "name": "tokenAddr",
          "type": "address"
        },
        {
          "name": "tokenId",
          "type": "uint256"
        },
        {
          "name": "fieldId",
          "type": "uint256"
        },
        {
          "name": "value",
          "type": "bytes"
        }
      ],
      "name": "writeBytesField",
      "outputs": [],
      "payable": false,
      "stateMutability": "nonpayable",
      "type": "function"
    },
    {
      "inputs": [
        {
          "name": "_identityToken",
          "type": "address"
        },
        {
          "name": "_kernel",
          "type": "address"
        },
        {
          "name": "_providerId",
          "type": "uint256"
        }
      ],
      "payable": false,
      "stateMutability": "nonpayable",
      "type": "constructor"
    },
    {
      "anonymous": false,
      "inputs": [
        {
          "indexed": false,
          "name": "addr",
          "type": "address"
        },
        {
          "indexed": false,
          "name": "roleName",
          "type": "string"
        }
      ],
      "name": "RoleAdded",
      "type": "event"
    },
    {
      "anonymous": false,
      "inputs": [
        {
          "indexed": false,
          "name": "addr",
          "type": "address"
        },
        {
          "indexed": false,
          "name": "roleName",
          "type": "string"
        }
      ],
      "name": "RoleRemoved",
      "type": "event"
    },
    {
      "constant": false,
      "inputs": [
        {
          "name": "user",
          "type": "address"
        },
        {
          "name": "fieldId",
          "type": "uint256"
        },
        {
          "name": "value",
          "type": "bytes32"
        }
      ],
      "name": "writeIdentityBytes32Field",
      "outputs": [],
      "payable": false,
      "stateMutability": "nonpayable",
      "type": "function"
    },
    {
      "constant": false,
      "inputs": [
        {
          "name": "user",
          "type": "address"
        },
        {
          "name": "fieldId",
          "type": "uint256"
        },
        {
          "name": "value",
          "type": "bytes"
        }
      ],
      "name": "writeIdentityBytesField",
      "outputs": [],
      "payable": false,
      "stateMutability": "nonpayable",
      "type": "function"
    }
  ],
  "bytecode": "0x60806040523480156200001157600080fd5b5060405160608062002002833981018060405281019080805190602001909291908051906020019092919080519060200190929190505050818373ffffffffffffffffffffffffffffffffffffffff16639a4e193f6040518163ffffffff167c0100000000000000000000000000000000000000000000000000000000028152600401602060405180830381600087803b158015620000af57600080fd5b505af1158015620000c4573d6000803e3d6000fd5b505050506040513d6020811015620000db57600080fd5b8101908080519060200190929190505050828273ffffffffffffffffffffffffffffffffffffffff1663545921d96040518163ffffffff167c0100000000000000000000000000000000000000000000000000000000028152600401602060405180830381600087803b1580156200015257600080fd5b505af115801562000167573d6000803e3d6000fd5b505050506040513d60208110156200017e57600080fd5b81019080805190602001909291905050508181600260006101000a81548173ffffffffffffffffffffffffffffffffffffffff021916908373ffffffffffffffffffffffffffffffffffffffff1602179055508060018190555062000228336040805190810160405280600581526020017f61646d696e000000000000000000000000000000000000000000000000000000815250620003db640100000000026401000000009004565b505082600360006101000a81548173ffffffffffffffffffffffffffffffffffffffff021916908373ffffffffffffffffffffffffffffffffffffffff1602179055508273ffffffffffffffffffffffffffffffffffffffff1663fc0c546a6040518163ffffffff167c0100000000000000000000000000000000000000000000000000000000028152600401602060405180830381600087803b158015620002d057600080fd5b505af1158015620002e5573d6000803e3d6000fd5b505050506040513d6020811015620002fc57600080fd5b8101908080519060200190929190505050600460006101000a81548173ffffffffffffffffffffffffffffffffffffffff021916908373ffffffffffffffffffffffffffffffffffffffff16021790555081600560006101000a81548173ffffffffffffffffffffffffffffffffffffffff021916908373ffffffffffffffffffffffffffffffffffffffff16021790555050505082600660006101000a81548173ffffffffffffffffffffffffffffffffffffffff021916908373ffffffffffffffffffffffffffffffffffffffff1602179055505050506200059f565b6200046a826000836040518082805190602001908083835b6020831015156200041a5780518252602082019150602081019050602083039250620003f3565b6001836020036101000a03801982511681845116808217855250505050505090500191505090815260200160405180910390206200054164010000000002620019c9179091906401000000009004565b7fbfec83d64eaa953f2708271a023ab9ee82057f8f3578d548c1a4ba0b5b7004898282604051808373ffffffffffffffffffffffffffffffffffffffff1673ffffffffffffffffffffffffffffffffffffffff16815260200180602001828103825283818151815260200191508051906020019080838360005b8381101562000501578082015181840152602081019050620004e4565b50505050905090810190601f1680156200052f5780820380516001836020036101000a031916815260200191505b50935050505060405180910390a15050565b60018260000160008373ffffffffffffffffffffffffffffffffffffffff1673ffffffffffffffffffffffffffffffffffffffff16815260200190815260200160002060006101000a81548160ff0219169083151502179055505050565b611a5380620005af6000396000f3006080604052600436106100e6576000357c0100000000000000000000000000000000000000000000000000000000900463ffffffff1680630988ca8c146100eb5780630d99d521146101745780631785f53c14610207578063217fe6c61461024a5780632c93186a146102eb578063356bbeb81461035e5780634425c5a8146103b9578063704802751461040657806382ad982c146104495780638490a8df14610496578063856e2c07146104c1578063d391014b14610526578063d4aae0c4146105b6578063da76d5cd1461060d578063e5006aac1461063a578063e70e75da146106b9575b600080fd5b3480156100f757600080fd5b50610172600480360381019080803573ffffffffffffffffffffffffffffffffffffffff169060200190929190803590602001908201803590602001908080601f0160208091040260200160405190810160405280939291908181526020018383808284378201915050505050509192919290505050610756565b005b34801561018057600080fd5b50610205600480360381019080803573ffffffffffffffffffffffffffffffffffffffff16906020019092919080359060200190929190803590602001908201803590602001908080601f01602080910402602001604051908101604052809392919081815260200183838082843782019150505050505091929192905050506107d7565b005b34801561021357600080fd5b50610248600480360381019080803573ffffffffffffffffffffffffffffffffffffffff169060200190929190505050610942565b005b34801561025657600080fd5b506102d1600480360381019080803573ffffffffffffffffffffffffffffffffffffffff169060200190929190803590602001908201803590602001908080601f01602080910402602001604051908101604052809392919081815260200183838082843782019150505050505091929192905050506109c5565b604051808215151515815260200191505060405180910390f35b3480156102f757600080fd5b50610348600480360381019080803590602001908201803590602001919091929391929390803590602001908201803590602001919091929391929390803515159060200190929190505050610a4c565b6040518082815260200191505060405180910390f35b34801561036a57600080fd5b506103b7600480360381019080803573ffffffffffffffffffffffffffffffffffffffff169060200190929190803590602001909291908035600019169060200190929190505050610c01565b005b3480156103c557600080fd5b50610404600480360381019080803573ffffffffffffffffffffffffffffffffffffffff16906020019092919080359060200190929190505050610d6c565b005b34801561041257600080fd5b50610447600480360381019080803573ffffffffffffffffffffffffffffffffffffffff169060200190929190505050610e98565b005b34801561045557600080fd5b50610494600480360381019080803573ffffffffffffffffffffffffffffffffffffffff16906020019092919080359060200190929190505050610f1b565b005b3480156104a257600080fd5b506104ab611047565b6040518082815260200191505060405180910390f35b3480156104cd57600080fd5b50610524600480360381019080803573ffffffffffffffffffffffffffffffffffffffff1690602001909291908035906020019092919080359060200190929190803560001916906020019092919050505061104d565b005b34801561053257600080fd5b5061053b611193565b6040518080602001828103825283818151815260200191508051906020019080838360005b8381101561057b578082015181840152602081019050610560565b50505050905090810190601f1680156105a85780820380516001836020036101000a031916815260200191505b509250505060405180910390f35b3480156105c257600080fd5b506105cb6111cc565b604051808273ffffffffffffffffffffffffffffffffffffffff1673ffffffffffffffffffffffffffffffffffffffff16815260200191505060405180910390f35b34801561061957600080fd5b50610638600480360381019080803590602001909291905050506111f2565b005b34801561064657600080fd5b5061069f600480360381019080803590602001908201803590602001919091929391929390803573ffffffffffffffffffffffffffffffffffffffff169060200190929190803515159060200190929190505050611337565b604051808215151515815260200191505060405180910390f35b3480156106c557600080fd5b50610754600480360381019080803573ffffffffffffffffffffffffffffffffffffffff1690602001909291908035906020019092919080359060200190929190803590602001908201803590602001908080601f01602080910402602001604051908101604052809392919081815260200183838082843782019150505050505091929192905050506114b4565b005b6107d3826000836040518082805190602001908083835b602083101515610792578051825260208201915060208101905060208303925061076d565b6001836020036101000a038019825116818451168082178552505050505050905001915050908152602001604051809103902061165790919063ffffffff16565b5050565b6040805190810160405280600581526020017f61646d696e0000000000000000000000000000000000000000000000000000008152506108173382610756565b61093c600660009054906101000a900473ffffffffffffffffffffffffffffffffffffffff16600660009054906101000a900473ffffffffffffffffffffffffffffffffffffffff1673ffffffffffffffffffffffffffffffffffffffff166342ec38e2876040518263ffffffff167c0100000000000000000000000000000000000000000000000000000000028152600401808273ffffffffffffffffffffffffffffffffffffffff1673ffffffffffffffffffffffffffffffffffffffff168152602001915050602060405180830381600087803b1580156108fa57600080fd5b505af115801561090e573d6000803e3d6000fd5b505050506040513d602081101561092457600080fd5b810190808051906020019092919050505085856114b4565b50505050565b6040805190810160405280600581526020017f61646d696e0000000000000000000000000000000000000000000000000000008152506109823382610756565b6109c1826040805190810160405280600581526020017f61646d696e000000000000000000000000000000000000000000000000000000815250611670565b5050565b6000610a44836000846040518082805190602001908083835b602083101515610a0357805182526020820191506020810190506020830392506109de565b6001836020036101000a03801982511681845116808217855250505050505090500191505090815260200160405180910390206117c190919063ffffffff16565b905092915050565b60006040805190810160405280600581526020017f61646d696e000000000000000000000000000000000000000000000000000000815250610a8e3382610756565b6000600154141515610aa35760009150610bf7565b600260009054906101000a900473ffffffffffffffffffffffffffffffffffffffff1673ffffffffffffffffffffffffffffffffffffffff1663c48afd098888888830896040518763ffffffff167c01000000000000000000000000000000000000000000000000000000000281526004018080602001806020018573ffffffffffffffffffffffffffffffffffffffff1673ffffffffffffffffffffffffffffffffffffffff16815260200184151515158152602001838103835289898281815260200192508082843782019150508381038252878782818152602001925080828437820191505098505050505050505050602060405180830381600087803b158015610bb057600080fd5b505af1158015610bc4573d6000803e3d6000fd5b505050506040513d6020811015610bda57600080fd5b810190808051906020019092919050505060018190555060015491505b5095945050505050565b6040805190810160405280600581526020017f61646d696e000000000000000000000000000000000000000000000000000000815250610c413382610756565b610d66600660009054906101000a900473ffffffffffffffffffffffffffffffffffffffff16600660009054906101000a900473ffffffffffffffffffffffffffffffffffffffff1673ffffffffffffffffffffffffffffffffffffffff166342ec38e2876040518263ffffffff167c0100000000000000000000000000000000000000000000000000000000028152600401808273ffffffffffffffffffffffffffffffffffffffff1673ffffffffffffffffffffffffffffffffffffffff168152602001915050602060405180830381600087803b158015610d2457600080fd5b505af1158015610d38573d6000803e3d6000fd5b505050506040513d6020811015610d4e57600080fd5b8101908080519060200190929190505050858561104d565b50505050565b6040805190810160405280600581526020017f61646d696e000000000000000000000000000000000000000000000000000000815250610dac3382610756565b600360009054906101000a900473ffffffffffffffffffffffffffffffffffffffff1673ffffffffffffffffffffffffffffffffffffffff1663668d828660015485856040518463ffffffff167c0100000000000000000000000000000000000000000000000000000000028152600401808481526020018373ffffffffffffffffffffffffffffffffffffffff1673ffffffffffffffffffffffffffffffffffffffff1681526020018281526020019350505050600060405180830381600087803b158015610e7b57600080fd5b505af1158015610e8f573d6000803e3d6000fd5b50505050505050565b6040805190810160405280600581526020017f61646d696e000000000000000000000000000000000000000000000000000000815250610ed83382610756565b610f17826040805190810160405280600581526020017f61646d696e00000000000000000000000000000000000000000000000000000081525061181a565b5050565b6040805190810160405280600581526020017f61646d696e000000000000000000000000000000000000000000000000000000815250610f5b3382610756565b600360009054906101000a900473ffffffffffffffffffffffffffffffffffffffff1673ffffffffffffffffffffffffffffffffffffffff1663993c569660015485856040518463ffffffff167c0100000000000000000000000000000000000000000000000000000000028152600401808481526020018373ffffffffffffffffffffffffffffffffffffffff1673ffffffffffffffffffffffffffffffffffffffff1681526020018281526020019350505050600060405180830381600087803b15801561102a57600080fd5b505af115801561103e573d6000803e3d6000fd5b50505050505050565b60015481565b6040805190810160405280600581526020017f61646d696e00000000000000000000000000000000000000000000000000000081525061108d3382610756565b600560009054906101000a900473ffffffffffffffffffffffffffffffffffffffff1673ffffffffffffffffffffffffffffffffffffffff1663229b5dd1868660015487876040518663ffffffff167c0100000000000000000000000000000000000000000000000000000000028152600401808673ffffffffffffffffffffffffffffffffffffffff1673ffffffffffffffffffffffffffffffffffffffff168152602001858152602001848152602001838152602001826000191660001916815260200195505050505050600060405180830381600087803b15801561117457600080fd5b505af1158015611188573d6000803e3d6000fd5b505050505050505050565b6040805190810160405280600581526020017f61646d696e00000000000000000000000000000000000000000000000000000081525081565b600360009054906101000a900473ffffffffffffffffffffffffffffffffffffffff1681565b6040805190810160405280600581526020017f61646d696e0000000000000000000000000000000000000000000000000000008152506112323382610756565b600460009054906101000a900473ffffffffffffffffffffffffffffffffffffffff1673ffffffffffffffffffffffffffffffffffffffff1663a9059cbb33846040518363ffffffff167c0100000000000000000000000000000000000000000000000000000000028152600401808373ffffffffffffffffffffffffffffffffffffffff1673ffffffffffffffffffffffffffffffffffffffff16815260200182815260200192505050602060405180830381600087803b1580156112f757600080fd5b505af115801561130b573d6000803e3d6000fd5b505050506040513d602081101561132157600080fd5b8101908080519060200190929190505050505050565b60006040805190810160405280600581526020017f61646d696e0000000000000000000000000000000000000000000000000000008152506113793382610756565b600260009054906101000a900473ffffffffffffffffffffffffffffffffffffffff1673ffffffffffffffffffffffffffffffffffffffff16631645fdcd600154888888886040518663ffffffff167c010000000000000000000000000000000000000000000000000000000002815260040180868152602001806020018473ffffffffffffffffffffffffffffffffffffffff1673ffffffffffffffffffffffffffffffffffffffff16815260200183151515158152602001828103825286868281815260200192508082843782019150509650505050505050602060405180830381600087803b15801561146e57600080fd5b505af1158015611482573d6000803e3d6000fd5b505050506040513d602081101561149857600080fd5b8101908080519060200190929190505050915050949350505050565b6040805190810160405280600581526020017f61646d696e0000000000000000000000000000000000000000000000000000008152506114f43382610756565b600560009054906101000a900473ffffffffffffffffffffffffffffffffffffffff1673ffffffffffffffffffffffffffffffffffffffff16632fb66cb5868660015487876040518663ffffffff167c0100000000000000000000000000000000000000000000000000000000028152600401808673ffffffffffffffffffffffffffffffffffffffff1673ffffffffffffffffffffffffffffffffffffffff16815260200185815260200184815260200183815260200180602001828103825283818151815260200191508051906020019080838360005b838110156115e85780820151818401526020810190506115cd565b50505050905090810190601f1680156116155780820380516001836020036101000a031916815260200191505b509650505050505050600060405180830381600087803b15801561163857600080fd5b505af115801561164c573d6000803e3d6000fd5b505050505050505050565b61166182826117c1565b151561166c57600080fd5b5050565b6116ed826000836040518082805190602001908083835b6020831015156116ac5780518252602082019150602081019050602083039250611687565b6001836020036101000a038019825116818451168082178552505050505050905001915050908152602001604051809103902061196b90919063ffffffff16565b7fd211483f91fc6eff862467f8de606587a30c8fc9981056f051b897a418df803a8282604051808373ffffffffffffffffffffffffffffffffffffffff1673ffffffffffffffffffffffffffffffffffffffff16815260200180602001828103825283818151815260200191508051906020019080838360005b83811015611782578082015181840152602081019050611767565b50505050905090810190601f1680156117af5780820380516001836020036101000a031916815260200191505b50935050505060405180910390a15050565b60008260000160008373ffffffffffffffffffffffffffffffffffffffff1673ffffffffffffffffffffffffffffffffffffffff16815260200190815260200160002060009054906101000a900460ff16905092915050565b611897826000836040518082805190602001908083835b6020831015156118565780518252602082019150602081019050602083039250611831565b6001836020036101000a03801982511681845116808217855250505050505090500191505090815260200160405180910390206119c990919063ffffffff16565b7fbfec83d64eaa953f2708271a023ab9ee82057f8f3578d548c1a4ba0b5b7004898282604051808373ffffffffffffffffffffffffffffffffffffffff1673ffffffffffffffffffffffffffffffffffffffff16815260200180602001828103825283818151815260200191508051906020019080838360005b8381101561192c578082015181840152602081019050611911565b50505050905090810190601f1680156119595780820380516001836020036101000a031916815260200191505b50935050505060405180910390a15050565b60008260000160008373ffffffffffffffffffffffffffffffffffffffff1673ffffffffffffffffffffffffffffffffffffffff16815260200190815260200160002060006101000a81548160ff0219169083151502179055505050565b60018260000160008373ffffffffffffffffffffffffffffffffffffffff1673ffffffffffffffffffffffffffffffffffffffff16815260200190815260200160002060006101000a81548160ff02191690831515021790555050505600a165627a7a7230582067747aef549b0abc8741cbc71323f9559d14650e680dc2c371c249d29939f98f0029",
  "source": "pragma solidity ^0.4.24;\n\nimport \"../../protocol/IdentityToken.sol\";\nimport \"../../protocol/AbacusKernel.sol\";\nimport \"./AsyncProvider.sol\";\n\ncontract IdentityProvider is AsyncProvider {\n    IdentityToken identityToken;\n\n    constructor(\n        IdentityToken _identityToken,\n        AbacusKernel _kernel,\n        uint256 _providerId\n    ) AsyncProvider(\n        _kernel, \n        _identityToken.annotationDatabase(),\n        _providerId\n        ) public\n    {\n        identityToken = _identityToken;\n    }\n\n    function writeIdentityBytes32Field(\n        address user,\n        uint256 fieldId,\n        bytes32 value\n    ) public onlyRole(ROLE_ADMIN) {\n        writeBytes32Field(\n            identityToken,\n            identityToken.tokenOf(user),\n            fieldId,\n            value\n        );\n    }\n\n    function writeIdentityBytesField(\n        address user,\n        uint256 fieldId,\n        bytes value\n    ) public onlyRole(ROLE_ADMIN) {\n        writeBytesField(\n            identityToken,\n            identityToken.tokenOf(user),\n            fieldId,\n            value\n        );\n    }\n}\n",
  "sourcePath": "/home/ian/proj/abacusprotocol/protocol/contracts/library/provider/IdentityProvider.sol",
  "compiler": {
    "name": "solc",
    "version": "0.4.24+commit.e67f0147.Emscripten.clang"
  },
  "schemaVersion": "2.0.1",
  "updatedAt": "2018-08-02T05:54:28.379Z"
}