{
  "contractName": "ProviderRegistry",
  "abi": [
    {
      "constant": true,
      "inputs": [
        {
          "name": "",
          "type": "uint256"
        },
        {
          "name": "",
          "type": "uint256"
        }
      ],
      "name": "providers",
      "outputs": [
        {
          "name": "id",
          "type": "uint256"
        },
        {
          "name": "name",
          "type": "string"
        },
        {
          "name": "metadata",
          "type": "string"
        },
        {
          "name": "owner",
          "type": "address"
        },
        {
          "name": "version",
          "type": "uint256"
        },
        {
          "name": "isAsync",
          "type": "bool"
        }
      ],
      "payable": false,
      "stateMutability": "view",
      "type": "function"
    },
    {
      "constant": true,
      "inputs": [
        {
          "name": "",
          "type": "uint256"
        }
      ],
      "name": "latestProviderVersion",
      "outputs": [
        {
          "name": "",
          "type": "uint256"
        }
      ],
      "payable": false,
      "stateMutability": "view",
      "type": "function"
    },
    {
      "anonymous": false,
      "inputs": [
        {
          "indexed": false,
          "name": "id",
          "type": "uint256"
        },
        {
          "indexed": false,
          "name": "name",
          "type": "string"
        },
        {
          "indexed": false,
          "name": "metadata",
          "type": "string"
        },
        {
          "indexed": false,
          "name": "owner",
          "type": "address"
        },
        {
          "indexed": false,
          "name": "version",
          "type": "uint256"
        },
        {
          "indexed": false,
          "name": "isAsync",
          "type": "bool"
        }
      ],
      "name": "ProviderInfoUpdate",
      "type": "event"
    },
    {
      "constant": false,
      "inputs": [
        {
          "name": "name",
          "type": "string"
        },
        {
          "name": "metadata",
          "type": "string"
        },
        {
          "name": "owner",
          "type": "address"
        },
        {
          "name": "isAsync",
          "type": "bool"
        }
      ],
      "name": "registerProvider",
      "outputs": [
        {
          "name": "",
          "type": "uint256"
        }
      ],
      "payable": false,
      "stateMutability": "nonpayable",
      "type": "function"
    },
    {
      "constant": true,
      "inputs": [
        {
          "name": "providerId",
          "type": "uint256"
        }
      ],
      "name": "latestProvider",
      "outputs": [
        {
          "name": "",
          "type": "uint256"
        },
        {
          "name": "",
          "type": "string"
        },
        {
          "name": "",
          "type": "string"
        },
        {
          "name": "",
          "type": "address"
        },
        {
          "name": "",
          "type": "uint256"
        },
        {
          "name": "",
          "type": "bool"
        }
      ],
      "payable": false,
      "stateMutability": "view",
      "type": "function"
    },
    {
      "constant": false,
      "inputs": [
        {
          "name": "providerId",
          "type": "uint256"
        },
        {
          "name": "metadata",
          "type": "string"
        },
        {
          "name": "owner",
          "type": "address"
        },
        {
          "name": "isAsync",
          "type": "bool"
        }
      ],
      "name": "upgradeProvider",
      "outputs": [
        {
          "name": "",
          "type": "bool"
        }
      ],
      "payable": false,
      "stateMutability": "nonpayable",
      "type": "function"
    },
    {
      "constant": true,
      "inputs": [
        {
          "name": "providerId",
          "type": "uint256"
        }
      ],
      "name": "providerOwner",
      "outputs": [
        {
          "name": "",
          "type": "address"
        }
      ],
      "payable": false,
      "stateMutability": "view",
      "type": "function"
    }
  ],
  "bytecode": "0x6080604052600160025534801561001557600080fd5b5061101c806100256000396000f300608060405260043610610078576000357c0100000000000000000000000000000000000000000000000000000000900463ffffffff1680630faa2d601461007d5780631645fdcd146101db578063969915ce14610264578063b3687932146103cc578063bb6ec2ec14610439578063c48afd091461047a575b600080fd5b34801561008957600080fd5b506100a86004803603810190808035906020019092919050505061050d565b6040518087815260200180602001806020018673ffffffffffffffffffffffffffffffffffffffff1673ffffffffffffffffffffffffffffffffffffffff16815260200185815260200184151515158152602001838103835288818151815260200191508051906020019080838360005b83811015610134578082015181840152602081019050610119565b50505050905090810190601f1680156101615780820380516001836020036101000a031916815260200191505b50838103825287818151815260200191508051906020019080838360005b8381101561019a57808201518184015260208101905061017f565b50505050905090810190601f1680156101c75780820380516001836020036101000a031916815260200191505b509850505050505050505060405180910390f35b3480156101e757600080fd5b5061024a60048036038101908080359060200190929190803590602001908201803590602001919091929391929390803573ffffffffffffffffffffffffffffffffffffffff1690602001909291908035151590602001909291905050506106ba565b604051808215151515815260200191505060405180910390f35b34801561027057600080fd5b506102996004803603810190808035906020019092919080359060200190929190505050610a91565b6040518087815260200180602001806020018673ffffffffffffffffffffffffffffffffffffffff1673ffffffffffffffffffffffffffffffffffffffff16815260200185815260200184151515158152602001838103835288818151815260200191508051906020019080838360005b8381101561032557808201518184015260208101905061030a565b50505050905090810190601f1680156103525780820380516001836020036101000a031916815260200191505b50838103825287818151815260200191508051906020019080838360005b8381101561038b578082015181840152602081019050610370565b50505050905090810190601f1680156103b85780820380516001836020036101000a031916815260200191505b509850505050505050505060405180910390f35b3480156103d857600080fd5b506103f760048036038101908080359060200190929190505050610c37565b604051808273ffffffffffffffffffffffffffffffffffffffff1673ffffffffffffffffffffffffffffffffffffffff16815260200191505060405180910390f35b34801561044557600080fd5b5061046460048036038101908080359060200190929190505050610c6d565b6040518082815260200191505060405180910390f35b34801561048657600080fd5b506104f7600480360381019080803590602001908201803590602001919091929391929390803590602001908201803590602001919091929391929390803573ffffffffffffffffffffffffffffffffffffffff169060200190929190803515159060200190929190505050610c85565b6040518082815260200191505060405180910390f35b600060608060008060008061052188610f0c565b9050806000015481600101826002018360030160009054906101000a900473ffffffffffffffffffffffffffffffffffffffff1684600401548560050160009054906101000a900460ff16848054600181600116156101000203166002900480601f0160208091040260200160405190810160405280929190818152602001828054600181600116156101000203166002900480156106015780601f106105d657610100808354040283529160200191610601565b820191906000526020600020905b8154815290600101906020018083116105e457829003601f168201915b50505050509450838054600181600116156101000203166002900480601f01602080910402602001604051908101604052809291908181526020018280546001816001161561010002031660029004801561069d5780601f106106725761010080835404028352916020019161069d565b820191906000526020600020905b81548152906001019060200180831161068057829003601f168201915b505050505093509650965096509650965096505091939550919395565b60008060006106c888610f0c565b91506000826004015414156106e05760009250610a86565b8160030160009054906101000a900473ffffffffffffffffffffffffffffffffffffffff1673ffffffffffffffffffffffffffffffffffffffff163373ffffffffffffffffffffffffffffffffffffffff161415156107425760009250610a86565b6001826004015401905060c060405190810160405280898152602001836001018054600181600116156101000203166002900480601f0160208091040260200160405190810160405280929190818152602001828054600181600116156101000203166002900480156107f65780601f106107cb576101008083540402835291602001916107f6565b820191906000526020600020905b8154815290600101906020018083116107d957829003601f168201915b5050505050815260200188888080601f01602080910402602001604051908101604052809392919081815260200183838082843782019150505050505081526020018673ffffffffffffffffffffffffffffffffffffffff1681526020018281526020018515158152506000808a815260200190815260200160002060008381526020019081526020016000206000820151816000015560208201518160010190805190602001906108a9929190610f4b565b5060408201518160020190805190602001906108c6929190610f4b565b5060608201518160030160006101000a81548173ffffffffffffffffffffffffffffffffffffffff021916908373ffffffffffffffffffffffffffffffffffffffff1602179055506080820151816004015560a08201518160050160006101000a81548160ff02191690831515021790555090505080600160008a8152602001908152602001600020819055507ff399fc6def44b141a0f50dda582e037232d0ae332e2b0583211c08420b95e7608883600101898989868a6040518088815260200180602001806020018673ffffffffffffffffffffffffffffffffffffffff1673ffffffffffffffffffffffffffffffffffffffff16815260200185815260200184151515158152602001838103835289818154600181600116156101000203166002900481526020019150805460018160011615610100020316600290048015610a535780601f10610a2857610100808354040283529160200191610a53565b820191906000526020600020905b815481529060010190602001808311610a3657829003601f168201915b505083810382528888828181526020019250808284378201915050995050505050505050505060405180910390a1600192505b505095945050505050565b600060205281600052604060002060205280600052604060002060009150915050806000015490806001018054600181600116156101000203166002900480601f016020809104026020016040519081016040528092919081815260200182805460018160011615610100020316600290048015610b505780601f10610b2557610100808354040283529160200191610b50565b820191906000526020600020905b815481529060010190602001808311610b3357829003601f168201915b505050505090806002018054600181600116156101000203166002900480601f016020809104026020016040519081016040528092919081815260200182805460018160011615610100020316600290048015610bee5780601f10610bc357610100808354040283529160200191610bee565b820191906000526020600020905b815481529060010190602001808311610bd157829003601f168201915b5050505050908060030160009054906101000a900473ffffffffffffffffffffffffffffffffffffffff16908060040154908060050160009054906101000a900460ff16905086565b6000610c4282610f0c565b60030160009054906101000a900473ffffffffffffffffffffffffffffffffffffffff169050919050565b60016020528060005260406000206000915090505481565b6000806002600081548092919060010191905055905060c06040519081016040528082815260200189898080601f016020809104026020016040519081016040528093929190818152602001838380828437820191505050505050815260200187878080601f01602080910402602001604051908101604052809392919081815260200183838082843782019150505050505081526020018573ffffffffffffffffffffffffffffffffffffffff16815260200160018152602001841515815250600080838152602001908152602001600020600060018152602001908152602001600020600082015181600001556020820151816001019080519060200190610d90929190610f4b565b506040820151816002019080519060200190610dad929190610f4b565b5060608201518160030160006101000a81548173ffffffffffffffffffffffffffffffffffffffff021916908373ffffffffffffffffffffffffffffffffffffffff1602179055506080820151816004015560a08201518160050160006101000a81548160ff0219169083151502179055509050506001806000838152602001908152602001600020819055507ff399fc6def44b141a0f50dda582e037232d0ae332e2b0583211c08420b95e76081898989898960018a6040518089815260200180602001806020018673ffffffffffffffffffffffffffffffffffffffff1673ffffffffffffffffffffffffffffffffffffffff1681526020018581526020018415151515815260200183810383528a8a828181526020019250808284378201915050838103825288888281815260200192508082843782019150509a505050505050505050505060405180910390a1809150509695505050505050565b60008060008381526020019081526020016000206000600160008581526020019081526020016000205481526020019081526020016000209050919050565b828054600181600116156101000203166002900490600052602060002090601f016020900481019282601f10610f8c57805160ff1916838001178555610fba565b82800160010185558215610fba579182015b82811115610fb9578251825591602001919060010190610f9e565b5b509050610fc79190610fcb565b5090565b610fed91905b80821115610fe9576000816000905550600101610fd1565b5090565b905600a165627a7a723058209014c085bdc8234848186c331ad72b40daf203775102961f2e10da0223ee41c20029",
  "source": "pragma solidity ^0.4.24;\n\n/**\n * @title ProviderRegistry\n * @dev Registry for providers of some service, e.g. identity or compliance.\n * \n * The registry contains functions for self-amendment (i.e. version upgrades)\n * and a mechanism to gauge trust of individual providers.\n */\ncontract ProviderRegistry {\n    /**\n     * @dev Event emitted whenever a provider is added or changed.\n     *\n     * @param id See ProviderInfo docs.\n     * @param name See ProviderInfo docs.\n     * @param metadata See ProviderInfo docs.\n     * @param owner See ProviderInfo docs.\n     * @param version See ProviderInfo docs.\n     */\n    event ProviderInfoUpdate(\n        uint256 id,\n        string name,\n        string metadata,\n        address owner,\n        uint256 version,\n        bool isAsync\n    );\n\n    /**\n     * @dev Represents a provider of some sort of service.\n     */\n    struct ProviderInfo {\n        /**\n         * @dev The unique id of the provider.\n         */\n        uint256 id;\n        /**\n         * @dev The name of the provider. Immutable.\n         */\n        string name;\n        /**\n         * @dev Any metadata needed for the provider. Represented as an IPFS hash.\n         */\n        string metadata;\n        /**\n         * @dev The owner of the provider. Can be a smart contract.\n         */\n        address owner;\n        /**\n         * @dev The latest version of the provider.\n         */\n        uint256 version;\n        /**\n         * @dev Whether this provider should be treated asynchronously.\n         */\n        bool isAsync;\n    }\n\n    /**\n     * @dev Stores a mapping of provider id => provider version => provider info.\n     */\n    mapping (uint256 => mapping (uint256 => ProviderInfo)) public providers;\n\n    /**\n     * @dev The latest version of a provider.\n     */\n    mapping (uint256 => uint256) public latestProviderVersion;\n\n    /**\n     * @dev The id of next provider registered. This ensures that provider ids are unique.\n     */\n    uint256 nextProviderId = 1;\n\n    /**\n     * @dev Registers a new provider.\n     *\n     * @param name See ProviderInfo docs.\n     * @param metadata See ProviderInfo docs.\n     * @param owner See ProviderInfo docs.\n     */\n    function registerProvider(\n        string name,\n        string metadata,\n        address owner,\n        bool isAsync\n    ) external returns (uint256)\n    {\n        uint256 providerId = nextProviderId++;\n        providers[providerId][1] = ProviderInfo({\n            id: providerId,\n            name: name,\n            metadata: metadata,\n            owner: owner,\n            version: 1,\n            isAsync: isAsync\n        });\n        latestProviderVersion[providerId] = 1;\n        emit ProviderInfoUpdate({\n            id: providerId,\n            name: name,\n            metadata: metadata,\n            owner: owner,\n            version: 1,\n            isAsync: isAsync\n        });\n        return providerId;\n    }\n\n    function getLatestProvider(\n        uint256 providerId\n    ) view private returns (ProviderInfo storage)\n    {\n        return providers[providerId][latestProviderVersion[providerId]];\n    }\n\n    function latestProvider(\n        uint256 providerId\n    ) view external returns (uint256, string, string, address, uint256, bool)\n    {\n        ProviderInfo storage info = getLatestProvider(providerId);\n        return (\n            info.id,\n            info.name,\n            info.metadata,\n            info.owner,\n            info.version,\n            info.isAsync\n        );\n    }\n\n    /**\n     * @dev Upgrades a provider, changing its metadata and owner.\n     *\n     * @param providerId See ProviderInfo docs.\n     * @param metadata See ProviderInfo docs.\n     * @param owner See ProviderInfo docs.\n     */\n    function upgradeProvider(\n        uint256 providerId,\n        string metadata,\n        address owner,\n        bool isAsync\n    ) external returns (bool)\n    {\n        ProviderInfo storage info = getLatestProvider(providerId);\n        // Check if the provider existed\n        if (info.version == 0) {\n            return false;\n        }\n\n        // Check if the provider is authorized to be upgraded by sender\n        if (msg.sender != info.owner) {\n            return false;\n        }\n        uint256 nextVersion = info.version + 1;\n\n        providers[providerId][nextVersion] = ProviderInfo({\n            id: providerId,\n            name: info.name,\n            metadata: metadata,\n            owner: owner,\n            version: nextVersion,\n            isAsync: isAsync\n        });\n        latestProviderVersion[providerId] = nextVersion;\n        emit ProviderInfoUpdate({\n            id: providerId,\n            name: info.name,\n            metadata: metadata,\n            owner: owner,\n            version: nextVersion,\n            isAsync: isAsync\n        });\n        return true;\n    }\n\n    /**\n     * @dev Returns the owner of a provider.\n     *\n     * @param providerId The id of the provider to look up.\n     */\n    function providerOwner(uint256 providerId) view external returns (address) {\n        return getLatestProvider(providerId).owner;\n    }\n\n}",
  "sourcePath": "/home/ian/proj/abacusprotocol/protocol/contracts/protocol/ProviderRegistry.sol",
  "compiler": {
    "name": "solc",
    "version": "0.4.24+commit.e67f0147.Emscripten.clang"
  },
  "schemaVersion": "2.0.1",
  "updatedAt": "2018-08-02T06:02:52.794Z"
}