{
  "contractName": "Provider",
  "abi": [
    {
      "constant": true,
      "inputs": [],
      "name": "providerId",
      "outputs": [
        {
          "name": "",
          "type": "uint256"
        }
      ],
      "payable": false,
      "stateMutability": "view",
      "type": "function"
    },
    {
      "inputs": [
        {
          "name": "_providerRegistry",
          "type": "address"
        },
        {
          "name": "_providerId",
          "type": "uint256"
        }
      ],
      "payable": false,
      "stateMutability": "nonpayable",
      "type": "constructor"
    },
    {
      "constant": true,
      "inputs": [
        {
          "name": "_address",
          "type": "address"
        }
      ],
      "name": "isAdmin",
      "outputs": [
        {
          "name": "_isAdmin",
          "type": "bool"
        }
      ],
      "payable": false,
      "stateMutability": "view",
      "type": "function"
    },
    {
      "constant": false,
      "inputs": [
        {
          "name": "newAdmin",
          "type": "address"
        }
      ],
      "name": "addAdmin",
      "outputs": [],
      "payable": false,
      "stateMutability": "nonpayable",
      "type": "function"
    },
    {
      "constant": false,
      "inputs": [
        {
          "name": "admin",
          "type": "address"
        }
      ],
      "name": "removeAdmin",
      "outputs": [],
      "payable": false,
      "stateMutability": "nonpayable",
      "type": "function"
    },
    {
      "constant": false,
      "inputs": [
        {
          "name": "name",
          "type": "string"
        },
        {
          "name": "metadata",
          "type": "string"
        },
        {
          "name": "isAsync",
          "type": "bool"
        }
      ],
      "name": "registerProvider",
      "outputs": [
        {
          "name": "",
          "type": "uint256"
        }
      ],
      "payable": false,
      "stateMutability": "nonpayable",
      "type": "function"
    },
    {
      "constant": false,
      "inputs": [
        {
          "name": "nextMetadata",
          "type": "string"
        },
        {
          "name": "nextProvider",
          "type": "address"
        },
        {
          "name": "nextIsAsync",
          "type": "bool"
        }
      ],
      "name": "performUpgrade",
      "outputs": [
        {
          "name": "",
          "type": "bool"
        }
      ],
      "payable": false,
      "stateMutability": "nonpayable",
      "type": "function"
    }
  ],
  "bytecode": "0x608060405234801561001057600080fd5b50604051604080610c36833981018060405281019080805190602001909291908051906020019092919050505081600260006101000a81548173ffffffffffffffffffffffffffffffffffffffff021916908373ffffffffffffffffffffffffffffffffffffffff160217905550806001819055506100a63360006100ad6401000000000261094b179091906401000000009004565b5050610200565b600073ffffffffffffffffffffffffffffffffffffffff168173ffffffffffffffffffffffffffffffffffffffff16141515156100e957600080fd5b610102828261016c640100000000026401000000009004565b15151561010e57600080fd5b60018260000160008373ffffffffffffffffffffffffffffffffffffffff1673ffffffffffffffffffffffffffffffffffffffff16815260200190815260200160002060006101000a81548160ff0219169083151502179055505050565b60008073ffffffffffffffffffffffffffffffffffffffff168273ffffffffffffffffffffffffffffffffffffffff16141515156101a957600080fd5b8260000160008373ffffffffffffffffffffffffffffffffffffffff1673ffffffffffffffffffffffffffffffffffffffff16815260200190815260200160002060009054906101000a900460ff16905092915050565b610a278061020f6000396000f300608060405260043610610078576000357c0100000000000000000000000000000000000000000000000000000000900463ffffffff1680631785f53c1461007d57806324d7806c146100c05780632c93186a1461011b578063704802751461018e5780638490a8df146101d1578063e5006aac146101fc575b600080fd5b34801561008957600080fd5b506100be600480360381019080803573ffffffffffffffffffffffffffffffffffffffff16906020019092919050505061027b565b005b3480156100cc57600080fd5b50610101600480360381019080803573ffffffffffffffffffffffffffffffffffffffff169060200190929190505050610335565b604051808215151515815260200191505060405180910390f35b34801561012757600080fd5b50610178600480360381019080803590602001908201803590602001919091929391929390803590602001908201803590602001919091929391929390803515159060200190929190505050610352565b6040518082815260200191505060405180910390f35b34801561019a57600080fd5b506101cf600480360381019080803573ffffffffffffffffffffffffffffffffffffffff169060200190929190505050610569565b005b3480156101dd57600080fd5b506101e6610623565b6040518082815260200191505060405180910390f35b34801561020857600080fd5b50610261600480360381019080803590602001908201803590602001919091929391929390803573ffffffffffffffffffffffffffffffffffffffff169060200190929190803515159060200190929190505050610629565b604051808215151515815260200191505060405180910390f35b61028433610335565b151561031e576040517f08c379a00000000000000000000000000000000000000000000000000000000081526004018080602001828103825260288152602001807f4d75737420626520616e2061646d696e20746f20706572666f726d207468697381526020017f20616374696f6e2e00000000000000000000000000000000000000000000000081525060400191505060405180910390fd5b61033281600061080890919063ffffffff16565b50565b600061034b8260006108b790919063ffffffff16565b9050919050565b600061035d33610335565b15156103f7576040517f08c379a00000000000000000000000000000000000000000000000000000000081526004018080602001828103825260288152602001807f4d75737420626520616e2061646d696e20746f20706572666f726d207468697381526020017f20616374696f6e2e00000000000000000000000000000000000000000000000081525060400191505060405180910390fd5b600060015414151561040c5760009050610560565b600260009054906101000a900473ffffffffffffffffffffffffffffffffffffffff1673ffffffffffffffffffffffffffffffffffffffff1663c48afd098787878730886040518763ffffffff167c01000000000000000000000000000000000000000000000000000000000281526004018080602001806020018573ffffffffffffffffffffffffffffffffffffffff1673ffffffffffffffffffffffffffffffffffffffff16815260200184151515158152602001838103835289898281815260200192508082843782019150508381038252878782818152602001925080828437820191505098505050505050505050602060405180830381600087803b15801561051957600080fd5b505af115801561052d573d6000803e3d6000fd5b505050506040513d602081101561054357600080fd5b810190808051906020019092919050505060018190555060015490505b95945050505050565b61057233610335565b151561060c576040517f08c379a00000000000000000000000000000000000000000000000000000000081526004018080602001828103825260288152602001807f4d75737420626520616e2061646d696e20746f20706572666f726d207468697381526020017f20616374696f6e2e00000000000000000000000000000000000000000000000081525060400191505060405180910390fd5b61062081600061094b90919063ffffffff16565b50565b60015481565b600061063433610335565b15156106ce576040517f08c379a00000000000000000000000000000000000000000000000000000000081526004018080602001828103825260288152602001807f4d75737420626520616e2061646d696e20746f20706572666f726d207468697381526020017f20616374696f6e2e00000000000000000000000000000000000000000000000081525060400191505060405180910390fd5b600260009054906101000a900473ffffffffffffffffffffffffffffffffffffffff1673ffffffffffffffffffffffffffffffffffffffff16631645fdcd600154878787876040518663ffffffff167c010000000000000000000000000000000000000000000000000000000002815260040180868152602001806020018473ffffffffffffffffffffffffffffffffffffffff1673ffffffffffffffffffffffffffffffffffffffff16815260200183151515158152602001828103825286868281815260200192508082843782019150509650505050505050602060405180830381600087803b1580156107c357600080fd5b505af11580156107d7573d6000803e3d6000fd5b505050506040513d60208110156107ed57600080fd5b81019080805190602001909291905050509050949350505050565b600073ffffffffffffffffffffffffffffffffffffffff168173ffffffffffffffffffffffffffffffffffffffff161415151561084457600080fd5b61084e82826108b7565b151561085957600080fd5b60008260000160008373ffffffffffffffffffffffffffffffffffffffff1673ffffffffffffffffffffffffffffffffffffffff16815260200190815260200160002060006101000a81548160ff0219169083151502179055505050565b60008073ffffffffffffffffffffffffffffffffffffffff168273ffffffffffffffffffffffffffffffffffffffff16141515156108f457600080fd5b8260000160008373ffffffffffffffffffffffffffffffffffffffff1673ffffffffffffffffffffffffffffffffffffffff16815260200190815260200160002060009054906101000a900460ff16905092915050565b600073ffffffffffffffffffffffffffffffffffffffff168173ffffffffffffffffffffffffffffffffffffffff161415151561098757600080fd5b61099182826108b7565b15151561099d57600080fd5b60018260000160008373ffffffffffffffffffffffffffffffffffffffff1673ffffffffffffffffffffffffffffffffffffffff16815260200190815260200160002060006101000a81548160ff02191690831515021790555050505600a165627a7a723058200dcd36651b1cc17415234a3de7d62ab883600055b9fe18c5bed40c9872c623fa0029",
  "source": "pragma solidity ^0.4.24;\n\nimport \"openzeppelin-solidity/contracts/access/Roles.sol\";\nimport \"../../protocol/ProviderRegistry.sol\";\n\n/**\n * @title Provider\n * @dev A contract which can be used as a provider in a ProviderRegistry.\n */\ncontract Provider {\n    using Roles for Roles.Role;\n\n    Roles.Role private _admins;\n\n    modifier onlyAdmin() {\n        require(isAdmin(msg.sender), \"Must be an admin to perform this action.\");\n        _;\n    }\n\n    function isAdmin(address _address) public view returns (bool _isAdmin) {\n        return _admins.has(_address);\n    }\n\n    uint256 public providerId;\n    ProviderRegistry providerRegistry;\n    \n    /**\n     * @dev Constructor used for upgrades.\n     *\n     * @param _providerId The provider id. If set to 0, the provider can be registered.\n     */\n    constructor(\n        ProviderRegistry _providerRegistry, \n        uint256 _providerId       \n    ) public \n    {\n        providerRegistry = _providerRegistry;\n        providerId = _providerId;\n        _admins.add(msg.sender);\n    }\n\n    /**\n     * @dev Add a new admin to this provider\n     *\n     * @param newAdmin The address of the new admin\n     */\n\n    function addAdmin(\n        address newAdmin\n    ) public onlyAdmin\n    {\n        _admins.add(newAdmin);\n    }\n\n    /**\n     * @dev Remove an admin to this provider\n     *\n     * @param admin The address of the admin to be removed\n     */\n    function removeAdmin(\n        address admin\n    ) external onlyAdmin\n    {\n        _admins.remove(admin);\n    }\n\n    /**\n     * @dev Registers this provider with the ProviderRegistry.\n     */\n    function registerProvider(\n        string name,\n        string metadata,\n        bool isAsync\n    ) external onlyAdmin returns (uint256)\n    {\n        // First, check if the provider id has been already set.\n        if (providerId != 0) {\n            return 0;\n        }\n        providerId = providerRegistry.registerProvider(\n            name,\n            metadata,\n            this,\n            isAsync\n        );\n        return providerId;\n    }\n\n    /**\n     * @dev Upgrades this provider to a new address.\n     *\n     * @param nextMetadata The metadata of the next provider.\n     * @param nextProvider The address of the next provider.\n     * @return True if the upgrade was successful.\n     */\n    function performUpgrade(\n        string nextMetadata, address nextProvider, bool nextIsAsync\n    ) external onlyAdmin returns (bool)\n    {\n        return providerRegistry.upgradeProvider(\n            providerId, nextMetadata, nextProvider, nextIsAsync\n        );\n    }\n}\n",
  "sourcePath": "/home/ian/proj/abacusfi/protocol/contracts/library/provider/Provider.sol",
  "compiler": {
    "name": "solc",
    "version": "0.4.24+commit.e67f0147.Emscripten.clang"
  },
  "schemaVersion": "2.0.1",
  "updatedAt": "2018-12-19T05:52:05.403Z"
}