{
  "contractName": "Provider",
  "abi": [
    {
      "constant": true,
      "inputs": [
        {
          "name": "addr",
          "type": "address"
        },
        {
          "name": "roleName",
          "type": "string"
        }
      ],
      "name": "checkRole",
      "outputs": [],
      "payable": false,
      "stateMutability": "view",
      "type": "function"
    },
    {
      "constant": true,
      "inputs": [
        {
          "name": "addr",
          "type": "address"
        },
        {
          "name": "roleName",
          "type": "string"
        }
      ],
      "name": "hasRole",
      "outputs": [
        {
          "name": "",
          "type": "bool"
        }
      ],
      "payable": false,
      "stateMutability": "view",
      "type": "function"
    },
    {
      "constant": true,
      "inputs": [],
      "name": "providerId",
      "outputs": [
        {
          "name": "",
          "type": "uint256"
        }
      ],
      "payable": false,
      "stateMutability": "view",
      "type": "function"
    },
    {
      "constant": true,
      "inputs": [],
      "name": "ROLE_ADMIN",
      "outputs": [
        {
          "name": "",
          "type": "string"
        }
      ],
      "payable": false,
      "stateMutability": "view",
      "type": "function"
    },
    {
      "inputs": [
        {
          "name": "_providerRegistry",
          "type": "address"
        },
        {
          "name": "_providerId",
          "type": "uint256"
        }
      ],
      "payable": false,
      "stateMutability": "nonpayable",
      "type": "constructor"
    },
    {
      "anonymous": false,
      "inputs": [
        {
          "indexed": false,
          "name": "addr",
          "type": "address"
        },
        {
          "indexed": false,
          "name": "roleName",
          "type": "string"
        }
      ],
      "name": "RoleAdded",
      "type": "event"
    },
    {
      "anonymous": false,
      "inputs": [
        {
          "indexed": false,
          "name": "addr",
          "type": "address"
        },
        {
          "indexed": false,
          "name": "roleName",
          "type": "string"
        }
      ],
      "name": "RoleRemoved",
      "type": "event"
    },
    {
      "constant": false,
      "inputs": [
        {
          "name": "name",
          "type": "string"
        },
        {
          "name": "metadata",
          "type": "string"
        },
        {
          "name": "isAsync",
          "type": "bool"
        }
      ],
      "name": "registerProvider",
      "outputs": [
        {
          "name": "",
          "type": "uint256"
        }
      ],
      "payable": false,
      "stateMutability": "nonpayable",
      "type": "function"
    },
    {
      "constant": false,
      "inputs": [
        {
          "name": "nextMetadata",
          "type": "string"
        },
        {
          "name": "nextProvider",
          "type": "address"
        },
        {
          "name": "nextIsAsync",
          "type": "bool"
        }
      ],
      "name": "performUpgrade",
      "outputs": [
        {
          "name": "",
          "type": "bool"
        }
      ],
      "payable": false,
      "stateMutability": "nonpayable",
      "type": "function"
    },
    {
      "constant": false,
      "inputs": [
        {
          "name": "newAdmin",
          "type": "address"
        }
      ],
      "name": "addAdmin",
      "outputs": [],
      "payable": false,
      "stateMutability": "nonpayable",
      "type": "function"
    },
    {
      "constant": false,
      "inputs": [
        {
          "name": "admin",
          "type": "address"
        }
      ],
      "name": "removeAdmin",
      "outputs": [],
      "payable": false,
      "stateMutability": "nonpayable",
      "type": "function"
    }
  ],
  "bytecode": "0x608060405234801561001057600080fd5b50604051604080611010833981018060405281019080805190602001909291908051906020019092919050505081600260006101000a81548173ffffffffffffffffffffffffffffffffffffffff021916908373ffffffffffffffffffffffffffffffffffffffff160217905550806001819055506100d3336040805190810160405280600581526020017f61646d696e0000000000000000000000000000000000000000000000000000008152506100da640100000000026401000000009004565b5050610296565b610164826000836040518082805190602001908083835b60208310151561011657805182526020820191506020810190506020830392506100f1565b6001836020036101000a038019825116818451168082178552505050505050905001915050908152602001604051809103902061023864010000000002610ce1179091906401000000009004565b7fbfec83d64eaa953f2708271a023ab9ee82057f8f3578d548c1a4ba0b5b7004898282604051808373ffffffffffffffffffffffffffffffffffffffff1673ffffffffffffffffffffffffffffffffffffffff16815260200180602001828103825283818151815260200191508051906020019080838360005b838110156101f95780820151818401526020810190506101de565b50505050905090810190601f1680156102265780820380516001836020036101000a031916815260200191505b50935050505060405180910390a15050565b60018260000160008373ffffffffffffffffffffffffffffffffffffffff1673ffffffffffffffffffffffffffffffffffffffff16815260200190815260200160002060006101000a81548160ff0219169083151502179055505050565b610d6b806102a56000396000f30060806040526004361061008e576000357c0100000000000000000000000000000000000000000000000000000000900463ffffffff1680630988ca8c146100935780631785f53c1461011c578063217fe6c61461015f5780632c93186a1461020057806370480275146102735780638490a8df146102b6578063d391014b146102e1578063e5006aac14610371575b600080fd5b34801561009f57600080fd5b5061011a600480360381019080803573ffffffffffffffffffffffffffffffffffffffff169060200190929190803590602001908201803590602001908080601f01602080910402602001604051908101604052809392919081815260200183838082843782019150505050505091929192905050506103f0565b005b34801561012857600080fd5b5061015d600480360381019080803573ffffffffffffffffffffffffffffffffffffffff169060200190929190505050610471565b005b34801561016b57600080fd5b506101e6600480360381019080803573ffffffffffffffffffffffffffffffffffffffff169060200190929190803590602001908201803590602001908080601f01602080910402602001604051908101604052809392919081815260200183838082843782019150505050505091929192905050506104f4565b604051808215151515815260200191505060405180910390f35b34801561020c57600080fd5b5061025d60048036038101908080359060200190820180359060200191909192939192939080359060200190820180359060200191909192939192939080351515906020019092919050505061057b565b6040518082815260200191505060405180910390f35b34801561027f57600080fd5b506102b4600480360381019080803573ffffffffffffffffffffffffffffffffffffffff169060200190929190505050610730565b005b3480156102c257600080fd5b506102cb6107b3565b6040518082815260200191505060405180910390f35b3480156102ed57600080fd5b506102f66107b9565b6040518080602001828103825283818151815260200191508051906020019080838360005b8381101561033657808201518184015260208101905061031b565b50505050905090810190601f1680156103635780820380516001836020036101000a031916815260200191505b509250505060405180910390f35b34801561037d57600080fd5b506103d6600480360381019080803590602001908201803590602001919091929391929390803573ffffffffffffffffffffffffffffffffffffffff1690602001909291908035151590602001909291905050506107f2565b604051808215151515815260200191505060405180910390f35b61046d826000836040518082805190602001908083835b60208310151561042c5780518252602082019150602081019050602083039250610407565b6001836020036101000a038019825116818451168082178552505050505050905001915050908152602001604051809103902061096f90919063ffffffff16565b5050565b6040805190810160405280600581526020017f61646d696e0000000000000000000000000000000000000000000000000000008152506104b133826103f0565b6104f0826040805190810160405280600581526020017f61646d696e000000000000000000000000000000000000000000000000000000815250610988565b5050565b6000610573836000846040518082805190602001908083835b602083101515610532578051825260208201915060208101905060208303925061050d565b6001836020036101000a0380198251168184511680821785525050505050509050019150509081526020016040518091039020610ad990919063ffffffff16565b905092915050565b60006040805190810160405280600581526020017f61646d696e0000000000000000000000000000000000000000000000000000008152506105bd33826103f0565b60006001541415156105d25760009150610726565b600260009054906101000a900473ffffffffffffffffffffffffffffffffffffffff1673ffffffffffffffffffffffffffffffffffffffff1663c48afd098888888830896040518763ffffffff167c01000000000000000000000000000000000000000000000000000000000281526004018080602001806020018573ffffffffffffffffffffffffffffffffffffffff1673ffffffffffffffffffffffffffffffffffffffff16815260200184151515158152602001838103835289898281815260200192508082843782019150508381038252878782818152602001925080828437820191505098505050505050505050602060405180830381600087803b1580156106df57600080fd5b505af11580156106f3573d6000803e3d6000fd5b505050506040513d602081101561070957600080fd5b810190808051906020019092919050505060018190555060015491505b5095945050505050565b6040805190810160405280600581526020017f61646d696e00000000000000000000000000000000000000000000000000000081525061077033826103f0565b6107af826040805190810160405280600581526020017f61646d696e000000000000000000000000000000000000000000000000000000815250610b32565b5050565b60015481565b6040805190810160405280600581526020017f61646d696e00000000000000000000000000000000000000000000000000000081525081565b60006040805190810160405280600581526020017f61646d696e00000000000000000000000000000000000000000000000000000081525061083433826103f0565b600260009054906101000a900473ffffffffffffffffffffffffffffffffffffffff1673ffffffffffffffffffffffffffffffffffffffff16631645fdcd600154888888886040518663ffffffff167c010000000000000000000000000000000000000000000000000000000002815260040180868152602001806020018473ffffffffffffffffffffffffffffffffffffffff1673ffffffffffffffffffffffffffffffffffffffff16815260200183151515158152602001828103825286868281815260200192508082843782019150509650505050505050602060405180830381600087803b15801561092957600080fd5b505af115801561093d573d6000803e3d6000fd5b505050506040513d602081101561095357600080fd5b8101908080519060200190929190505050915050949350505050565b6109798282610ad9565b151561098457600080fd5b5050565b610a05826000836040518082805190602001908083835b6020831015156109c4578051825260208201915060208101905060208303925061099f565b6001836020036101000a0380198251168184511680821785525050505050509050019150509081526020016040518091039020610c8390919063ffffffff16565b7fd211483f91fc6eff862467f8de606587a30c8fc9981056f051b897a418df803a8282604051808373ffffffffffffffffffffffffffffffffffffffff1673ffffffffffffffffffffffffffffffffffffffff16815260200180602001828103825283818151815260200191508051906020019080838360005b83811015610a9a578082015181840152602081019050610a7f565b50505050905090810190601f168015610ac75780820380516001836020036101000a031916815260200191505b50935050505060405180910390a15050565b60008260000160008373ffffffffffffffffffffffffffffffffffffffff1673ffffffffffffffffffffffffffffffffffffffff16815260200190815260200160002060009054906101000a900460ff16905092915050565b610baf826000836040518082805190602001908083835b602083101515610b6e5780518252602082019150602081019050602083039250610b49565b6001836020036101000a0380198251168184511680821785525050505050509050019150509081526020016040518091039020610ce190919063ffffffff16565b7fbfec83d64eaa953f2708271a023ab9ee82057f8f3578d548c1a4ba0b5b7004898282604051808373ffffffffffffffffffffffffffffffffffffffff1673ffffffffffffffffffffffffffffffffffffffff16815260200180602001828103825283818151815260200191508051906020019080838360005b83811015610c44578082015181840152602081019050610c29565b50505050905090810190601f168015610c715780820380516001836020036101000a031916815260200191505b50935050505060405180910390a15050565b60008260000160008373ffffffffffffffffffffffffffffffffffffffff1673ffffffffffffffffffffffffffffffffffffffff16815260200190815260200160002060006101000a81548160ff0219169083151502179055505050565b60018260000160008373ffffffffffffffffffffffffffffffffffffffff1673ffffffffffffffffffffffffffffffffffffffff16815260200190815260200160002060006101000a81548160ff02191690831515021790555050505600a165627a7a72305820864dc78aa68600e1db300a4cba5c7a151b31e8c56a7329a0b2d2733d5dd565e80029",
  "source": "pragma solidity ^0.4.24;\n\nimport \"openzeppelin-solidity/contracts/ownership/rbac/RBAC.sol\";\nimport \"../../protocol/ProviderRegistry.sol\";\n\n/**\n * @title Provider\n * @dev A contract which can be used as a provider in a ProviderRegistry.\n */\ncontract Provider is RBAC {\n    string public constant ROLE_ADMIN = \"admin\";\n    uint256 public providerId;\n    ProviderRegistry providerRegistry;\n    \n    /**\n     * @dev Constructor used for upgrades.\n     *\n     * @param _providerId The provider id. If set to 0, the provider can be registered.\n     */\n    constructor(\n        ProviderRegistry _providerRegistry, \n        uint256 _providerId       \n    ) public \n    {\n        providerRegistry = _providerRegistry;\n        providerId = _providerId;\n        addRole(msg.sender, ROLE_ADMIN);\n    }\n\n    /**\n     * @dev Registers this provider with the ProviderRegistry.\n     */\n    function registerProvider(\n        string name,\n        string metadata,\n        bool isAsync\n    ) onlyRole(ROLE_ADMIN) external returns (uint256)\n    {\n        // First, check if the provider id has been already set.\n        if (providerId != 0) {\n            return 0;\n        }\n        providerId = providerRegistry.registerProvider(\n            name,\n            metadata,\n            this,\n            isAsync\n        );\n        return providerId;\n    }\n\n    /**\n     * @dev Upgrades this provider to a new address.\n     *\n     * @param nextMetadata The metadata of the next provider.\n     * @param nextProvider The address of the next provider.\n     * @return True if the upgrade was successful.\n     */\n    function performUpgrade(\n        string nextMetadata, address nextProvider, bool nextIsAsync\n    ) onlyRole(ROLE_ADMIN) external returns (bool)\n    {\n        return providerRegistry.upgradeProvider(\n            providerId, nextMetadata, nextProvider, nextIsAsync\n        );\n    }\n\n    /**\n     * @dev Add a new admin to this provider\n     *\n     * @param newAdmin The address of the new admin\n     */\n\n    function addAdmin(\n        address newAdmin\n    ) onlyRole(ROLE_ADMIN) external \n    {\n        addRole(newAdmin, ROLE_ADMIN);\n    }\n\n    /**\n     * @dev Remove an admin to this provider\n     *\n     * @param admin The address of the admin to be removed\n     */\n    function removeAdmin(\n        address admin\n    ) onlyRole(ROLE_ADMIN) external \n    {\n        removeRole(admin, ROLE_ADMIN);\n    }\n}\n",
  "sourcePath": "/home/ian/proj/abacusprotocol/protocol/contracts/library/provider/Provider.sol",
  "compiler": {
    "name": "solc",
    "version": "0.4.24+commit.e67f0147.Emscripten.clang"
  },
  "schemaVersion": "2.0.1",
  "updatedAt": "2018-08-02T05:54:28.380Z"
}