{
  "contractName": "WhitelistCS",
  "abi": [
    {
      "constant": false,
      "inputs": [
        {
          "name": "admin",
          "type": "address"
        }
      ],
      "name": "removeAdmin",
      "outputs": [],
      "payable": false,
      "stateMutability": "nonpayable",
      "type": "function"
    },
    {
      "constant": true,
      "inputs": [
        {
          "name": "_address",
          "type": "address"
        }
      ],
      "name": "isAdmin",
      "outputs": [
        {
          "name": "_isAdmin",
          "type": "bool"
        }
      ],
      "payable": false,
      "stateMutability": "view",
      "type": "function"
    },
    {
      "constant": false,
      "inputs": [
        {
          "name": "name",
          "type": "string"
        },
        {
          "name": "metadata",
          "type": "string"
        },
        {
          "name": "isAsync",
          "type": "bool"
        }
      ],
      "name": "registerProvider",
      "outputs": [
        {
          "name": "",
          "type": "uint256"
        }
      ],
      "payable": false,
      "stateMutability": "nonpayable",
      "type": "function"
    },
    {
      "constant": false,
      "inputs": [
        {
          "name": "newAdmin",
          "type": "address"
        }
      ],
      "name": "addAdmin",
      "outputs": [],
      "payable": false,
      "stateMutability": "nonpayable",
      "type": "function"
    },
    {
      "constant": true,
      "inputs": [],
      "name": "providerId",
      "outputs": [
        {
          "name": "",
          "type": "uint256"
        }
      ],
      "payable": false,
      "stateMutability": "view",
      "type": "function"
    },
    {
      "constant": true,
      "inputs": [],
      "name": "FIELD_WHITELISTED",
      "outputs": [
        {
          "name": "",
          "type": "uint256"
        }
      ],
      "payable": false,
      "stateMutability": "view",
      "type": "function"
    },
    {
      "constant": false,
      "inputs": [
        {
          "name": "nextMetadata",
          "type": "string"
        },
        {
          "name": "nextProvider",
          "type": "address"
        },
        {
          "name": "nextIsAsync",
          "type": "bool"
        }
      ],
      "name": "performUpgrade",
      "outputs": [
        {
          "name": "",
          "type": "bool"
        }
      ],
      "payable": false,
      "stateMutability": "nonpayable",
      "type": "function"
    },
    {
      "inputs": [
        {
          "name": "_identityToken",
          "type": "address"
        },
        {
          "name": "_providerRegistry",
          "type": "address"
        },
        {
          "name": "_providerId",
          "type": "uint256"
        },
        {
          "name": "_identityProviderId",
          "type": "uint256"
        }
      ],
      "payable": false,
      "stateMutability": "nonpayable",
      "type": "constructor"
    },
    {
      "constant": false,
      "inputs": [
        {
          "name": "token",
          "type": "address"
        },
        {
          "name": "",
          "type": "uint256"
        },
        {
          "name": "from",
          "type": "address"
        },
        {
          "name": "to",
          "type": "address"
        },
        {
          "name": "",
          "type": "bytes32"
        }
      ],
      "name": "performCheck",
      "outputs": [
        {
          "name": "",
          "type": "uint256"
        }
      ],
      "payable": false,
      "stateMutability": "nonpayable",
      "type": "function"
    }
  ],
  "bytecode": "0x6080604052600060045534801561001557600080fd5b5060405160808061140d83398101806040528101908080519060200190929190805190602001909291908051906020019092919080519060200190929190505050828281600260006101000a81548173ffffffffffffffffffffffffffffffffffffffff021916908373ffffffffffffffffffffffffffffffffffffffff160217905550806001819055506100c1336000610114640100000000026110bb179091906401000000009004565b505083600360006101000a81548173ffffffffffffffffffffffffffffffffffffffff021916908373ffffffffffffffffffffffffffffffffffffffff1602179055508060058190555050505050610267565b600073ffffffffffffffffffffffffffffffffffffffff168173ffffffffffffffffffffffffffffffffffffffff161415151561015057600080fd5b61016982826101d3640100000000026401000000009004565b15151561017557600080fd5b60018260000160008373ffffffffffffffffffffffffffffffffffffffff1673ffffffffffffffffffffffffffffffffffffffff16815260200190815260200160002060006101000a81548160ff0219169083151502179055505050565b60008073ffffffffffffffffffffffffffffffffffffffff168273ffffffffffffffffffffffffffffffffffffffff161415151561021057600080fd5b8260000160008373ffffffffffffffffffffffffffffffffffffffff1673ffffffffffffffffffffffffffffffffffffffff16815260200190815260200160002060009054906101000a900460ff16905092915050565b611197806102766000396000f30060806040526004361061008e576000357c0100000000000000000000000000000000000000000000000000000000900463ffffffff1680631785f53c1461009357806324d7806c146100d65780632c93186a1461013157806370480275146101a45780638490a8df146101e7578063ccfa9e5a14610212578063e5006aac1461023d578063ea4000f8146102bc575b600080fd5b34801561009f57600080fd5b506100d4600480360381019080803573ffffffffffffffffffffffffffffffffffffffff16906020019092919050505061036b565b005b3480156100e257600080fd5b50610117600480360381019080803573ffffffffffffffffffffffffffffffffffffffff169060200190929190505050610425565b604051808215151515815260200191505060405180910390f35b34801561013d57600080fd5b5061018e600480360381019080803590602001908201803590602001919091929391929390803590602001908201803590602001919091929391929390803515159060200190929190505050610442565b6040518082815260200191505060405180910390f35b3480156101b057600080fd5b506101e5600480360381019080803573ffffffffffffffffffffffffffffffffffffffff169060200190929190505050610659565b005b3480156101f357600080fd5b506101fc610713565b6040518082815260200191505060405180910390f35b34801561021e57600080fd5b50610227610719565b6040518082815260200191505060405180910390f35b34801561024957600080fd5b506102a2600480360381019080803590602001908201803590602001919091929391929390803573ffffffffffffffffffffffffffffffffffffffff169060200190929190803515159060200190929190505050610721565b604051808215151515815260200191505060405180910390f35b3480156102c857600080fd5b50610355600480360381019080803573ffffffffffffffffffffffffffffffffffffffff16906020019092919080359060200190929190803573ffffffffffffffffffffffffffffffffffffffff169060200190929190803573ffffffffffffffffffffffffffffffffffffffff1690602001909291908035600019169060200190929190505050610900565b6040518082815260200191505060405180910390f35b61037433610425565b151561040e576040517f08c379a00000000000000000000000000000000000000000000000000000000081526004018080602001828103825260288152602001807f4d75737420626520616e2061646d696e20746f20706572666f726d207468697381526020017f20616374696f6e2e00000000000000000000000000000000000000000000000081525060400191505060405180910390fd5b610422816000610f7890919063ffffffff16565b50565b600061043b82600061102790919063ffffffff16565b9050919050565b600061044d33610425565b15156104e7576040517f08c379a00000000000000000000000000000000000000000000000000000000081526004018080602001828103825260288152602001807f4d75737420626520616e2061646d696e20746f20706572666f726d207468697381526020017f20616374696f6e2e00000000000000000000000000000000000000000000000081525060400191505060405180910390fd5b60006001541415156104fc5760009050610650565b600260009054906101000a900473ffffffffffffffffffffffffffffffffffffffff1673ffffffffffffffffffffffffffffffffffffffff1663c48afd098787878730886040518763ffffffff167c01000000000000000000000000000000000000000000000000000000000281526004018080602001806020018573ffffffffffffffffffffffffffffffffffffffff1673ffffffffffffffffffffffffffffffffffffffff16815260200184151515158152602001838103835289898281815260200192508082843782019150508381038252878782818152602001925080828437820191505098505050505050505050602060405180830381600087803b15801561060957600080fd5b505af115801561061d573d6000803e3d6000fd5b505050506040513d602081101561063357600080fd5b810190808051906020019092919050505060018190555060015490505b95945050505050565b61066233610425565b15156106fc576040517f08c379a00000000000000000000000000000000000000000000000000000000081526004018080602001828103825260288152602001807f4d75737420626520616e2061646d696e20746f20706572666f726d207468697381526020017f20616374696f6e2e00000000000000000000000000000000000000000000000081525060400191505060405180910390fd5b6107108160006110bb90919063ffffffff16565b50565b60015481565b63faceb00c81565b600061072c33610425565b15156107c6576040517f08c379a00000000000000000000000000000000000000000000000000000000081526004018080602001828103825260288152602001807f4d75737420626520616e2061646d696e20746f20706572666f726d207468697381526020017f20616374696f6e2e00000000000000000000000000000000000000000000000081525060400191505060405180910390fd5b600260009054906101000a900473ffffffffffffffffffffffffffffffffffffffff1673ffffffffffffffffffffffffffffffffffffffff16631645fdcd600154878787876040518663ffffffff167c010000000000000000000000000000000000000000000000000000000002815260040180868152602001806020018473ffffffffffffffffffffffffffffffffffffffff1673ffffffffffffffffffffffffffffffffffffffff16815260200183151515158152602001828103825286868281815260200192508082843782019150509650505050505050602060405180830381600087803b1580156108bb57600080fd5b505af11580156108cf573d6000803e3d6000fd5b505050506040513d60208110156108e557600080fd5b81019080805190602001909291905050509050949350505050565b600080600080600080600460008154809291906001019190505550600360009054906101000a900473ffffffffffffffffffffffffffffffffffffffff1673ffffffffffffffffffffffffffffffffffffffff16639a4e193f6040518163ffffffff167c0100000000000000000000000000000000000000000000000000000000028152600401602060405180830381600087803b1580156109a157600080fd5b505af11580156109b5573d6000803e3d6000fd5b505050506040513d60208110156109cb57600080fd5b810190808051906020019092919050505073ffffffffffffffffffffffffffffffffffffffff166374611fb0600360009054906101000a900473ffffffffffffffffffffffffffffffffffffffff16600360009054906101000a900473ffffffffffffffffffffffffffffffffffffffff1673ffffffffffffffffffffffffffffffffffffffff166342ec38e28d6040518263ffffffff167c0100000000000000000000000000000000000000000000000000000000028152600401808273ffffffffffffffffffffffffffffffffffffffff1673ffffffffffffffffffffffffffffffffffffffff168152602001915050602060405180830381600087803b158015610ad757600080fd5b505af1158015610aeb573d6000803e3d6000fd5b505050506040513d6020811015610b0157600080fd5b810190808051906020019092919050505060055463faceb00c6040518563ffffffff167c0100000000000000000000000000000000000000000000000000000000028152600401808573ffffffffffffffffffffffffffffffffffffffff1673ffffffffffffffffffffffffffffffffffffffff1681526020018481526020018381526020018281526020019450505050506040805180830381600087803b158015610bac57600080fd5b505af1158015610bc0573d6000803e3d6000fd5b505050506040513d6040811015610bd657600080fd5b8101908080519060200190929190805190602001909291905050509050809550506000600102600019168560001916141593508873ffffffffffffffffffffffffffffffffffffffff168b73ffffffffffffffffffffffffffffffffffffffff161415610c4257600193505b600360009054906101000a900473ffffffffffffffffffffffffffffffffffffffff1673ffffffffffffffffffffffffffffffffffffffff16639a4e193f6040518163ffffffff167c0100000000000000000000000000000000000000000000000000000000028152600401602060405180830381600087803b158015610cc857600080fd5b505af1158015610cdc573d6000803e3d6000fd5b505050506040513d6020811015610cf257600080fd5b810190808051906020019092919050505073ffffffffffffffffffffffffffffffffffffffff166374611fb0600360009054906101000a900473ffffffffffffffffffffffffffffffffffffffff16600360009054906101000a900473ffffffffffffffffffffffffffffffffffffffff1673ffffffffffffffffffffffffffffffffffffffff166342ec38e28c6040518263ffffffff167c0100000000000000000000000000000000000000000000000000000000028152600401808273ffffffffffffffffffffffffffffffffffffffff1673ffffffffffffffffffffffffffffffffffffffff168152602001915050602060405180830381600087803b158015610dfe57600080fd5b505af1158015610e12573d6000803e3d6000fd5b505050506040513d6020811015610e2857600080fd5b810190808051906020019092919050505060055463faceb00c6040518563ffffffff167c0100000000000000000000000000000000000000000000000000000000028152600401808573ffffffffffffffffffffffffffffffffffffffff1673ffffffffffffffffffffffffffffffffffffffff1681526020018481526020018381526020018281526020019450505050506040805180830381600087803b158015610ed357600080fd5b505af1158015610ee7573d6000803e3d6000fd5b505050506040513d6040811015610efd57600080fd5b810190808051906020019092919080519060200190929190505050905080935050600060010260001916836000191614159150838015610f3a5750815b15610f485760009550610f6a565b601090508315610f59576008811790505b8115610f66576002811790505b8095505b505050505095945050505050565b600073ffffffffffffffffffffffffffffffffffffffff168173ffffffffffffffffffffffffffffffffffffffff1614151515610fb457600080fd5b610fbe8282611027565b1515610fc957600080fd5b60008260000160008373ffffffffffffffffffffffffffffffffffffffff1673ffffffffffffffffffffffffffffffffffffffff16815260200190815260200160002060006101000a81548160ff0219169083151502179055505050565b60008073ffffffffffffffffffffffffffffffffffffffff168273ffffffffffffffffffffffffffffffffffffffff161415151561106457600080fd5b8260000160008373ffffffffffffffffffffffffffffffffffffffff1673ffffffffffffffffffffffffffffffffffffffff16815260200190815260200160002060009054906101000a900460ff16905092915050565b600073ffffffffffffffffffffffffffffffffffffffff168173ffffffffffffffffffffffffffffffffffffffff16141515156110f757600080fd5b6111018282611027565b15151561110d57600080fd5b60018260000160008373ffffffffffffffffffffffffffffffffffffffff1673ffffffffffffffffffffffffffffffffffffffff16815260200190815260200160002060006101000a81548160ff02191690831515021790555050505600a165627a7a72305820f35236e45d55433c29c5ed51e38b2a7c596574216137c9be04f6ae1cffac106f0029",
  "source": "pragma solidity ^0.4.24;\n\nimport \"../../protocol/IdentityToken.sol\";\nimport \"../../protocol/AnnotationDatabase.sol\";\nimport \"../../library/compliance/ComplianceStandard.sol\";\n\ncontract WhitelistCS is ComplianceStandard {\n    IdentityToken identityToken;\n\n    uint256 operations = 0;\n    uint256 identityProviderId;\n    uint256 constant public FIELD_WHITELISTED = 0xfaceb00c;\n\n    constructor(\n        IdentityToken _identityToken,\n        ProviderRegistry _providerRegistry,\n        uint256 _providerId,\n        uint256 _identityProviderId\n    ) Provider(_providerRegistry, _providerId) public\n    {\n        identityToken = _identityToken;\n        identityProviderId = _identityProviderId;\n    }\n\n    function performCheck(\n        address token,\n        uint256,\n        address from,\n        address to,\n        bytes32 \n    ) external returns (uint256)\n    {\n        operations++;\n        bytes32 fromWhitelistedVal;\n        (,fromWhitelistedVal) = identityToken.annotationDatabase().bytes32Data(\n            identityToken, identityToken.tokenOf(from), identityProviderId, FIELD_WHITELISTED\n        );\n        bool fromWhitelisted = fromWhitelistedVal != bytes32(0);\n\n        // initial issuance\n        if (token == from) {\n            fromWhitelisted = true;\n        }\n\n        bytes32 toWhitelistedVal;\n        (,toWhitelistedVal) = identityToken.annotationDatabase().bytes32Data(\n            identityToken, identityToken.tokenOf(to), identityProviderId, FIELD_WHITELISTED\n        );\n        bool toWhitelisted = toWhitelistedVal != bytes32(0);\n\n        if (fromWhitelisted && toWhitelisted) {\n            return 0;\n        }\n\n        uint256 err = 0x10;\n        if (fromWhitelisted) {\n            err |= 0x8;\n        }\n        if (toWhitelisted) {\n            err |= 0x2;\n        }\n        return err;\n    }\n\n}",
  "sourcePath": "/home/ian/proj/abacusfi/protocol/contracts/test/cs/WhitelistCS.sol",
  "compiler": {
    "name": "solc",
    "version": "0.4.24+commit.e67f0147.Emscripten.clang"
  },
  "schemaVersion": "2.0.1",
  "updatedAt": "2018-12-19T06:06:48.336Z"
}